{
  "_format": "hh-sol-artifact-1",
  "contractName": "DAOCommitteeOwner",
  "sourceName": "contracts/dao/DAOCommitteeOwner.sol",
  "abi": [
    {
      "inputs": [
        {
          "internalType": "uint256",
          "name": "x",
          "type": "uint256"
        }
      ],
      "name": "SameAddressError",
      "type": "error"
    },
    {
      "anonymous": false,
      "inputs": [
        {
          "indexed": false,
          "internalType": "uint256",
          "name": "newReward",
          "type": "uint256"
        }
      ],
      "name": "ActivityRewardChanged",
      "type": "event"
    },
    {
      "anonymous": false,
      "inputs": [
        {
          "indexed": true,
          "internalType": "uint256",
          "name": "slotIndex",
          "type": "uint256"
        },
        {
          "indexed": false,
          "internalType": "address",
          "name": "prevMember",
          "type": "address"
        },
        {
          "indexed": true,
          "internalType": "address",
          "name": "newMember",
          "type": "address"
        }
      ],
      "name": "ChangedMember",
      "type": "event"
    },
    {
      "anonymous": false,
      "inputs": [
        {
          "indexed": true,
          "internalType": "uint256",
          "name": "prevSlotMax",
          "type": "uint256"
        },
        {
          "indexed": true,
          "internalType": "uint256",
          "name": "slotMax",
          "type": "uint256"
        }
      ],
      "name": "ChangedSlotMaximum",
      "type": "event"
    },
    {
      "anonymous": false,
      "inputs": [
        {
          "indexed": false,
          "internalType": "address",
          "name": "to",
          "type": "address"
        },
        {
          "indexed": false,
          "internalType": "bytes",
          "name": "data",
          "type": "bytes"
        },
        {
          "indexed": false,
          "internalType": "bool",
          "name": "success",
          "type": "bool"
        }
      ],
      "name": "DAOExecuteTransaction",
      "type": "event"
    },
    {
      "anonymous": false,
      "inputs": [
        {
          "indexed": false,
          "internalType": "uint256",
          "name": "newQuorum",
          "type": "uint256"
        }
      ],
      "name": "QuorumChanged",
      "type": "event"
    },
    {
      "anonymous": false,
      "inputs": [
        {
          "indexed": true,
          "internalType": "bytes32",
          "name": "role",
          "type": "bytes32"
        },
        {
          "indexed": true,
          "internalType": "bytes32",
          "name": "previousAdminRole",
          "type": "bytes32"
        },
        {
          "indexed": true,
          "internalType": "bytes32",
          "name": "newAdminRole",
          "type": "bytes32"
        }
      ],
      "name": "RoleAdminChanged",
      "type": "event"
    },
    {
      "anonymous": false,
      "inputs": [
        {
          "indexed": true,
          "internalType": "bytes32",
          "name": "role",
          "type": "bytes32"
        },
        {
          "indexed": true,
          "internalType": "address",
          "name": "account",
          "type": "address"
        },
        {
          "indexed": true,
          "internalType": "address",
          "name": "sender",
          "type": "address"
        }
      ],
      "name": "RoleGranted",
      "type": "event"
    },
    {
      "anonymous": false,
      "inputs": [
        {
          "indexed": true,
          "internalType": "bytes32",
          "name": "role",
          "type": "bytes32"
        },
        {
          "indexed": true,
          "internalType": "address",
          "name": "account",
          "type": "address"
        },
        {
          "indexed": true,
          "internalType": "address",
          "name": "sender",
          "type": "address"
        }
      ],
      "name": "RoleRevoked",
      "type": "event"
    },
    {
      "anonymous": false,
      "inputs": [
        {
          "indexed": false,
          "internalType": "address",
          "name": "agendaManagerAddr",
          "type": "address"
        }
      ],
      "name": "SetAgendaManager",
      "type": "event"
    },
    {
      "anonymous": false,
      "inputs": [
        {
          "indexed": false,
          "internalType": "address",
          "name": "candidateAddOnFactoryAddr",
          "type": "address"
        }
      ],
      "name": "SetCandidateAddOnFactory",
      "type": "event"
    },
    {
      "anonymous": false,
      "inputs": [
        {
          "indexed": false,
          "internalType": "address",
          "name": "candidateFactoryAddr",
          "type": "address"
        }
      ],
      "name": "SetCandidateFactory",
      "type": "event"
    },
    {
      "anonymous": false,
      "inputs": [
        {
          "indexed": false,
          "internalType": "uint256",
          "name": "cooldownTime",
          "type": "uint256"
        }
      ],
      "name": "SetCooldownTime",
      "type": "event"
    },
    {
      "anonymous": false,
      "inputs": [
        {
          "indexed": false,
          "internalType": "address",
          "name": "daoVaultAddr",
          "type": "address"
        }
      ],
      "name": "SetDaoVault",
      "type": "event"
    },
    {
      "anonymous": false,
      "inputs": [
        {
          "indexed": false,
          "internalType": "address",
          "name": "layer2ManagerAddr",
          "type": "address"
        }
      ],
      "name": "SetLayer2Manager",
      "type": "event"
    },
    {
      "anonymous": false,
      "inputs": [
        {
          "indexed": false,
          "internalType": "address",
          "name": "layer2RegistryAddr",
          "type": "address"
        }
      ],
      "name": "SetLayer2Registry",
      "type": "event"
    },
    {
      "anonymous": false,
      "inputs": [
        {
          "indexed": false,
          "internalType": "address",
          "name": "seigManagerAddr",
          "type": "address"
        }
      ],
      "name": "SetSeigManager",
      "type": "event"
    },
    {
      "anonymous": false,
      "inputs": [
        {
          "indexed": false,
          "internalType": "address",
          "name": "tonAddr",
          "type": "address"
        }
      ],
      "name": "SetTON",
      "type": "event"
    },
    {
      "anonymous": false,
      "inputs": [
        {
          "indexed": false,
          "internalType": "address",
          "name": "wtonAddr",
          "type": "address"
        }
      ],
      "name": "SetWTON",
      "type": "event"
    },
    {
      "inputs": [],
      "name": "DEFAULT_ADMIN_ROLE",
      "outputs": [
        {
          "internalType": "bytes32",
          "name": "",
          "type": "bytes32"
        }
      ],
      "stateMutability": "view",
      "type": "function"
    },
    {
      "inputs": [],
      "name": "activityRewardPerSecond",
      "outputs": [
        {
          "internalType": "uint256",
          "name": "",
          "type": "uint256"
        }
      ],
      "stateMutability": "view",
      "type": "function"
    },
    {
      "inputs": [],
      "name": "agendaManager",
      "outputs": [
        {
          "internalType": "contract IDAOAgendaManager",
          "name": "",
          "type": "address"
        }
      ],
      "stateMutability": "view",
      "type": "function"
    },
    {
      "inputs": [
        {
          "internalType": "address",
          "name": "",
          "type": "address"
        }
      ],
      "name": "aliveImplementation",
      "outputs": [
        {
          "internalType": "bool",
          "name": "",
          "type": "bool"
        }
      ],
      "stateMutability": "view",
      "type": "function"
    },
    {
      "inputs": [
        {
          "internalType": "address",
          "name": "",
          "type": "address"
        }
      ],
      "name": "blacklist",
      "outputs": [
        {
          "internalType": "bool",
          "name": "",
          "type": "bool"
        }
      ],
      "stateMutability": "view",
      "type": "function"
    },
    {
      "inputs": [],
      "name": "candidateAddOnFactory",
      "outputs": [
        {
          "internalType": "address",
          "name": "",
          "type": "address"
        }
      ],
      "stateMutability": "view",
      "type": "function"
    },
    {
      "inputs": [
        {
          "internalType": "address",
          "name": "_candidate",
          "type": "address"
        }
      ],
      "name": "candidateContract",
      "outputs": [
        {
          "internalType": "address",
          "name": "",
          "type": "address"
        }
      ],
      "stateMutability": "view",
      "type": "function"
    },
    {
      "inputs": [],
      "name": "candidateFactory",
      "outputs": [
        {
          "internalType": "contract ICandidateFactory",
          "name": "",
          "type": "address"
        }
      ],
      "stateMutability": "view",
      "type": "function"
    },
    {
      "inputs": [
        {
          "internalType": "address",
          "name": "_candidate",
          "type": "address"
        }
      ],
      "name": "candidateInfos",
      "outputs": [
        {
          "components": [
            {
              "internalType": "address",
              "name": "candidateContract",
              "type": "address"
            },
            {
              "internalType": "uint256",
              "name": "indexMembers",
              "type": "uint256"
            },
            {
              "internalType": "uint128",
              "name": "memberJoinedTime",
              "type": "uint128"
            },
            {
              "internalType": "uint128",
              "name": "rewardPeriod",
              "type": "uint128"
            },
            {
              "internalType": "uint128",
              "name": "claimedTimestamp",
              "type": "uint128"
            }
          ],
          "internalType": "struct StorageStateCommittee.CandidateInfo",
          "name": "",
          "type": "tuple"
        }
      ],
      "stateMutability": "view",
      "type": "function"
    },
    {
      "inputs": [
        {
          "internalType": "uint256",
          "name": "",
          "type": "uint256"
        }
      ],
      "name": "candidates",
      "outputs": [
        {
          "internalType": "address",
          "name": "",
          "type": "address"
        }
      ],
      "stateMutability": "view",
      "type": "function"
    },
    {
      "inputs": [
        {
          "internalType": "address",
          "name": "",
          "type": "address"
        }
      ],
      "name": "cooldown",
      "outputs": [
        {
          "internalType": "uint256",
          "name": "",
          "type": "uint256"
        }
      ],
      "stateMutability": "view",
      "type": "function"
    },
    {
      "inputs": [],
      "name": "cooldownTime",
      "outputs": [
        {
          "internalType": "uint256",
          "name": "",
          "type": "uint256"
        }
      ],
      "stateMutability": "view",
      "type": "function"
    },
    {
      "inputs": [
        {
          "internalType": "address",
          "name": "_to",
          "type": "address"
        },
        {
          "internalType": "bytes",
          "name": "_data",
          "type": "bytes"
        }
      ],
      "name": "daoExecuteTransaction",
      "outputs": [],
      "stateMutability": "nonpayable",
      "type": "function"
    },
    {
      "inputs": [],
      "name": "daoVault",
      "outputs": [
        {
          "internalType": "contract IDAOVault",
          "name": "",
          "type": "address"
        }
      ],
      "stateMutability": "view",
      "type": "function"
    },
    {
      "inputs": [
        {
          "internalType": "uint256",
          "name": "_reducingMemberIndex",
          "type": "uint256"
        },
        {
          "internalType": "uint256",
          "name": "_quorum",
          "type": "uint256"
        }
      ],
      "name": "decreaseMaxMember",
      "outputs": [],
      "stateMutability": "nonpayable",
      "type": "function"
    },
    {
      "inputs": [
        {
          "internalType": "bytes32",
          "name": "role",
          "type": "bytes32"
        }
      ],
      "name": "getRoleAdmin",
      "outputs": [
        {
          "internalType": "bytes32",
          "name": "",
          "type": "bytes32"
        }
      ],
      "stateMutability": "view",
      "type": "function"
    },
    {
      "inputs": [
        {
          "internalType": "bytes32",
          "name": "role",
          "type": "bytes32"
        },
        {
          "internalType": "uint256",
          "name": "index",
          "type": "uint256"
        }
      ],
      "name": "getRoleMember",
      "outputs": [
        {
          "internalType": "address",
          "name": "",
          "type": "address"
        }
      ],
      "stateMutability": "view",
      "type": "function"
    },
    {
      "inputs": [
        {
          "internalType": "bytes32",
          "name": "role",
          "type": "bytes32"
        }
      ],
      "name": "getRoleMemberCount",
      "outputs": [
        {
          "internalType": "uint256",
          "name": "",
          "type": "uint256"
        }
      ],
      "stateMutability": "view",
      "type": "function"
    },
    {
      "inputs": [
        {
          "internalType": "bytes32",
          "name": "role",
          "type": "bytes32"
        },
        {
          "internalType": "address",
          "name": "account",
          "type": "address"
        }
      ],
      "name": "grantRole",
      "outputs": [],
      "stateMutability": "nonpayable",
      "type": "function"
    },
    {
      "inputs": [
        {
          "internalType": "bytes32",
          "name": "role",
          "type": "bytes32"
        },
        {
          "internalType": "address",
          "name": "account",
          "type": "address"
        }
      ],
      "name": "hasRole",
      "outputs": [
        {
          "internalType": "bool",
          "name": "",
          "type": "bool"
        }
      ],
      "stateMutability": "view",
      "type": "function"
    },
    {
      "inputs": [
        {
          "internalType": "uint256",
          "name": "_newMaxMember",
          "type": "uint256"
        },
        {
          "internalType": "uint256",
          "name": "_quorum",
          "type": "uint256"
        }
      ],
      "name": "increaseMaxMember",
      "outputs": [],
      "stateMutability": "nonpayable",
      "type": "function"
    },
    {
      "inputs": [
        {
          "internalType": "address",
          "name": "_candidate",
          "type": "address"
        }
      ],
      "name": "isMember",
      "outputs": [
        {
          "internalType": "bool",
          "name": "",
          "type": "bool"
        }
      ],
      "stateMutability": "view",
      "type": "function"
    },
    {
      "inputs": [],
      "name": "layer2Manager",
      "outputs": [
        {
          "internalType": "address",
          "name": "",
          "type": "address"
        }
      ],
      "stateMutability": "view",
      "type": "function"
    },
    {
      "inputs": [],
      "name": "layer2Registry",
      "outputs": [
        {
          "internalType": "contract ILayer2Registry",
          "name": "",
          "type": "address"
        }
      ],
      "stateMutability": "view",
      "type": "function"
    },
    {
      "inputs": [],
      "name": "maxMember",
      "outputs": [
        {
          "internalType": "uint256",
          "name": "",
          "type": "uint256"
        }
      ],
      "stateMutability": "view",
      "type": "function"
    },
    {
      "inputs": [
        {
          "internalType": "uint256",
          "name": "",
          "type": "uint256"
        }
      ],
      "name": "members",
      "outputs": [
        {
          "internalType": "address",
          "name": "",
          "type": "address"
        }
      ],
      "stateMutability": "view",
      "type": "function"
    },
    {
      "inputs": [],
      "name": "pauseProxy",
      "outputs": [
        {
          "internalType": "bool",
          "name": "",
          "type": "bool"
        }
      ],
      "stateMutability": "view",
      "type": "function"
    },
    {
      "inputs": [
        {
          "internalType": "address",
          "name": "",
          "type": "address"
        }
      ],
      "name": "privateLayer2",
      "outputs": [
        {
          "internalType": "bool",
          "name": "",
          "type": "bool"
        }
      ],
      "stateMutability": "view",
      "type": "function"
    },
    {
      "inputs": [
        {
          "internalType": "uint256",
          "name": "",
          "type": "uint256"
        }
      ],
      "name": "proxyImplementation",
      "outputs": [
        {
          "internalType": "address",
          "name": "",
          "type": "address"
        }
      ],
      "stateMutability": "view",
      "type": "function"
    },
    {
      "inputs": [],
      "name": "quorum",
      "outputs": [
        {
          "internalType": "uint256",
          "name": "",
          "type": "uint256"
        }
      ],
      "stateMutability": "view",
      "type": "function"
    },
    {
      "inputs": [
        {
          "internalType": "bytes32",
          "name": "role",
          "type": "bytes32"
        },
        {
          "internalType": "address",
          "name": "account",
          "type": "address"
        }
      ],
      "name": "renounceRole",
      "outputs": [],
      "stateMutability": "nonpayable",
      "type": "function"
    },
    {
      "inputs": [
        {
          "internalType": "bytes32",
          "name": "role",
          "type": "bytes32"
        },
        {
          "internalType": "address",
          "name": "account",
          "type": "address"
        }
      ],
      "name": "revokeRole",
      "outputs": [],
      "stateMutability": "nonpayable",
      "type": "function"
    },
    {
      "inputs": [],
      "name": "seigManager",
      "outputs": [
        {
          "internalType": "contract ISeigManager",
          "name": "",
          "type": "address"
        }
      ],
      "stateMutability": "view",
      "type": "function"
    },
    {
      "inputs": [
        {
          "internalType": "bytes4",
          "name": "",
          "type": "bytes4"
        }
      ],
      "name": "selectorImplementation",
      "outputs": [
        {
          "internalType": "address",
          "name": "",
          "type": "address"
        }
      ],
      "stateMutability": "view",
      "type": "function"
    },
    {
      "inputs": [
        {
          "internalType": "uint256",
          "name": "_value",
          "type": "uint256"
        }
      ],
      "name": "setActivityRewardPerSecond",
      "outputs": [],
      "stateMutability": "nonpayable",
      "type": "function"
    },
    {
      "inputs": [
        {
          "internalType": "address",
          "name": "_agendaManager",
          "type": "address"
        }
      ],
      "name": "setAgendaManager",
      "outputs": [],
      "stateMutability": "nonpayable",
      "type": "function"
    },
    {
      "inputs": [
        {
          "internalType": "uint256",
          "name": "_burnAmount",
          "type": "uint256"
        }
      ],
      "name": "setBurntAmountAtDAO",
      "outputs": [],
      "stateMutability": "nonpayable",
      "type": "function"
    },
    {
      "inputs": [
        {
          "internalType": "address",
          "name": "_candidateAddOnFactory",
          "type": "address"
        }
      ],
      "name": "setCandidateAddOnFactory",
      "outputs": [],
      "stateMutability": "nonpayable",
      "type": "function"
    },
    {
      "inputs": [
        {
          "internalType": "address",
          "name": "_candidateFactory",
          "type": "address"
        }
      ],
      "name": "setCandidateFactory",
      "outputs": [],
      "stateMutability": "nonpayable",
      "type": "function"
    },
    {
      "inputs": [
        {
          "internalType": "address[]",
          "name": "_candidateContracts",
          "type": "address[]"
        },
        {
          "internalType": "address",
          "name": "_committee",
          "type": "address"
        }
      ],
      "name": "setCandidatesCommittee",
      "outputs": [],
      "stateMutability": "nonpayable",
      "type": "function"
    },
    {
      "inputs": [
        {
          "internalType": "address[]",
          "name": "_candidateContracts",
          "type": "address[]"
        },
        {
          "internalType": "address",
          "name": "_seigManager",
          "type": "address"
        }
      ],
      "name": "setCandidatesSeigManager",
      "outputs": [],
      "stateMutability": "nonpayable",
      "type": "function"
    },
    {
      "inputs": [
        {
          "internalType": "uint256",
          "name": "_cooltime",
          "type": "uint256"
        }
      ],
      "name": "setCooldownTime",
      "outputs": [],
      "stateMutability": "nonpayable",
      "type": "function"
    },
    {
      "inputs": [
        {
          "internalType": "address",
          "name": "_daoVault",
          "type": "address"
        }
      ],
      "name": "setDaoVault",
      "outputs": [],
      "stateMutability": "nonpayable",
      "type": "function"
    },
    {
      "inputs": [
        {
          "internalType": "address",
          "name": "_layer2Manager",
          "type": "address"
        }
      ],
      "name": "setLayer2Manager",
      "outputs": [],
      "stateMutability": "nonpayable",
      "type": "function"
    },
    {
      "inputs": [
        {
          "internalType": "address",
          "name": "_layer2Registry",
          "type": "address"
        }
      ],
      "name": "setLayer2Registry",
      "outputs": [],
      "stateMutability": "nonpayable",
      "type": "function"
    },
    {
      "inputs": [
        {
          "internalType": "uint256",
          "name": "_quorum",
          "type": "uint256"
        }
      ],
      "name": "setQuorum",
      "outputs": [],
      "stateMutability": "nonpayable",
      "type": "function"
    },
    {
      "inputs": [
        {
          "internalType": "address",
          "name": "_seigManager",
          "type": "address"
        }
      ],
      "name": "setSeigManager",
      "outputs": [],
      "stateMutability": "nonpayable",
      "type": "function"
    },
    {
      "inputs": [
        {
          "internalType": "address",
          "name": "_ton",
          "type": "address"
        }
      ],
      "name": "setTon",
      "outputs": [],
      "stateMutability": "nonpayable",
      "type": "function"
    },
    {
      "inputs": [
        {
          "internalType": "address",
          "name": "_wton",
          "type": "address"
        }
      ],
      "name": "setWton",
      "outputs": [],
      "stateMutability": "nonpayable",
      "type": "function"
    },
    {
      "inputs": [],
      "name": "ton",
      "outputs": [
        {
          "internalType": "address",
          "name": "",
          "type": "address"
        }
      ],
      "stateMutability": "view",
      "type": "function"
    },
    {
      "inputs": [],
      "name": "wton",
      "outputs": [
        {
          "internalType": "address",
          "name": "",
          "type": "address"
        }
      ],
      "stateMutability": "view",
      "type": "function"
    }
  ],
  "bytecode": "0x60808060405234610016576122e1908161001c8239f35b600080fdfe608060408181526004918236101561001657600080fd5b600092833560e01c91826303e3c9ac14611db557508163047f52f214611ce957816316b5d5bd14611cc05781631703a01814611ca1578163248a9ca314611c7657816327fd92fd14611c4d5781632af60ff414611b845781632e011c1e14611abd5781632f2ff15d146119bd5781633477ee2e1461196657816336568abe146118d4578163401e23e61461180857816349c39f141461173c5781634b799db1146116715781634d288fec146115a757816350d2a2761461156357816350e8f17d14611290578163550d01a3146112525781635903bd6c14611229578382635c43030f14611168575081635daf08ca1461113d5781635ebe7622146110bd57816363a8fd8914611096578163651d08cd1461105b578382636915429514610f4b575081636da8f3ce14610dc65781636fb7f55814610d9d5781636ff7320114610cf957816374d58f4814610bcd5781637536281914610ba45781637657f20a14610ad85781637f33163614610ab9578163884033e7146108dc5781638d62d949146108b35781639010d07c1461081657816391d14854146107c0578163a217fddf146107a5578163a230c5241461075d578163aef2c58514610691578163b222e0c214610659578163b319c6b71461063a578163b40525eb146105fc578163b5dd1158146105d3578163b911135f146105a0578163baa12536146104ca578163c1ba4e59146103d0578163ca15c873146103a8578163cc48b94714610380578163cf2a239c14610354578163d547741f1461029a575063f9f92be41461025a57600080fd5b346102965760203660031901126102965760209160ff9082906001600160a01b03610283611dd1565b1681526016855220541690519015158152f35b5080fd5b8391503461029657826003193601126102965780356102b7611dec565b91818452600c6020526002858520015484526102e53386862060019160005201602052604060002054151590565b156102f85750906102f591611f63565b80f35b608490602086519162461bcd60e51b8352820152603060248201527f416363657373436f6e74726f6c3a2073656e646572206d75737420626520616e60448201526f2061646d696e20746f207265766f6b6560801b6064820152fd5b90503461037c578260031936011261037c575490516001600160a01b03909116815260209150f35b8280fd5b505034610296578160031936011261029657905490516001600160a01b039091168152602090f35b90503461037c57602036600319011261037c576020928291358152600c845220549051908152f35b9190503461037c57602036600319011261037c578051632474521560e21b8152828101849052336024820152602081604481305afa9081156104c0579061041e918591610492575b506120e1565b6002546001600160a01b03161561043a57506102f590356121f6565b906020608492519162461bcd60e51b8352820152602c60248201527f53746f726167655374617465436f6d6d69747465653a204167656e64614d616e60448201526b61676572206973207a65726f60a01b6064820152fd5b6104b3915060203d81116104b9575b6104ab8183611f25565b8101906120c9565b38610418565b503d6104a1565b82513d86823e3d90fd5b9190503461037c57602036600319011261037c576104e6611dd1565b8151632474521560e21b8152838101859052336024820152602081604481305afa908115610596579061051f91869161049257506120e1565b6001600160a01b039081169261053684151561212d565b836011549283161461057f57506001600160a01b0319168217601155519081527f96278b2cc761ad66ad8593612b56ab9908140b261586a7ab6be0a5ead07bb60190602090a180f35b60249060028451916320084fe560e21b8352820152fd5b83513d87823e3d90fd5b90503461037c57602036600319011261037c5735825260136020908152918190205490516001600160a01b039091168152f35b50503461029657816003193601126102965760035490516001600160a01b039091168152602090f35b5050346102965760203660031901126102965760209160ff9082906001600160a01b03610627611dd1565b1681526017855220541690519015158152f35b5050346102965781600319360112610296576020906019549051908152f35b5050346102965760203660031901126102965760209181906001600160a01b03610681611dd1565b1681526018845220549051908152f35b9190503461037c57602036600319011261037c576106ad611dd1565b8151632474521560e21b8152838101859052336024820152602081604481305afa90811561059657906106e691869161049257506120e1565b6001600160a01b03908116926106fd84151561212d565b836010549283161461074657506001600160a01b0319168217601055519081527f454047a9554c297596a41fe370faae0ab126775cbf2bfa69d7e75c73db5b9b4f90602090a180f35b60249060098451916320084fe560e21b8352820152fd5b505034610296576020366003190112610296576020916001600160801b039060029083906001600160a01b03610791611dd1565b168152600986522001541615159051908152f35b50503461029657816003193601126102965751908152602090f35b90503461037c578160031936011261037c5761080d90826020946107e2611dec565b92358152600c8652206001600160a01b03909116600090815260019091016020526040902054151590565b90519015158152f35b83915034610296578260031936011261029657826024359282358152600c602052209082825411156108655760208461084f8585611e4f565b905491519160018060a01b039160031b1c168152f35b608490602085519162461bcd60e51b8352820152602260248201527f456e756d657261626c655365743a20696e646578206f7574206f6620626f756e604482015261647360f01b6064820152fd5b50503461029657816003193601126102965760105490516001600160a01b039091168152602090f35b839150346102965782600319360112610296576108f7611dd1565b926024359367ffffffffffffffff8511610ab55736602386011215610ab557848301359061092482611f47565b9561093184519788611f25565b828752602092838801913660248383010111610ab15781889260248793018537890101528351632474521560e21b81528581018790523360248201528381604481305afa908115610aa7579061098d918891610a8a57506120e1565b6001600160a01b038216946109a386151561212d565b875115610a58575085918291828951925af1903d15610a53573d6109c681611f47565b906109d385519283611f25565b815285823d92013e5b8251938452606081850152855195866060860152855b878110610a3f57867f02b1297ad3bbc7749ec8fc5a0b9e4ca43fbd05035b46a567deee05638d0083cf876080818c8a8a87858486010152151590830152601f80199101168101030190a180f35b8181018301518682016080015282016109f2565b6109dc565b845162461bcd60e51b8152908101849052600c60248201526b696e76616c6964206461746160a01b6044820152606490fd5b610aa19150853d87116104b9576104ab8183611f25565b89610418565b85513d89823e3d90fd5b8780fd5b8380fd5b505034610296578160031936011261029657602090600b549051908152f35b9190503461037c57602036600319011261037c57610af4611dd1565b8151632474521560e21b8152838101859052336024820152602081604481305afa9081156105965790610b2d91869161049257506120e1565b6001600160a01b0390811692610b4484151561212d565b8360055492831614610b8d57506001600160a01b0319168217600555519081527f7a6f499dde5824be160efe916ff4296ff6593334677cb7ffc13cbf3e961d80ab90602090a180f35b60249060038451916320084fe560e21b8352820152fd5b50503461029657816003193601126102965760125490516001600160a01b039091168152602090f35b838334610296576020366003190112610296578051632474521560e21b8152838101839052336024820152602081604481305afa908115610ced5790610c19918491610ccf57506120e1565b6005546001600160a01b0316928315610c79578383943b15610c74576024849284519586938492630e9ab1e960e31b84528035908401525af1908115610c6b5750610c62575080f35b6102f590611f11565b513d84823e3d90fd5b505050fd5b6020608492519162461bcd60e51b8352820152602b60248201527f53746f726167655374617465436f6d6d69747465653a20696e76616c6964205360448201526a6569674d616e616765726560a81b6064820152fd5b610ce7915060203d81116104b9576104ab8183611f25565b85610418565b505051903d90823e3d90fd5b90503461037c57602036600319011261037c578151632474521560e21b8152808201849052336024820152903590602081604481305afa908115610d905792610d6d602093927ff1f62fb53f063eeed657f6ed8c238c2e61ef9547b206dac91c836599fb8f7a33958791610d7957506120e1565b8160195551908152a180f35b6104b39150853d81116104b9576104ab8183611f25565b50505051903d90823e3d90fd5b50503461029657816003193601126102965760055490516001600160a01b039091168152602090f35b828434610f4857610dd636611e67565b91835191632474521560e21b835281868401526024923384820152602081604481305afa908115610f3e5790610e12918491610f2057506120e1565b60089485549082821015610eb9575081865560079485545b8754811015610e88578654600160401b811015610e765790610e6c610e57836001610e7195018b55611e02565b81549060018060a01b039060031b1b19169055565b6121c3565b610e2a565b634e487b7160e01b865260418a528686fd5b50610e92906121f6565b7f8c0366d1e3a335a312d012257ee764723c38ec2dd5e74cbfad372513521f97718380a380f35b5162461bcd60e51b8152602081890152603c818601527f44414f436f6d6d69747465653a20596f75206861766520746f2063616c6c206460448201527f656372656173654d61784d656d62657220746f206465637265617365000000006064820152608490fd5b610f38915060203d81116104b9576104ab8183611f25565b88610418565b86513d85823e3d90fd5b80fd5b8091843461105757610f5c36611e7d565b83959291955190632474521560e21b825283868301526024913383820152602081604481305afa90811561104d5790610f9b91869161102f57506120e1565b6001600160a01b0390811692610fb284151561212d565b845b888110610fbf578580f35b82610fd3610fce838c866121d2565b6121e2565b16803b1561102b578686868b838c519586948593633b2bf90560e11b85528401525af18015611021579061100d9291611012575b506121c3565b610fb4565b61101b90611f11565b8b611007565b88513d89823e3d90fd5b8680fd5b611047915060203d81116104b9576104ab8183611f25565b8a610418565b86513d87823e3d90fd5b5050fd5b505034610296576020366003190112610296576020916001600160a01b0390829082611085611dd1565b168152600985522054169051908152f35b50503461029657816003193601126102965760209060ff600e5460a01c1690519015158152f35b90503461037c57602036600319011261037c578151632474521560e21b8152808201849052336024820152903590602081604481305afa908115610d905792611131602093927f42bd846b3ff7895ea031753b0d8256b4816edaea44f7d8d9db60ea83b8ee5e4b958791610d7957506120e1565b81600b5551908152a180f35b90503461037c57602036600319011261037c573591600754831015610f48575061084f602092611e02565b809184346110575761117936611e7d565b83959291955190632474521560e21b825283868301526024913383820152602081604481305afa90811561104d57906111b891869161102f57506120e1565b6001600160a01b03908116926111cf84151561212d565b845b8881106111dc578580f35b826111eb610fce838c866121d2565b16803b1561102b578686868b838c519586948593635eed720760e11b85528401525af180156110215790611224929161101257506121c3565b6111d1565b50503461029657816003193601126102965760015490516001600160a01b039091168152602090f35b5050346102965760203660031901126102965760209160ff9082906001600160a01b0361127d611dd1565b1681526014855220541690519015158152f35b90503461037c576112a036611e67565b92908151632474521560e21b8152858482015260249433868301526020918281604481305afa90811561155957906112de91899161154257506120e1565b6008548310156114f5576112f183611e02565b90546001600160a01b0360039290921b1c811680895260098452858920600754600019808201989395939490929189116114e357878c86836113328d611e02565b90549060031b1c169b83036114b1575b5050505084611418575b506007548015611406578101611364610e5782611e02565b6007556008549081019081116113f4577f663b98adf1afa777e36528b3293a057803f87ed00d2d2518dccfe5d7a6e99ccf949392916113a5916008556121f6565b51908152a36008549160018301918284116113e35750507f8c0366d1e3a335a312d012257ee764723c38ec2dd5e74cbfad372513521f97718380a380f35b634e487b7160e01b85526011905283fd5b634e487b7160e01b8a5260118852888afd5b634e487b7160e01b8b5260318952898bfd5b8a6001820155600360028201918254906001600160801b0392839101541680838316116000146114995750506114656114859161145c845491808316904216612179565b9060801c6121a8565b82546001600160801b031660809190911b6001600160801b031916178255565b80546001600160801b03191690553861134c565b9061145c611465926114ac944216612179565b611485565b818c6001935260098b522001556114c788611e02565b819291549060031b918b831b921b191617905538878c86611342565b634e487b7160e01b8c5260118a528a8cfd5b835162461bcd60e51b81528086018390526022818801527f44414f436f6d6d69747465653a20696e76616c6964206d656d62657220696e646044820152610caf60f31b6064820152608490fd5b6104b39150843d86116104b9576104ab8183611f25565b85513d8a823e3d90fd5b90503461037c57602036600319011261037c573563ffffffff60e01b811680910361037c57825260156020908152918190205490516001600160a01b039091168152f35b9190503461037c57602036600319011261037c576115c3611dd1565b8151632474521560e21b8152838101859052336024820152602081604481305afa90811561059657906115fc91869161049257506120e1565b6001600160a01b039081169261161384151561212d565b8385549283161461165a57506001600160a01b03191682178355519081527fe6f34ea240683735bc79b7ef2ec75436306b3902311304beee8dcdbb09dfe34490602090a180f35b60249060088451916320084fe560e21b8352820152fd5b9190503461037c57602036600319011261037c5761168d611dd1565b8151632474521560e21b8152838101859052336024820152602081604481305afa90811561059657906116c691869161049257506120e1565b6001600160a01b03908116926116dd84151561212d565b836001549283161461172657506001600160a01b0319168217600155519081527fb329e64befdec2a048fc9bc0ec49385e5f414f5047e9fe44d771240d47e307a590602090a180f35b6024908351906320084fe560e21b825280820152fd5b9190503461037c57602036600319011261037c57611758611dd1565b8151632474521560e21b8152838101859052336024820152602081604481305afa908115610596579061179191869161049257506120e1565b6001600160a01b03908116926117a884151561212d565b83600254928316146117f157506001600160a01b0319168217600255519081527f27f5462afb6658b3fcbd16773ef05cda0e37d6cc0544d0cc40c485dd4701c76290602090a180f35b60249060068451916320084fe560e21b8352820152fd5b9190503461037c57602036600319011261037c57611824611dd1565b8151632474521560e21b8152838101859052336024820152602081604481305afa908115610596579061185d91869161049257506120e1565b6001600160a01b039081169261187484151561212d565b83601254928316146118bd57506001600160a01b0319168217601255519081527f900b6f828c12b61d52bbe039de437d974727cac7709895641fb74ec7aeed358b90602090a180f35b60249060018451916320084fe560e21b8352820152fd5b839150346102965782600319360112610296576118ef611dec565b90336001600160a01b0383160361190b57906102f59135611f63565b608490602085519162461bcd60e51b8352820152602f60248201527f416363657373436f6e74726f6c3a2063616e206f6e6c792072656e6f756e636560448201526e103937b632b9903337b91039b2b63360891b6064820152fd5b90503461037c57602036600319011261037c573560065481101561037c5760066020935260018060a01b03907ff652222313e28459528d920b65115c16c04f3efc82aaedc97be59f3f377c0d3f0154169051908152f35b90503461037c578160031936011261037c578035916119da611dec565b91838552600c602052600282862001548552611a083383872060019160005201602052604060002054151590565b15611a635750828452600c60205283206001600160a01b0390911690611a2f908290611fb9565b611a37578280f35b33917f2f8788117e7eff1d82e926ec794901d17c78024a50270940304540a733656f0d8480a438808280f35b6020608492519162461bcd60e51b8352820152602f60248201527f416363657373436f6e74726f6c3a2073656e646572206d75737420626520616e60448201526e0818591b5a5b881d1bc819dc985b9d608a1b6064820152fd5b50503461029657602036600319011261029657608060a092600383611ae0611dd1565b9280858351611aee81611edf565b82815282602082015282858201528260608201520152600180881b038094168152600960205220845192611b2184611edf565b8154169485845260018201549160208501928352600281015492828601906001600160801b03978880978195828916865260608b0198841c8952015416970196875283519889525160208901525116908601525116606084015251166080820152f35b9190503461037c57602036600319011261037c57611ba0611dd1565b918151632474521560e21b81528482820152336024820152602081604481305afa9081156105965790611bd991869161049257506120e1565b6001600160a01b0392831692611bf084151561212d565b83825491821614611c36576001600160a01b03191683179055519081527f1f79ac12605d5c9bd032a10cb0f2548afbdf7c9d6223e3751ff3dd2776b3e00190602090a180f35b50600560249251916320084fe560e21b8352820152fd5b50503461029657816003193601126102965760025490516001600160a01b039091168152602090f35b90503461037c57602036600319011261037c5781602093600292358152600c85522001549051908152f35b505034610296578160031936011261029657602090600a549051908152f35b50503461029657816003193601126102965760115490516001600160a01b039091168152602090f35b9190503461037c57602036600319011261037c57611d05611dd1565b8151632474521560e21b8152838101859052336024820152602081604481305afa9081156105965790611d3e91869161049257506120e1565b6001600160a01b0390811692611d5584151561212d565b8360035492831614611d9e57506001600160a01b0319168217600355519081527faf69fd520e0a4fae78eab6aeeec940a46e88ca41f2769dfe3b4d32b3b8fa49bc90602090a180f35b60249060078451916320084fe560e21b8352820152fd5b8490346102965781600319360112610296576020906008548152f35b600435906001600160a01b0382168203611de757565b600080fd5b602435906001600160a01b0382168203611de757565b600754811015611e395760076000527fa66cc928b5edb82af9bd49922954155ab7b0942694bea4ce44661d9a8736c6880190600090565b634e487b7160e01b600052603260045260246000fd5b8054821015611e395760005260206000200190600090565b6040906003190112611de7576004359060243590565b906040600319830112611de75760043567ffffffffffffffff92838211611de75780602383011215611de7578160040135938411611de75760248460051b83010111611de7576024908101929190356001600160a01b0381168103611de75790565b60a0810190811067ffffffffffffffff821117611efb57604052565b634e487b7160e01b600052604160045260246000fd5b67ffffffffffffffff8111611efb57604052565b90601f8019910116810190811067ffffffffffffffff821117611efb57604052565b67ffffffffffffffff8111611efb57601f01601f191660200190565b6000818152600c6020526040902090916001600160a01b031690611f88908290612027565b611f90575050565b33917ff6391f5c32d9c69d2a47ea670b442974b53935d1edc7fd64eb21e047a839171b600080a4565b600082815260018201602052604090205461202057805490600160401b821015611efb5782612009611ff2846001809601855584611e4f565b819391549060031b91821b91600019901b19161790565b905580549260005201602052604060002055600190565b5050600090565b906001820190600092818452826020526040842054908115156000146120c257600019916120588383540183611e4f565b90549060031b1c8061206f611ff286850186611e4f565b90558652846020526040862055805480156120ae578201916120918383611e4f565b909182549160031b1b191690555582526020526040812055600190565b634e487b7160e01b86526031600452602486fd5b5050505090565b90816020910312611de757518015158103611de75790565b156120e857565b60405162461bcd60e51b815260206004820152601760248201527f44414f436f6d6d69747465653a206e6f742061646d696e0000000000000000006044820152606490fd5b1561213457565b60405162461bcd60e51b815260206004820152601a60248201527f44414f436f6d6d69747465653a207a65726f20616464726573730000000000006044820152606490fd5b6001600160801b03918216908216039190821161219257565b634e487b7160e01b600052601160045260246000fd5b9190916001600160801b038080941691160191821161219257565b60001981146121925760010190565b9190811015611e395760051b0190565b356001600160a01b0381168103611de75790565b6008548060011c82111561228f57811161223b576020817f027863d12a407097e086a48e36475bfc859d0b200b7e6f65b5fd3b218e46632e92600a55604051908152a1565b60405162461bcd60e51b815260206004820152602660248201527f44414f436f6d6d69747465653a2071756f72756d20657863656564206d61782060448201526536b2b6b132b960d11b6064820152608490fd5b60405162461bcd60e51b815260206004820152601c60248201527f44414f436f6d6d69747465653a20696e76616c69642071756f72756d000000006044820152606490fdfea164736f6c6343000813000a",
  "linkReferences": {},
  "deployedLinkReferences": {}
}