{
  "_format": "hh-sol-artifact-1",
  "contractName": "DAOCommittee_V2",
  "sourceName": "contracts/dao/DAOCommittee_V2.sol",
  "abi": [
    {
      "inputs": [],
      "name": "ClaimTONError",
      "type": "error"
    },
    {
      "inputs": [],
      "name": "ClaimWTONError",
      "type": "error"
    },
    {
      "inputs": [
        {
          "internalType": "uint256",
          "name": "x",
          "type": "uint256"
        }
      ],
      "name": "CreateCandiateError",
      "type": "error"
    },
    {
      "inputs": [],
      "name": "PermissionError",
      "type": "error"
    },
    {
      "anonymous": false,
      "inputs": [
        {
          "indexed": true,
          "internalType": "address",
          "name": "from",
          "type": "address"
        },
        {
          "indexed": true,
          "internalType": "uint256",
          "name": "id",
          "type": "uint256"
        },
        {
          "indexed": false,
          "internalType": "address[]",
          "name": "targets",
          "type": "address[]"
        },
        {
          "indexed": false,
          "internalType": "uint128",
          "name": "noticePeriodSeconds",
          "type": "uint128"
        },
        {
          "indexed": false,
          "internalType": "uint128",
          "name": "votingPeriodSeconds",
          "type": "uint128"
        },
        {
          "indexed": false,
          "internalType": "bool",
          "name": "atomicExecute",
          "type": "bool"
        }
      ],
      "name": "AgendaCreated",
      "type": "event"
    },
    {
      "anonymous": false,
      "inputs": [
        {
          "indexed": true,
          "internalType": "uint256",
          "name": "id",
          "type": "uint256"
        },
        {
          "indexed": false,
          "internalType": "address[]",
          "name": "target",
          "type": "address[]"
        }
      ],
      "name": "AgendaExecuted",
      "type": "event"
    },
    {
      "anonymous": false,
      "inputs": [
        {
          "indexed": true,
          "internalType": "address",
          "name": "from",
          "type": "address"
        },
        {
          "indexed": true,
          "internalType": "uint256",
          "name": "id",
          "type": "uint256"
        },
        {
          "indexed": false,
          "internalType": "uint256",
          "name": "voting",
          "type": "uint256"
        },
        {
          "indexed": false,
          "internalType": "string",
          "name": "comment",
          "type": "string"
        }
      ],
      "name": "AgendaVoteCasted",
      "type": "event"
    },
    {
      "anonymous": false,
      "inputs": [
        {
          "indexed": true,
          "internalType": "address",
          "name": "candidate",
          "type": "address"
        },
        {
          "indexed": true,
          "internalType": "address",
          "name": "candidateContract",
          "type": "address"
        },
        {
          "indexed": false,
          "internalType": "string",
          "name": "memo",
          "type": "string"
        }
      ],
      "name": "CandidateContractCreated",
      "type": "event"
    },
    {
      "anonymous": false,
      "inputs": [
        {
          "indexed": true,
          "internalType": "uint256",
          "name": "slotIndex",
          "type": "uint256"
        },
        {
          "indexed": false,
          "internalType": "address",
          "name": "prevMember",
          "type": "address"
        },
        {
          "indexed": true,
          "internalType": "address",
          "name": "newMember",
          "type": "address"
        }
      ],
      "name": "ChangedMember",
      "type": "event"
    },
    {
      "anonymous": false,
      "inputs": [
        {
          "indexed": false,
          "internalType": "address",
          "name": "candidateContract",
          "type": "address"
        },
        {
          "indexed": false,
          "internalType": "string",
          "name": "newMemo",
          "type": "string"
        }
      ],
      "name": "ChangedMemo",
      "type": "event"
    },
    {
      "anonymous": false,
      "inputs": [
        {
          "indexed": true,
          "internalType": "address",
          "name": "candidate",
          "type": "address"
        },
        {
          "indexed": false,
          "internalType": "address",
          "name": "receiver",
          "type": "address"
        },
        {
          "indexed": false,
          "internalType": "uint256",
          "name": "amount",
          "type": "uint256"
        }
      ],
      "name": "ClaimedActivityReward",
      "type": "event"
    },
    {
      "anonymous": false,
      "inputs": [
        {
          "indexed": true,
          "internalType": "address",
          "name": "candidate",
          "type": "address"
        },
        {
          "indexed": true,
          "internalType": "address",
          "name": "candidateContract",
          "type": "address"
        },
        {
          "indexed": false,
          "internalType": "string",
          "name": "memo",
          "type": "string"
        }
      ],
      "name": "Layer2Registered",
      "type": "event"
    },
    {
      "anonymous": false,
      "inputs": [
        {
          "indexed": true,
          "internalType": "address",
          "name": "member",
          "type": "address"
        },
        {
          "indexed": false,
          "internalType": "uint256",
          "name": "timestamp",
          "type": "uint256"
        }
      ],
      "name": "MemberBlacklisted",
      "type": "event"
    },
    {
      "anonymous": false,
      "inputs": [
        {
          "indexed": true,
          "internalType": "bytes32",
          "name": "role",
          "type": "bytes32"
        },
        {
          "indexed": true,
          "internalType": "bytes32",
          "name": "previousAdminRole",
          "type": "bytes32"
        },
        {
          "indexed": true,
          "internalType": "bytes32",
          "name": "newAdminRole",
          "type": "bytes32"
        }
      ],
      "name": "RoleAdminChanged",
      "type": "event"
    },
    {
      "anonymous": false,
      "inputs": [
        {
          "indexed": true,
          "internalType": "bytes32",
          "name": "role",
          "type": "bytes32"
        },
        {
          "indexed": true,
          "internalType": "address",
          "name": "account",
          "type": "address"
        },
        {
          "indexed": true,
          "internalType": "address",
          "name": "sender",
          "type": "address"
        }
      ],
      "name": "RoleGranted",
      "type": "event"
    },
    {
      "anonymous": false,
      "inputs": [
        {
          "indexed": true,
          "internalType": "bytes32",
          "name": "role",
          "type": "bytes32"
        },
        {
          "indexed": true,
          "internalType": "address",
          "name": "account",
          "type": "address"
        },
        {
          "indexed": true,
          "internalType": "address",
          "name": "sender",
          "type": "address"
        }
      ],
      "name": "RoleRevoked",
      "type": "event"
    },
    {
      "inputs": [],
      "name": "DEFAULT_ADMIN_ROLE",
      "outputs": [
        {
          "internalType": "bytes32",
          "name": "",
          "type": "bytes32"
        }
      ],
      "stateMutability": "view",
      "type": "function"
    },
    {
      "inputs": [],
      "name": "activityRewardPerSecond",
      "outputs": [
        {
          "internalType": "uint256",
          "name": "",
          "type": "uint256"
        }
      ],
      "stateMutability": "view",
      "type": "function"
    },
    {
      "inputs": [],
      "name": "agendaManager",
      "outputs": [
        {
          "internalType": "contract IDAOAgendaManager",
          "name": "",
          "type": "address"
        }
      ],
      "stateMutability": "view",
      "type": "function"
    },
    {
      "inputs": [
        {
          "internalType": "uint256",
          "name": "",
          "type": "uint256"
        }
      ],
      "name": "agendaMemo",
      "outputs": [
        {
          "internalType": "string",
          "name": "",
          "type": "string"
        }
      ],
      "stateMutability": "view",
      "type": "function"
    },
    {
      "inputs": [
        {
          "internalType": "address",
          "name": "",
          "type": "address"
        }
      ],
      "name": "aliveImplementation",
      "outputs": [
        {
          "internalType": "bool",
          "name": "",
          "type": "bool"
        }
      ],
      "stateMutability": "view",
      "type": "function"
    },
    {
      "inputs": [
        {
          "internalType": "address",
          "name": "_candidate",
          "type": "address"
        },
        {
          "internalType": "address",
          "name": "_account",
          "type": "address"
        }
      ],
      "name": "balanceOfOnCandidate",
      "outputs": [
        {
          "internalType": "uint256",
          "name": "amount",
          "type": "uint256"
        }
      ],
      "stateMutability": "view",
      "type": "function"
    },
    {
      "inputs": [
        {
          "internalType": "address",
          "name": "_candidateContract",
          "type": "address"
        },
        {
          "internalType": "address",
          "name": "_account",
          "type": "address"
        }
      ],
      "name": "balanceOfOnCandidateContract",
      "outputs": [
        {
          "internalType": "uint256",
          "name": "amount",
          "type": "uint256"
        }
      ],
      "stateMutability": "view",
      "type": "function"
    },
    {
      "inputs": [
        {
          "internalType": "address",
          "name": "",
          "type": "address"
        }
      ],
      "name": "blacklist",
      "outputs": [
        {
          "internalType": "bool",
          "name": "",
          "type": "bool"
        }
      ],
      "stateMutability": "view",
      "type": "function"
    },
    {
      "inputs": [],
      "name": "candidateAddOnFactory",
      "outputs": [
        {
          "internalType": "address",
          "name": "",
          "type": "address"
        }
      ],
      "stateMutability": "view",
      "type": "function"
    },
    {
      "inputs": [
        {
          "internalType": "address",
          "name": "_candidate",
          "type": "address"
        }
      ],
      "name": "candidateContract",
      "outputs": [
        {
          "internalType": "address",
          "name": "",
          "type": "address"
        }
      ],
      "stateMutability": "view",
      "type": "function"
    },
    {
      "inputs": [],
      "name": "candidateFactory",
      "outputs": [
        {
          "internalType": "contract ICandidateFactory",
          "name": "",
          "type": "address"
        }
      ],
      "stateMutability": "view",
      "type": "function"
    },
    {
      "inputs": [
        {
          "internalType": "address",
          "name": "_candidate",
          "type": "address"
        }
      ],
      "name": "candidateInfos",
      "outputs": [
        {
          "components": [
            {
              "internalType": "address",
              "name": "candidateContract",
              "type": "address"
            },
            {
              "internalType": "uint256",
              "name": "indexMembers",
              "type": "uint256"
            },
            {
              "internalType": "uint128",
              "name": "memberJoinedTime",
              "type": "uint128"
            },
            {
              "internalType": "uint128",
              "name": "rewardPeriod",
              "type": "uint128"
            },
            {
              "internalType": "uint128",
              "name": "claimedTimestamp",
              "type": "uint128"
            }
          ],
          "internalType": "struct StorageStateCommittee.CandidateInfo",
          "name": "",
          "type": "tuple"
        }
      ],
      "stateMutability": "view",
      "type": "function"
    },
    {
      "inputs": [
        {
          "internalType": "uint256",
          "name": "",
          "type": "uint256"
        }
      ],
      "name": "candidates",
      "outputs": [
        {
          "internalType": "address",
          "name": "",
          "type": "address"
        }
      ],
      "stateMutability": "view",
      "type": "function"
    },
    {
      "inputs": [],
      "name": "candidatesLength",
      "outputs": [
        {
          "internalType": "uint256",
          "name": "",
          "type": "uint256"
        }
      ],
      "stateMutability": "view",
      "type": "function"
    },
    {
      "inputs": [
        {
          "internalType": "uint256",
          "name": "_agendaID",
          "type": "uint256"
        },
        {
          "internalType": "uint256",
          "name": "_vote",
          "type": "uint256"
        },
        {
          "internalType": "string",
          "name": "_comment",
          "type": "string"
        }
      ],
      "name": "castVote",
      "outputs": [],
      "stateMutability": "nonpayable",
      "type": "function"
    },
    {
      "inputs": [
        {
          "internalType": "uint256",
          "name": "_memberIndex",
          "type": "uint256"
        }
      ],
      "name": "changeMember",
      "outputs": [
        {
          "internalType": "bool",
          "name": "",
          "type": "bool"
        }
      ],
      "stateMutability": "nonpayable",
      "type": "function"
    },
    {
      "inputs": [
        {
          "internalType": "address",
          "name": "_receiver",
          "type": "address"
        }
      ],
      "name": "claimActivityReward",
      "outputs": [],
      "stateMutability": "nonpayable",
      "type": "function"
    },
    {
      "inputs": [
        {
          "internalType": "address",
          "name": "",
          "type": "address"
        }
      ],
      "name": "cooldown",
      "outputs": [
        {
          "internalType": "uint256",
          "name": "",
          "type": "uint256"
        }
      ],
      "stateMutability": "view",
      "type": "function"
    },
    {
      "inputs": [],
      "name": "cooldownTime",
      "outputs": [
        {
          "internalType": "uint256",
          "name": "",
          "type": "uint256"
        }
      ],
      "stateMutability": "view",
      "type": "function"
    },
    {
      "inputs": [
        {
          "internalType": "string",
          "name": "_memo",
          "type": "string"
        }
      ],
      "name": "createCandidate",
      "outputs": [],
      "stateMutability": "nonpayable",
      "type": "function"
    },
    {
      "inputs": [
        {
          "internalType": "string",
          "name": "_memo",
          "type": "string"
        },
        {
          "internalType": "address",
          "name": "_operatorManagerAddress",
          "type": "address"
        }
      ],
      "name": "createCandidateAddOn",
      "outputs": [
        {
          "internalType": "address",
          "name": "",
          "type": "address"
        }
      ],
      "stateMutability": "nonpayable",
      "type": "function"
    },
    {
      "inputs": [
        {
          "internalType": "string",
          "name": "_memo",
          "type": "string"
        },
        {
          "internalType": "address",
          "name": "_operatorAddress",
          "type": "address"
        }
      ],
      "name": "createCandidateOwner",
      "outputs": [],
      "stateMutability": "nonpayable",
      "type": "function"
    },
    {
      "inputs": [
        {
          "internalType": "uint256",
          "name": "_agendaID",
          "type": "uint256"
        }
      ],
      "name": "currentAgendaStatus",
      "outputs": [
        {
          "internalType": "enum DAOCommittee_V2.CurrentResult",
          "name": "currentResult",
          "type": "uint8"
        },
        {
          "internalType": "enum DAOCommittee_V2.CurrentStatus",
          "name": "currentStatus",
          "type": "uint8"
        }
      ],
      "stateMutability": "view",
      "type": "function"
    },
    {
      "inputs": [],
      "name": "daoVault",
      "outputs": [
        {
          "internalType": "contract IDAOVault",
          "name": "",
          "type": "address"
        }
      ],
      "stateMutability": "view",
      "type": "function"
    },
    {
      "inputs": [
        {
          "internalType": "uint256",
          "name": "_agendaID",
          "type": "uint256"
        }
      ],
      "name": "executeAgenda",
      "outputs": [],
      "stateMutability": "nonpayable",
      "type": "function"
    },
    {
      "inputs": [
        {
          "internalType": "address",
          "name": "_candidate",
          "type": "address"
        }
      ],
      "name": "getClaimableActivityReward",
      "outputs": [
        {
          "internalType": "uint256",
          "name": "",
          "type": "uint256"
        }
      ],
      "stateMutability": "view",
      "type": "function"
    },
    {
      "inputs": [
        {
          "internalType": "address",
          "name": "_oldCandidate",
          "type": "address"
        }
      ],
      "name": "getOldCandidateInfos",
      "outputs": [
        {
          "components": [
            {
              "internalType": "address",
              "name": "candidateContract",
              "type": "address"
            },
            {
              "internalType": "address",
              "name": "newCandidate",
              "type": "address"
            },
            {
              "internalType": "uint256",
              "name": "indexMembers",
              "type": "uint256"
            },
            {
              "internalType": "uint128",
              "name": "memberJoinedTime",
              "type": "uint128"
            },
            {
              "internalType": "uint128",
              "name": "rewardPeriod",
              "type": "uint128"
            },
            {
              "internalType": "uint128",
              "name": "claimedTimestamp",
              "type": "uint128"
            }
          ],
          "internalType": "struct StorageStateCommitteeV2.CandidateInfo2",
          "name": "",
          "type": "tuple"
        }
      ],
      "stateMutability": "view",
      "type": "function"
    },
    {
      "inputs": [
        {
          "internalType": "bytes32",
          "name": "role",
          "type": "bytes32"
        }
      ],
      "name": "getRoleAdmin",
      "outputs": [
        {
          "internalType": "bytes32",
          "name": "",
          "type": "bytes32"
        }
      ],
      "stateMutability": "view",
      "type": "function"
    },
    {
      "inputs": [
        {
          "internalType": "bytes32",
          "name": "role",
          "type": "bytes32"
        },
        {
          "internalType": "uint256",
          "name": "index",
          "type": "uint256"
        }
      ],
      "name": "getRoleMember",
      "outputs": [
        {
          "internalType": "address",
          "name": "",
          "type": "address"
        }
      ],
      "stateMutability": "view",
      "type": "function"
    },
    {
      "inputs": [
        {
          "internalType": "bytes32",
          "name": "role",
          "type": "bytes32"
        }
      ],
      "name": "getRoleMemberCount",
      "outputs": [
        {
          "internalType": "uint256",
          "name": "",
          "type": "uint256"
        }
      ],
      "stateMutability": "view",
      "type": "function"
    },
    {
      "inputs": [
        {
          "internalType": "bytes32",
          "name": "role",
          "type": "bytes32"
        },
        {
          "internalType": "address",
          "name": "account",
          "type": "address"
        }
      ],
      "name": "grantRole",
      "outputs": [],
      "stateMutability": "nonpayable",
      "type": "function"
    },
    {
      "inputs": [
        {
          "internalType": "bytes32",
          "name": "role",
          "type": "bytes32"
        },
        {
          "internalType": "address",
          "name": "account",
          "type": "address"
        }
      ],
      "name": "hasRole",
      "outputs": [
        {
          "internalType": "bool",
          "name": "",
          "type": "bool"
        }
      ],
      "stateMutability": "view",
      "type": "function"
    },
    {
      "inputs": [
        {
          "internalType": "address",
          "name": "_candidate",
          "type": "address"
        }
      ],
      "name": "isCandidate",
      "outputs": [
        {
          "internalType": "bool",
          "name": "",
          "type": "bool"
        }
      ],
      "stateMutability": "view",
      "type": "function"
    },
    {
      "inputs": [
        {
          "internalType": "address",
          "name": "_candidate",
          "type": "address"
        }
      ],
      "name": "isExistCandidate",
      "outputs": [
        {
          "internalType": "bool",
          "name": "isExist",
          "type": "bool"
        }
      ],
      "stateMutability": "view",
      "type": "function"
    },
    {
      "inputs": [
        {
          "internalType": "address",
          "name": "_candidate",
          "type": "address"
        }
      ],
      "name": "isMember",
      "outputs": [
        {
          "internalType": "bool",
          "name": "",
          "type": "bool"
        }
      ],
      "stateMutability": "view",
      "type": "function"
    },
    {
      "inputs": [],
      "name": "layer2Manager",
      "outputs": [
        {
          "internalType": "address",
          "name": "",
          "type": "address"
        }
      ],
      "stateMutability": "view",
      "type": "function"
    },
    {
      "inputs": [],
      "name": "layer2Registry",
      "outputs": [
        {
          "internalType": "contract ILayer2Registry",
          "name": "",
          "type": "address"
        }
      ],
      "stateMutability": "view",
      "type": "function"
    },
    {
      "inputs": [],
      "name": "maxMember",
      "outputs": [
        {
          "internalType": "uint256",
          "name": "",
          "type": "uint256"
        }
      ],
      "stateMutability": "view",
      "type": "function"
    },
    {
      "inputs": [
        {
          "internalType": "uint256",
          "name": "",
          "type": "uint256"
        }
      ],
      "name": "members",
      "outputs": [
        {
          "internalType": "address",
          "name": "",
          "type": "address"
        }
      ],
      "stateMutability": "view",
      "type": "function"
    },
    {
      "inputs": [
        {
          "internalType": "address",
          "name": "owner",
          "type": "address"
        },
        {
          "internalType": "address",
          "name": "",
          "type": "address"
        },
        {
          "internalType": "uint256",
          "name": "",
          "type": "uint256"
        },
        {
          "internalType": "bytes",
          "name": "data",
          "type": "bytes"
        }
      ],
      "name": "onApprove",
      "outputs": [
        {
          "internalType": "bool",
          "name": "",
          "type": "bool"
        }
      ],
      "stateMutability": "nonpayable",
      "type": "function"
    },
    {
      "inputs": [
        {
          "internalType": "address",
          "name": "layer2",
          "type": "address"
        },
        {
          "internalType": "address",
          "name": "operator",
          "type": "address"
        }
      ],
      "name": "operatorAmountCheck",
      "outputs": [
        {
          "internalType": "uint256",
          "name": "operatorAmount",
          "type": "uint256"
        }
      ],
      "stateMutability": "view",
      "type": "function"
    },
    {
      "inputs": [
        {
          "internalType": "address",
          "name": "candidate",
          "type": "address"
        }
      ],
      "name": "operatorCheck",
      "outputs": [
        {
          "internalType": "uint256",
          "name": "operatorAmount",
          "type": "uint256"
        }
      ],
      "stateMutability": "view",
      "type": "function"
    },
    {
      "inputs": [],
      "name": "pauseProxy",
      "outputs": [
        {
          "internalType": "bool",
          "name": "",
          "type": "bool"
        }
      ],
      "stateMutability": "view",
      "type": "function"
    },
    {
      "inputs": [
        {
          "internalType": "address",
          "name": "",
          "type": "address"
        }
      ],
      "name": "privateLayer2",
      "outputs": [
        {
          "internalType": "bool",
          "name": "",
          "type": "bool"
        }
      ],
      "stateMutability": "view",
      "type": "function"
    },
    {
      "inputs": [
        {
          "internalType": "uint256",
          "name": "",
          "type": "uint256"
        }
      ],
      "name": "proxyImplementation",
      "outputs": [
        {
          "internalType": "address",
          "name": "",
          "type": "address"
        }
      ],
      "stateMutability": "view",
      "type": "function"
    },
    {
      "inputs": [],
      "name": "quorum",
      "outputs": [
        {
          "internalType": "uint256",
          "name": "",
          "type": "uint256"
        }
      ],
      "stateMutability": "view",
      "type": "function"
    },
    {
      "inputs": [
        {
          "internalType": "address",
          "name": "_operator",
          "type": "address"
        },
        {
          "internalType": "address",
          "name": "_layer2",
          "type": "address"
        },
        {
          "internalType": "string",
          "name": "_memo",
          "type": "string"
        }
      ],
      "name": "registerLayer2CandidateByOwner",
      "outputs": [],
      "stateMutability": "nonpayable",
      "type": "function"
    },
    {
      "inputs": [
        {
          "internalType": "address",
          "name": "_candidate",
          "type": "address"
        }
      ],
      "name": "removeFromBlacklist",
      "outputs": [],
      "stateMutability": "nonpayable",
      "type": "function"
    },
    {
      "inputs": [
        {
          "internalType": "bytes32",
          "name": "role",
          "type": "bytes32"
        },
        {
          "internalType": "address",
          "name": "account",
          "type": "address"
        }
      ],
      "name": "renounceRole",
      "outputs": [],
      "stateMutability": "nonpayable",
      "type": "function"
    },
    {
      "inputs": [],
      "name": "retireMember",
      "outputs": [
        {
          "internalType": "bool",
          "name": "",
          "type": "bool"
        }
      ],
      "stateMutability": "nonpayable",
      "type": "function"
    },
    {
      "inputs": [
        {
          "internalType": "bytes32",
          "name": "role",
          "type": "bytes32"
        },
        {
          "internalType": "address",
          "name": "account",
          "type": "address"
        }
      ],
      "name": "revokeRole",
      "outputs": [],
      "stateMutability": "nonpayable",
      "type": "function"
    },
    {
      "inputs": [],
      "name": "seigManager",
      "outputs": [
        {
          "internalType": "contract ISeigManager",
          "name": "",
          "type": "address"
        }
      ],
      "stateMutability": "view",
      "type": "function"
    },
    {
      "inputs": [
        {
          "internalType": "bytes4",
          "name": "",
          "type": "bytes4"
        }
      ],
      "name": "selectorImplementation",
      "outputs": [
        {
          "internalType": "address",
          "name": "",
          "type": "address"
        }
      ],
      "stateMutability": "view",
      "type": "function"
    },
    {
      "inputs": [
        {
          "internalType": "uint256",
          "name": "_agendaID",
          "type": "uint256"
        },
        {
          "internalType": "uint256",
          "name": "_status",
          "type": "uint256"
        },
        {
          "internalType": "uint256",
          "name": "_result",
          "type": "uint256"
        }
      ],
      "name": "setAgendaStatus",
      "outputs": [],
      "stateMutability": "nonpayable",
      "type": "function"
    },
    {
      "inputs": [
        {
          "internalType": "address",
          "name": "_candidate",
          "type": "address"
        },
        {
          "internalType": "string",
          "name": "_memo",
          "type": "string"
        }
      ],
      "name": "setMemoOnCandidate",
      "outputs": [],
      "stateMutability": "nonpayable",
      "type": "function"
    },
    {
      "inputs": [
        {
          "internalType": "address",
          "name": "_candidateContract",
          "type": "address"
        },
        {
          "internalType": "string",
          "name": "_memo",
          "type": "string"
        }
      ],
      "name": "setMemoOnCandidateContract",
      "outputs": [],
      "stateMutability": "nonpayable",
      "type": "function"
    },
    {
      "inputs": [],
      "name": "ton",
      "outputs": [
        {
          "internalType": "address",
          "name": "",
          "type": "address"
        }
      ],
      "stateMutability": "view",
      "type": "function"
    },
    {
      "inputs": [
        {
          "internalType": "address",
          "name": "_candidate",
          "type": "address"
        }
      ],
      "name": "totalSupplyOnCandidate",
      "outputs": [
        {
          "internalType": "uint256",
          "name": "totalsupply",
          "type": "uint256"
        }
      ],
      "stateMutability": "view",
      "type": "function"
    },
    {
      "inputs": [
        {
          "internalType": "address",
          "name": "_candidateContract",
          "type": "address"
        }
      ],
      "name": "totalSupplyOnCandidateContract",
      "outputs": [
        {
          "internalType": "uint256",
          "name": "totalsupply",
          "type": "uint256"
        }
      ],
      "stateMutability": "view",
      "type": "function"
    },
    {
      "inputs": [
        {
          "internalType": "address",
          "name": "_candidate",
          "type": "address"
        }
      ],
      "name": "updateSeigniorage",
      "outputs": [
        {
          "internalType": "bool",
          "name": "",
          "type": "bool"
        }
      ],
      "stateMutability": "nonpayable",
      "type": "function"
    },
    {
      "inputs": [],
      "name": "version",
      "outputs": [
        {
          "internalType": "string",
          "name": "",
          "type": "string"
        }
      ],
      "stateMutability": "pure",
      "type": "function"
    },
    {
      "inputs": [],
      "name": "wton",
      "outputs": [
        {
          "internalType": "address",
          "name": "",
          "type": "address"
        }
      ],
      "stateMutability": "view",
      "type": "function"
    }
  ],
  "bytecode": "0x608080604052346100175761585490816200001d8239f35b600080fdfe6080604052600436101561001257600080fd5b60003560e01c806303e3c9ac146103f757806311f19e04146103f257806314d3535e146103ed57806316b5d5bd146103e857806316f7f982146103e35780631703a018146103de578063216f486b146103d9578063248a9ca3146103d457806324f99b1e146103cf57806327fd92fd146103ca5780632e011c1e146103c55780632f2ff15d146103c05780633477ee2e146103bb57806336568abe146103b657806342414e77146103b15780634273ca16146103ac578063440b69ad146103a75780634892afd3146103a257806350d2a2761461039d578063537df3b61461039857806354fd4d5014610393578063550d01a31461038e578063561a1dab146103895780635903bd6c146103845780635a74b3b81461037f5780635daf08ca1461037a5780635fba7a5614610375578063607cf7341461037057806363a8fd891461036b578063651d08cd146103665780636becff27146103615780636fb7f5581461035c5780637536281914610357578063773b7f651461035257806378767d331461034d5780637f33163614610348578063805aca201461034357806389ea43001461033e5780638d62d949146103395780639010d07c1461033457806391d148541461032f5780639932e94c1461032a578063a217fddf14610325578063a230c52414610320578063ad6675dc1461031b578063b222e0c214610316578063b319c6b714610311578063b40525eb1461030c578063b5dd115814610307578063b84cabe214610302578063b911135f146102fd578063c4ef9c00146102f8578063c7cac42c146102f3578063ca15c873146102ee578063cc48b947146102e9578063cf2a239c146102e4578063d1200f94146102df578063d51b9e93146102da578063d525f04f146102d5578063d547741f146102d0578063d71b8dc0146102cb5763f9f92be4146102c657600080fd5b61301b565b612fdc565b612ef9565b612ebd565b612e96565b612dcd565b612d6a565b612d41565b612d15565b612ce2565b612ae2565b612aae565b6129a0565b612977565b612935565b612917565b6128da565b612899565b61284e565b612832565b61280b565b6127bc565b612715565b6126ec565b612659565b612536565b612518565b6124f1565b6124d3565b6124aa565b612481565b6122c4565b612272565b61224c565b612235565b611fe5565b611f8a565b611f63565b611f3a565b611eee565b611eac565b611e66565b611d5a565b611d15565b611a7a565b6117dd565b6113cd565b6111af565b6110df565b611084565b610f5a565b610e5b565b610e32565b6108fb565b61089f565b610690565b610672565b610651565b610600565b6104cb565b61042a565b61040c565b600091031261040757565b600080fd5b34610407576000366003190112610407576020600854604051908152f35b346104075760203660031901126104075760043560085481101561046a576104546104669161393c565b60405190151581529081906020820190565b0390f35b60405162461bcd60e51b815260206004820152602260248201527f44414f436f6d6d69747465653a20696e76616c6964206d656d62657220696e646044820152610caf60f31b6064820152608490fd5b6001600160a01b0381160361040757565b34610407576020366003190112610407576104666004356104eb816104ba565b60406105a661059660048360a08151610503816116bc565b60009181838093528260208201528285820152826060820152826080820152015260018060a01b038097168152600f60205220610561855196610545886116bc565b8254811688526001830154166001600160a01b03166020880152565b60028101548587015260038101546001600160801b0381166060880152608090811c908701525b01546001600160801b031690565b6001600160801b031660a0840152565b519182918291909160a060c0820193600180831b03808251168452602082015116602084015260408101516040840152816001600160801b0391826060820151166060860152826080820151166080860152015116910152565b34610407576000366003190112610407576011546040516001600160a01b039091168152602090f35b604090600319011261040757600435610641816104ba565b9060243561064e816104ba565b90565b3461040757602061066a61066436610629565b90615377565b604051908152f35b34610407576000366003190112610407576020600a54604051908152f35b346104075760208060031936011261040757600254600435916001600160a01b03909116906106c082151561417e565b6040516377f28d5b60e01b8152600481018490528181602481865afa8015610842576106f491600091610872575b5061453f565b6040516373ba374560e01b815260048101849052600081602481865afa9283156108425760009384928591610847575b50610761575b847f785146be3266678a3f4ea454b310ff1f8c91d0ad9a7997bcd0619940d4d67fe661075c86604051918291826147ee565b0390a2005b8094939192943b1561040757604051631b8c251960e11b815260048101859052906000908290602490829084905af1801561084257610829575b5060005b81518110156107f957806107ef6000806107cc6107bf6107f4968861410a565b516001600160a01b031690565b6107d6858961410a565b5190828b83519301915af16107e9614722565b50614752565b6140fb565b61079f565b5091925061075c90507f785146be3266678a3f4ea454b310ff1f8c91d0ad9a7997bcd0619940d4d67fe63861072a565b8061083661083c926116dc565b806103fc565b3861079b565b61347c565b9194905061086792503d8091833e61085f8183611740565b81019061466e565b509193909138610724565b6108929150833d8511610898575b61088a8183611740565b810190613502565b386106ee565b503d610880565b3461040757602036600319011261040757600435600052600c6020526020600260406000200154604051908152f35b9181601f84011215610407578235916001600160401b038311610407576020838186019501011161040757565b34610407576060366003190112610407576004803590602435906044356001600160401b0381116104075761093390369083016108ce565b9060018060a01b0360028181541661094c81151561417e565b6040928351630d90703f60e31b815260209283828a81335afa908115610842578a938593600093610df3575b506109e46109e06109d96109e9936109bf6109b56109a88960018060a01b03166000526009602052604060002090565b546001600160a01b031690565b9182163314613760565b6001600160a01b0316600090815260166020526040902090565b5460ff1690565b1590565b613809565b8651637e77eb2360e01b8152808b018d81526001600160a01b039093166020840152604083019490945283918290600090829060600103925af1801561084257610dd5575b50508054610a4c906001600160a01b03165b6001600160a01b031690565b908251635772521560e11b815260608180610a6e8c8b83019190602083019252565b0381865afa801561084257600080928192610da2575b50600a5491818311610b905750508254929350610aad926001600160a01b03169150610a409050565b90813b15610407578251632b0a851b60e11b815286810189815260016020820152909260009184919082908490829060400103925af190811561084257610b0592610a4092610b7d575b50546001600160a01b031690565b803b15610407578151633625b75960e21b815294850187815260036020820152600091869182908490829060400103925af19081156108425760008051602061580883398151915294610b6592610b6a575b505b51928392339684614244565b0390a3005b80610836610b77926116dc565b38610b57565b80610836610b8a926116dc565b38610af7565b838311610c765750508254929350610bb4926001600160a01b03169150610a409050565b90813b15610407578251632b0a851b60e11b815286810189815260026020820152909260009184919082908490829060400103925af190811561084257610c0b92610a4092610b7d5750546001600160a01b031690565b803b15610407578151633625b75960e21b815294850187815260056020820152600091869182908490829060400103925af19081156108425760008051602061580883398151915294610b6592610c63575b50610b59565b80610836610c70926116dc565b38610c5d565b610c9f610c98610c908593610c8b88876138b6565b6138b6565b6008546141fa565b80936138b6565b109283610d8e575b505050610ccb575b50506000805160206158088339815191529350610b6590610b59565b813b15610407578251632b0a851b60e11b815286810189815260036020820152909260009184919082908490829060400103925af190811561084257610d2192610a4092610b7d5750546001600160a01b031690565b803b15610407578151633625b75960e21b815294850187815260056020820152600091869182908490829060400103925af19081156108425760008051602061580883398151915294610b6592610d7b575b819250610caf565b80610836610d88926116dc565b38610d73565b610d999293506138b6565b10388080610ca7565b915050610dc6915060603d8111610dce575b610dbe8183611740565b8101906141df565b909138610a84565b503d610db4565b81610deb92903d106108985761088a8183611740565b503880610a2e565b6109e99193506109e06109d9610e216109e493883d8a11610e2b575b610e198183611740565b810190613408565b9593505050610978565b503d610e0f565b34610407576000366003190112610407576002546040516001600160a01b039091168152602090f35b3461040757602036600319011261040757610466600435610e7b816104ba565b6040610f0b610efb60038360808151610e93816116ef565b60009181838093528260208201528285820152826060820152015260018060a01b038097168152600960205220845195610ecc876116ef565b81541686526001810154602087015260028101546001600160801b0381168688015260801c6060870152610588565b6001600160801b03166080840152565b5191829182919091608060a082019360018060a01b03815116835260208101516020840152816001600160801b0391826040820151166040860152826060820151166060860152015116910152565b3461040757604036600319011261040757602435600435610f7a826104ba565b600091818352600c60205260026040842001548352610fac336040852060019160005201602052604060002054151590565b15610fbd57610fba9161305d565b80f35b60405162461bcd60e51b815260206004820152602f60248201527f416363657373436f6e74726f6c3a2073656e646572206d75737420626520616e60448201526e0818591b5a5b881d1bc819dc985b9d608a1b6064820152608490fd5b634e487b7160e01b600052603260045260246000fd5b6007548110156110675760076000527fa66cc928b5edb82af9bd49922954155ab7b0942694bea4ce44661d9a8736c6880190600090565b61101a565b80548210156110675760005260206000200190600090565b34610407576020366003190112610407576004356006548110156104075760066000527ff652222313e28459528d920b65115c16c04f3efc82aaedc97be59f3f377c0d3f01546040516001600160a01b039091168152602090f35b34610407576040366003190112610407576024356110fc816104ba565b336001600160a01b0382160361111a57611118906004356130b3565b005b60405162461bcd60e51b815260206004820152602f60248201527f416363657373436f6e74726f6c3a2063616e206f6e6c792072656e6f756e636560448201526e103937b632b9903337b91039b2b63360891b6064820152608490fd5b604060031982011261040757600435906001600160401b038211610407576111a1916004016108ce565b909160243561064e816104ba565b34610407576111bd36611177565b60055491926001600160a01b03928316929091906111dc841515613282565b6111eb816004541615156132e2565b8060035416916111fc831515613344565b33600090815260008051602061582883398151915260209081526040822054919788979195909286926112579291611235901515613225565b60405163732518fb60e11b8152998a93849283919030898e8c6004870161343e565b03925af19586156108425787966113aa575b5061133690848488169761127e891515613488565b6112cd611289611761565b6001600160a01b03831681528b848201528b60408201528b60608201528b60808201526112c88760018060a01b03166000526009602052604060002090565b61357c565b6112d6856135f4565b6004546112eb906001600160a01b0316610a40565b600554611300906001600160a01b0316610a40565b604051635e58d38f60e11b81526001600160a01b03938416600482015292166024830152909384919082908c9082906044820190565b03925af1948515610842577f7cf8db18d9a5c7f44156bfabdbb59ac982a8a004e461ca1b87ee71a5cdfbc5ef9561138793611379928b9261138d575b5050613517565b604051938493169583613658565b0390a380f35b6113a39250803d106108985761088a8183611740565b3880611372565b6113369196506113c690853d8711610e2b57610e198183611740565b9590611269565b346104075760803660031901126104075760048035906113ec826104ba565b6113f76024356104ba565b606435916001600160401b0383116104075761141961143793369084016108ce565b6000546001600160a01b03169491611432338714613f9e565b61493c565b6114448151511515613fde565b6060810161145a6114558251151590565b614018565b8151519061146f608084019283515114614064565b604094858401908061148883516001600160801b031690565b6002546020906114a0906001600160a01b0316610a40565b8a516371e1b0ab60e11b815293849182905afa908115610842576114d79260009261166d575b506001600160801b031610156140a3565b6001805490988992916000906114f790610a40906001600160a01b031681565b9a5b611551575b50505050611546959650835160a061153b61153461152660208901516001600160801b031690565b94516001600160801b031690565b9451151590565b945195015195614b93565b505160018152602090f35b875180518210156116675761156d610a406107bf848f9461410a565b14611582575b61157c906140fb565b836114f9565b61158d81885161410a565b5161159781615711565b906115a96115a361411e565b836157a8565b611657576115b86115a361413e565b611647576115c86115d79161575c565b916115d161415e565b906157a8565b9081611633575b501561157357895162461bcd60e51b815260208185018181526017918101919091527f636c61696d455243323020746f6e20646f6e7420757365000000000000000000604082015281906060010390fd5b0390fd5b61164191506115d184614a94565b386115de565b8b5163cafae8ff60e01b81528590fd5b8b516359e8ff4b60e11b81528590fd5b506114fe565b6001600160801b039192506116989060203d811161169f575b6116908183611740565b8101906136a0565b91906114c6565b503d611686565b634e487b7160e01b600052604160045260246000fd5b60c081019081106001600160401b038211176116d757604052565b6116a6565b6001600160401b0381116116d757604052565b60a081019081106001600160401b038211176116d757604052565b604081019081106001600160401b038211176116d757604052565b606081019081106001600160401b038211176116d757604052565b90601f801991011681019081106001600160401b038211176116d757604052565b6040519061176e826116ef565b565b6001600160401b0381116116d757601f01601f191660200190565b92919261179782611770565b916117a56040519384611740565b829481845281830111610407578281602093846000960137010152565b9080601f830112156104075781602061064e9335910161178b565b346104075760603660031901126104075760048035906117fc826104ba565b60243590611809826104ba565b6044356001600160401b0381116104075761182790369083016117c2565b336000908152600080516020615828833981519152602090815260408083205492969195939192611859901515613225565b6005546001600160a01b039390841690611874821515613282565b6118828588541615156132e2565b846003541696611893881515613344565b6001600160a01b038781166000908152600960205260409020546118b89116156133aa565b858716976118c7891515613488565b845163220bbb4b60e21b81528a8184818d5afa8015610842576118f1918d91611a5d575b50614abd565b845163570ca73560e01b8152928a8484818d5afa80156108425788611924928d968f93611a3c575b508116911614614b17565b858b8961194688519788968795869463732518fb60e11b865230928601614b63565b03925af1908115610842577f0f401d1bd976f5304ef9cfa87aeb24d777c0e205fb87bbae1dc0f0293ba7976a956119e3611a13938b61138798611a06958293611a1d575b5082169b6119998d1515613488565b6119b36119a4611761565b6001600160a01b039094168452565b8201528b868201528b60608201528b60808201526112c88360018060a01b03166000526009602052604060002090565b6119ec816135f4565b6001600160a01b0316600090815260176020526040902090565b805460ff19166001179055565b5191829182611e55565b611a359193508d803d10610e2b57610e198183611740565b913861198a565b82919350611a5690883d8a11610e2b57610e198183611740565b9290611919565b611a7491508c8d3d106108985761088a8183611740565b386118eb565b3461040757611a8836611177565b601154611a9d906001600160a01b0316610a40565b3303611d0357601254611aba90610a40906001600160a01b031681565b600554909390611ad2906001600160a01b0316610a40565b906040928351946337d5af5f60e01b8652602093848780611afb60049430878a8a898701613669565b03816000809c5af1968715610842578897611ce4575b506001600160a01b0397878916958615611cc7576001600160a01b03858116600090815260096020526040902054611b499116610a40565b611caa57611c0490611b9a611b5c611761565b6001600160a01b038c1681528483820152848b8201528460608201528460808201526112c88860018060a01b03166000526009602052604060002090565b611ba3866135f4565b83548190611bb9906001600160a01b0316610a40565b600554611bce906001600160a01b0316610a40565b8b51635e58d38f60e11b81526001600160a01b03808f168983019081529216602083015294859291839188918391604090910190565b03925af19283156108425792611c8d575b505015611c6f5750957f7cf8db18d9a5c7f44156bfabdbb59ac982a8a004e461ca1b87ee71a5cdfbc5ef91611c54610466988751938493169583613658565b0390a3516001600160a01b0390911681529081906020820190565b855163e378c44560e01b815260039181019182529081906020010390fd5b611ca39250803d106108985761088a8183611740565b3880611c15565b875163e378c44560e01b8152600281850190815281906020010390fd5b875163e378c44560e01b8152600181850190815281906020010390fd5b611cfc919750853d8711610e2b57610e198183611740565b9538611b11565b60405163a648679560e01b8152600490fd5b346104075760203660031901126104075760043563ffffffff60e01b8116809103610407576000526015602052602060018060a01b0360406000205416604051908152f35b3461040757602036600319011261040757600435611d77816104ba565b3360009081526000805160206158288339815191526020526040812054909190611da2901515613225565b6001600160a01b03168082526016602052604082205460ff1615611dd6578152601660205260408120805460ff1916905580f35b60405162461bcd60e51b815260206004820152600f60248201526e139bdd08189b1858dadb1a5cdd1959608a1b6044820152606490fd5b60005b838110611e205750506000910152565b8181015183820152602001611e10565b90602091611e4981518092818552858086019101611e0d565b601f01601f1916010190565b90602061064e928181520190611e30565b3461040757600036600319011261040757610466604051611e868161170a565b60058152640322e302e360dc1b6020820152604051918291602083526020830190611e30565b3461040757602036600319011261040757600435611ec9816104ba565b60018060a01b03166000526014602052602060ff604060002054166040519015158152f35b34610407576020366003190112610407576020611f30600435611f10816104ba565b6001600160a01b0390811660009081526009602052604090205416151590565b6040519015158152f35b34610407576000366003190112610407576001546040516001600160a01b039091168152602090f35b3461040757602036600319011261040757602061066a600435611f85816104ba565b6154a0565b34610407576020366003190112610407576004356007548110156104075760076000527fa66cc928b5edb82af9bd49922954155ab7b0942694bea4ce44661d9a8736c68801546040516001600160a01b039091168152602090f35b34610407576020806003193601126104075760048035916001600160401b0383116104075761201a61209a93369084016108ce565b6005546001600160a01b039081169592939190612038871515613282565b6120468187541615156132e2565b82816003541697612058891515613344565b3360009081526009602052604090205461207b906001600160a01b0316156133aa565b60405163732518fb60e11b815295869182919030878b338e870161343e565b03816000809b5af19384156108425787946121d4575b5082612125918516966120c4881515613488565b80546120d8906001600160a01b0316610a40565b60055487908b906120f1906001600160a01b0316610a40565b60408051635e58d38f60e11b81526001600160a01b0394851696810196875291909316602086015295869485938492910190565b03925af193841561084257876113879461216b7f7cf8db18d9a5c7f44156bfabdbb59ac982a8a004e461ca1b87ee71a5cdfbc5ef976121a09584916121b7575b50613517565b6121766119a4611761565b8201526040808201899052606082018990526080820189905233600090815260096020522061357c565b6121a9336135f4565b604051918291339583613658565b6121ce9150833d85116108985761088a8183611740565b38612165565b6121259194506121f18491823d8411610e2b57610e198183611740565b9491506120b0565b90604060031983011261040757600435612212816104ba565b91602435906001600160401b03821161040757612231916004016108ce565b9091565b3461040757611118612246366121f9565b91613e1c565b3461040757600036600319011261040757602060ff600e5460a01c166040519015158152f35b346104075760203660031901126104075760206122b2600435612294816104ba565b6001600160a01b039081166000908152600960205260409020541690565b6040516001600160a01b039091168152f35b34610407576020366003190112610407576004356122e1816104ba565b604051630d90703f60e31b8152602081600481335afa90811561084257600091612463575b506001600160a01b03818116600090815260096020526040902080546123909190612344906109e4906109e0906109d99087166109bf338214613760565b61238b6002612352866153c1565b9261235e8415156147ff565b6003810180546001600160801b031916426001600160801b0316179055016001600160801b038154169055565b61485f565b6001549092906123a8906001600160a01b0316610a40565b6010546001600160a01b03169390803b1561040757604051637c24048d60e11b81526001600160a01b0395861660048201529486166024860152604485018290526000908590606490829084905af1908115610842577fb15377c434dc1922cc2eb7d8950640960a05f0cf6d5dc9442de8414a9da2b3089461075c92612450575b50604080516001600160a01b03909716875260208701919091529190921693918291820190565b8061083661245d926116dc565b38612429565b61247b915060203d8111610e2b57610e198183611740565b38612306565b34610407576000366003190112610407576005546040516001600160a01b039091168152602090f35b34610407576000366003190112610407576012546040516001600160a01b039091168152602090f35b34610407576000366003190112610407576020600654604051908152f35b3461040757602036600319011261040757602061066a600435612513816104ba565b61531f565b34610407576000366003190112610407576020600b54604051908152f35b34610407576060366003190112610407573360009081526000805160206158288339815191526020526040812054600435908290602435906044359061257d901515613225565b600254612592906001600160a01b0316610a40565b9061259c81614207565b813b156126555783916125c691604051958680948193632b0a851b60e11b83528a60048401614211565b03925af1918215610842578492612642575b506002546125ee906001600160a01b0316610a40565b6125f782612fcd565b803b1561263e5761261f9383604051809681958294633625b75960e21b84526004840161422a565b03925af1801561084257612631575080f35b80610836610fba926116dc565b8280fd5b8061083661264f926116dc565b386125d8565b8380fd5b34610407576020366003190112610407576000602060043561267a816104ba565b6001600160a01b039081168352600982526040808420549051633b253c2b60e11b8152938492600492849291165af1801561084257610466916000916126ce575b5060405190151581529081906020820190565b6126e6915060203d81116108985761088a8183611740565b386126bb565b34610407576000366003190112610407576010546040516001600160a01b039091168152602090f35b3461040757604036600319011261040757602435600435600052600c602052604060002090808254111561276c5761274c9161106c565b905460405160039290921b1c6001600160a01b0316815280602081010390f35b60405162461bcd60e51b815260206004820152602260248201527f456e756d657261626c655365743a20696e646578206f7574206f6620626f756e604482015261647360f01b6064820152608490fd5b34610407576040366003190112610407576020611f306024356127de816104ba565b6004356000908152600c845260408082206001600160a01b03909316825260019092016020522054151590565b3461040757602036600319011261040757602061066a60043561282d816104ba565b6153c1565b3461040757600036600319011261040757602060405160008152f35b346104075760203660031901126104075760043561286b816104ba565b60018060a01b0316600052600960205260206001600160801b03600260406000200154161515604051908152f35b3461040757602036600319011261040757602061066a6004356128bb816104ba565b6001600160a01b0390811660009081526009845260409020541661531f565b34610407576020366003190112610407576004356128f7816104ba565b60018060a01b031660005260186020526020604060002054604051908152f35b34610407576000366003190112610407576020601954604051908152f35b3461040757602036600319011261040757600435612952816104ba565b60018060a01b03166000526017602052602060ff604060002054166040519015158152f35b34610407576000366003190112610407576003546040516001600160a01b039091168152602090f35b34610407576129fb6129b136610629565b906129cc610a40610a40610a4060055460018060a01b031690565b604051634c063c1960e01b81526001600160a01b03909216600483015260209384918391829081906024820190565b03915afa91821561084257612a42928492600091612a91575b506040516370a0823160e01b81526001600160a01b0390921660048301529092839190829081906024820190565b03916001600160a01b03165afa9081156108425761046692600092612a74575b50506040519081529081906020820190565b612a8a9250803d1061169f576116908183611740565b3880612a62565b612aa89150833d8511610e2b57610e198183611740565b38612a14565b34610407576020366003190112610407576004356000526013602052602060018060a01b0360406000205416604051908152f35b3461040757600080600319360112612cdf57604051630d90703f60e31b8152602081600481335afa908115610842578291612cc1575b506001600160a01b03811660009081526009602052604090207f663b98adf1afa777e36528b3293a057803f87ed00d2d2518dccfe5d7a6e99ccf90612c9a909260028401612c50611a066109bf6001600160801b0397612b8b89612b8387546001600160801b031690565b161515613d3c565b80546001600160a01b0395612c3d91612ba79088163314613760565b600183019a612bce612bb98d54611030565b81549060018060a01b039060031b1b19169055565b815460038501546001600160801b03168083168284161115612ca9575050612c0d612c2d91612c04845491808316904216613908565b9060801c613921565b82546001600160801b031660809190911b6001600160801b031916178255565b80546001600160801b0319169055565b8854988a9055546001600160a01b031690565b604051428152908216907ff2f5dcb091f4d2c9dbd9481195a0713490b6db6f9df5dc695d1195b915769bc190602090a26040516001600160a01b0390911681529081906020820190565b0390a360405160018152602090f35b90612c04612c0d92612cbc944216613908565b612c2d565b612cd9915060203d8111610e2b57610e198183611740565b38612b18565b80fd5b3461040757611118612cf3366121f9565b6001600160a01b03928316600090815260096020526040902054909216613e1c565b3461040757602036600319011261040757600435600052600c6020526020604060002054604051908152f35b34610407576000366003190112610407576000546040516001600160a01b039091168152602090f35b34610407576000366003190112610407576004546040516001600160a01b039091168152602090f35b90600182811c92168015612dc3575b6020831014612dad57565b634e487b7160e01b600052602260045260246000fd5b91607f1691612da2565b3461040757602080600319360112610407576000906004358252601a815260408220906040519183815490612e0182612d93565b80865292600192808416908115612e725750600114612e37575b61046686612e2b818a0382611740565b60405191829182611e55565b9080949650528483205b828410612e5f575050508161046693612e2b92820101933880612e1b565b8054858501870152928501928101612e41565b60ff19168787015250505050151560051b8201019150612e2b816104663880612e1b565b34610407576020366003190112610407576020611f30600435612eb8816104ba565b615128565b3461040757602061066a612ef4612ed336610629565b6001600160a01b039182166000908152600960205260409020549092911690565b615377565b3461040757604036600319011261040757602435600435612f19826104ba565b600091818352600c60205260026040842001548352612f4b336040852060019160005201602052604060002054151590565b15612f5957610fba916130b3565b60405162461bcd60e51b815260206004820152603060248201527f416363657373436f6e74726f6c3a2073656e646572206d75737420626520616e60448201526f2061646d696e20746f207265766f6b6560801b6064820152608490fd5b634e487b7160e01b600052602160045260246000fd5b60061115612fd757565b612fb7565b3461040757602036600319011261040757612ff8600435614277565b906040519061300681612fcd565b81526007821015612fd7576040916020820152f35b3461040757602036600319011261040757600435613038816104ba565b60018060a01b03166000526016602052602060ff604060002054166040519015158152f35b6000818152600c6020526040902090916001600160a01b031690613082908290613109565b61308a575050565b33917f2f8788117e7eff1d82e926ec794901d17c78024a50270940304540a733656f0d600080a4565b6000818152600c6020526040902090916001600160a01b0316906130d8908290613177565b6130e0575050565b33917ff6391f5c32d9c69d2a47ea670b442974b53935d1edc7fd64eb21e047a839171b600080a4565b600082815260018201602052604090205461317057805490600160401b8210156116d7578261315961314284600180960185558461106c565b819391549060031b91821b91600019901b19161790565b905580549260005201602052604060002055600190565b5050600090565b600082815260018201602081905260408220549294939192801561321d57600019906131a6828854018861106c565b90549060031b1c806131bd6131428585018b61106c565b905585528260205260408520558554958615613209578161320395969701916131e6838361106c565b909182549160031b1b191690555590600052602052604060002090565b55600190565b634e487b7160e01b85526031600452602485fd5b509193505050565b1561322c57565b60405162461bcd60e51b815260206004820152602860248201527f44414f436f6d6d69747465653a206d73672e73656e646572206973206e6f742060448201526730b71030b236b4b760c11b6064820152608490fd5b1561328957565b60405162461bcd60e51b815260206004820152602b60248201527f53746f726167655374617465436f6d6d69747465653a20696e76616c6964205360448201526a6569674d616e616765726560a81b6064820152608490fd5b156132e957565b60405162461bcd60e51b815260206004820152602d60248201527f53746f726167655374617465436f6d6d69747465653a20696e76616c6964204c60448201526c6179657232526567697374727960981b6064820152608490fd5b1561334b57565b60405162461bcd60e51b815260206004820152603160248201527f53746f726167655374617465436f6d6d69747465653a20696e76616c696420436044820152706f6d6d69747465654c32466163746f727960781b6064820152608490fd5b156133b157565b60405162461bcd60e51b815260206004820152602960248201527f44414f436f6d6d69747465653a2063616e64696461746520616c7265616479206044820152681c9959da5cdd195c9960ba1b6064820152608490fd5b90816020910312610407575161064e816104ba565b908060209392818452848401376000828201840152601f01601f1916010190565b9395949061346f6080949360018060a01b03948580941688526000602089015260a0604089015260a088019161341d565b9616606085015216910152565b6040513d6000823e3d90fd5b1561348f57565b60405162461bcd60e51b815260206004820152603060248201527f44414f436f6d6d69747465653a206465706c6f7965642063616e64696461746560448201526f436f6e7472616374206973207a65726f60801b6064820152608490fd5b8015150361040757565b519061176e826134ed565b90816020910312610407575161064e816134ed565b1561351e57565b60405162461bcd60e51b815260206004820152603060248201527f44414f436f6d6d69747465653a206661696c656420746f20726567697374657260448201526f416e644465706c6f79436f696e61676560801b6064820152608490fd5b815181546001600160a01b0319166001600160a01b0390911617815560208201516001820155604082015160608301516001600160801b039182166001600160801b0319608092831b1617600284015561176e93600392910151169101906001600160801b03166001600160801b0319825416179055565b600654600160401b8110156116d75760018101806006558110156110675760066000527ff652222313e28459528d920b65115c16c04f3efc82aaedc97be59f3f377c0d3f0180546001600160a01b0319166001600160a01b03909216919091179055565b91602061064e93818152019161341d565b939594906136936060949360018060a01b039485809416885260806020890152608088019161341d565b9616604085015216910152565b90816020910312610407575190565b156136b657565b60405162461bcd60e51b815260206004820152601960248201527f6e656564206d6f7265206f70657261746f724465706f736974000000000000006044820152606490fd5b1561370257565b60405162461bcd60e51b815260206004820152603060248201527f44414f436f6d6d69747465653a2073656e646572206973206e6f74206120636160448201526f1b991a59185d194818dbdb9d1c9858dd60821b6064820152608490fd5b1561376757565b60405162461bcd60e51b815260206004820152602860248201527f44414f436f6d6d69747465653a20696e76616c69642063616e6469646174652060448201526718dbdb9d1c9858dd60c21b6064820152608490fd5b156137c457565b60405162461bcd60e51b815260206004820152601b60248201527f44414f436f6d6d69747465653a206e65656420636f6f6c646f776e00000000006044820152606490fd5b1561381057565b606460405162461bcd60e51b815260206004820152602060248201527f44414f436f6d6d69747465653a20626c61636b6c6973746564206d656d6265726044820152fd5b1561385b57565b60405162461bcd60e51b815260206004820152601c60248201527f44414f436f6d6d69747465653a20616c7265616479206d656d626572000000006044820152606490fd5b634e487b7160e01b600052601160045260246000fd5b919082018092116138c357565b6138a0565b156138cf57565b60405162461bcd60e51b81526020600482015260116024820152701b9bdd08195b9bdd59da08185b5bdd5b9d607a1b6044820152606490fd5b6001600160801b0391821690821603919082116138c357565b9190916001600160801b03808094169116019182116138c357565b6040908151630d90703f60e31b81526020908181600481335afa90811561084257600091613d1f575b506004613971826154a0565b600554849061398c90610a409081906001600160a01b031681565b8751631761905360e31b815293849182905afa908115610842576139ba92600092613d00575b5010156136af565b6001600160a01b0381166000908152600960205260409020908451631dffc87160e21b81528381600481335afa8015610842576139ff91600091613ce3575b506136fb565b81546001600160a01b039290613a4c906109e4906109e0906109d9908716613a28338214613760565b6001600160a01b03811660009081526018602052604090206109bf905442116137bd565b60028101956001600160801b03613a7581613a6e8a546001600160801b031690565b1615613854565b613a96613a8188611030565b905460039190911b1c6001600160a01b031690565b97613ab66109a88a60018060a01b03166000526009602052604060002090565b93613ada8342168093906001600160801b03166001600160801b0319825416179055565b886001820155613b1a613b00613af2601954426138b6565b92546001600160a01b031690565b6001600160a01b0316600090815260186020526040902090565b55613b4785613b288a611030565b90919082549060031b9160018060a01b03809116831b921b1916179055565b85891615613ca35782516340bd8e6960e11b80825292908881600481335afa9586156108425788948a92600098613c81575b50600490875196879384928352165afa978815610842577f663b98adf1afa777e36528b3293a057803f87ed00d2d2518dccfe5d7a6e99ccf98613c4896613c2d95613bce93600093613c62575b5050116138c8565b6001600160a01b038a16600090815260096020526040902091600060018401556002830192613c09600385549201546001600160801b031690565b8084168285161115613c50575050612c2d91612c04612c0d92855492831690613908565b516001600160a01b0390961686529116939081906020820190565b0390a3600190565b612cbc9350612c0490612c0d93613908565b613c79929350803d1061169f576116908183611740565b903880613bc6565b6004919850613c9c90843d861161169f576116908183611740565b9790613b79565b5050516001600160a01b0390961686525016927f663b98adf1afa777e36528b3293a057803f87ed00d2d2518dccfe5d7a6e99ccf91508060208101613c48565b613cfa9150853d87116108985761088a8183611740565b386139f9565b613d18919250853d871161169f576116908183611740565b90386139b2565b613d369150823d8411610e2b57610e198183611740565b38613965565b15613d4357565b60405162461bcd60e51b815260206004820152601a60248201527f44414f436f6d6d69747465653a206e6f742061206d656d6265720000000000006044820152606490fd5b15613d8f57565b60405162461bcd60e51b815260206004820152603a60248201527f44414f436f6d6d69747465653a2073656e646572206973206e6f74207468652060448201527f63616e646964617465206f66207468697320636f6e74726163740000000000006064820152608490fd5b6001600160a01b03909116815260406020820181905261064e9391019161341d565b604051630d90703f60e31b81526001600160a01b0382811694916020919082816004818a5afa90811561084257600091613f81575b5060405163136c704d60e31b8152819084816004818c5afa90811561084257600091613f64575b50613f10575b50613e8c9250163314613d88565b833b1561040757600060405180956325d6086160e01b8252818381613eb5878a60048401613658565b03925af1908115610842577fda033346b344f4675799a7ab4d837f0deb62d4afcdcaba4613913b4c25838cb394613ef892613efd575b5060405193849384613dfa565b0390a1565b80610836613f0a926116dc565b38613eeb565b60405163570ca73560e01b8152915083908290600490829086165afa90811561084257613e8c93600092613f47575b505038613e7e565b613f5d9250803d10610e2b57610e198183611740565b3880613f3f565b613f7b9150853d87116108985761088a8183611740565b38613e78565b613f989150833d8511610e2b57610e198183611740565b38613e51565b15613fa557565b60405162461bcd60e51b815260206004820152601160248201527024ba13b9903737ba10333937b6902a27a760791b6044820152606490fd5b15613fe557565b60405162461bcd60e51b815260206004820152600b60248201526a1b995959081d185c99d95d60aa1b6044820152606490fd5b1561401f57565b60405162461bcd60e51b815260206004820152601760248201527f61746f6d696345786563757465206e65656420747275650000000000000000006044820152606490fd5b1561406b57565b60405162461bcd60e51b815260206004820152601060248201526f0dccacac840e6c2daca40d8cadccee8d60831b6044820152606490fd5b156140aa57565b60405162461bcd60e51b8152602060048201526024808201527f6e656564206f766572206d696e696d756d566f74696e67506572696f645365636044820152636f6e647360e01b6064820152608490fd5b60001981146138c35760010190565b80518210156110675760209160051b010190565b6040519061412b8261170a565b60048252633bc3556560e21b6020830152565b6040519061414b8261170a565b60048252630f52bba760e41b6020830152565b6040519061416b8261170a565b60048252637c24048d60e11b6020830152565b1561418557565b60405162461bcd60e51b815260206004820152602c60248201527f53746f726167655374617465436f6d6d69747465653a204167656e64614d616e60448201526b61676572206973207a65726f60a01b6064820152608490fd5b90816060910312610407578051916040602083015192015190565b919082039182116138c357565b60041115612fd757565b908152604081019291906004821015612fd75760200152565b9081526040810192919060209061424083612fcd565b0152565b60409061064e94928152816020820152019161341d565b9190826040910312610407576020825192015161064e816134ed565b60025461428c906001600160a01b0316610a40565b6040805163e3bc145f60e01b815260049392919060209081818781875afa8015610842578591600091614522575b501115614515578151636f35e9c360e11b81528581018581528290829081906020010381875afa908115610842576000916144f8575b5042106144eb57815163334bbf3560e01b81528581018581528290829081906020010381875afa918215610842576000926144ce575b505080156144c45742111561446357805190635772521560e11b825260608280614357878983019190602083019252565b0381865afa9384156108425760009384938596614439575b50600a54948511156143a55750505081111561439a5711156143915790600590565b50600390600590565b505050600290600590565b82516335e555af60e11b81528088019283529697969295509193508492508391908290819060200103915afa908115610842576000928392614408575b5050156143f6576143f281612fcd565b9190565b90915061440281612fcd565b90600390565b61442b935080919250903d10614432575b6144238183611740565b81019061425b565b38806143e2565b503d614419565b919450945061445791925060603d8111610dce57610dbe8183611740565b9291939092943861436f565b80516335e555af60e11b81529384019283529291839183918290819060200103915afa918215610842576000926144a6575b50506144a081612fcd565b90600290565b6144bc9250803d10614432576144238183611740565b503880614495565b5050505090600290565b6144e49250803d1061169f576116908183611740565b3880614326565b5050505050600090600190565b61450f9150823d841161169f576116908183611740565b386142f0565b5050505050600590600690565b6145399150833d851161169f576116908183611740565b386142ba565b1561454657565b60405162461bcd60e51b815260206004820152602860248201527f44414f436f6d6d69747465653a2063616e206e6f74206578656375746520746860448201526765206167656e646160c01b6064820152608490fd5b6001600160401b0381116116d75760051b60200190565b9080601f83011215610407578151916145cb8361459c565b926040906145db82519586611740565b808552602093848087019260051b8501019381851161040757858101925b85841061460a575050505050505090565b83516001600160401b0381116104075782019083603f8301121561040757878201519061463682611770565b61464288519182611740565b82815285888486010111610407576146638a949385948a8685019101611e0d565b8152019301926145f9565b9190916080818403126104075780516001600160401b03908181116104075782019380601f860112156104075784516146a68161459c565b906146b46040519283611740565b808252602096878084019260051b820101918483116104075788809201905b838210614709575050505094830151918211610407576146f49183016145b3565b916060614703604084016134f7565b92015190565b8280918351614717816104ba565b8152019101906146d3565b3d1561474d573d9061473382611770565b916147416040519384611740565b82523d6000602084013e565b606090565b1561475957565b60405162461bcd60e51b815260206004820152602a60248201527f44414f436f6d6d69747465653a204661696c656420746f206578656375746520604482015269746865206167656e646160b01b6064820152608490fd5b90815180825260208080930193019160005b8281106147d1575050505090565b83516001600160a01b0316855293810193928101926001016147c3565b90602061064e9281815201906147b1565b1561480657565b60405162461bcd60e51b815260206004820152602b60248201527f44414f436f6d6d69747465653a20796f7520646f6e2774206861766520636c6160448201526a34b6b0b13632903bba37b760a91b6064820152608490fd5b90633b9aca00918281029281840414901517156138c357565b818102929181159184041417156138c357565b35906001600160801b038216820361040757565b359061176e826134ed565b81601f82011215610407578035906148c18261459c565b926040926148d184519586611740565b808552602093848087019260051b8501019383851161040757858101925b858410614900575050505050505090565b83356001600160401b03811161040757820185603f820112156104075787916149318783878680960135910161178b565b8152019301926148ef565b91909160405161494b816116bc565b60608152602081016000908181526040830193828552606084019483865260808501916060835260a086019660608852869982019560c083880312612cdf576001600160401b0394833586811161263e5784019988601f8c01121561263e578a359a6149b68c61459c565b9b6040519c6149c5908e611740565b808d5260208d019060051b8201602001918b8311614a9057602001905b828210614a76575050506149f86020860161488b565b98614a056040870161488b565b97614a126060880161489f565b966080810135828111614a725783614a2b9183016148aa565b9560a0820135928311612cdf575092614a57614a619693614a6f9d9c9b999693614a619b9996016117c2565b9052529015159052565b906001600160801b03169052565b52565b8680fd5b602080918335614a85816104ba565b8152019101906149e2565b8580fd5b604051906bffffffffffffffffffffffff199060601b1660208201526014815261064e8161170a565b15614ac457565b60405162461bcd60e51b815260206004820152602560248201527f44414f436f6d6d69747465653a20696e76616c6964206c617965723220636f6e6044820152641d1c9858dd60da1b6064820152608490fd5b15614b1e57565b60405162461bcd60e51b815260206004820152601e60248201527f44414f436f6d6d69747465653a20696e76616c6964206f70657261746f7200006044820152606490fd5b9294936080929161346f60018060a01b03938480931687526001602088015260a0604088015260a0870190611e30565b9290939160018060a01b0396876002541696614bb088151561417e565b6040518098632522a32f60e01b825281600460209b8c935afa8015610842578692614c1e87928c94600091614d1c575b50600054614c04908290614bfc906001600160a01b0316610a40565b8d3091614f6d565b600054614c19906001600160a01b0316610a40565b614f28565b8560008b614c57614c39610a4060025460018060a01b031690565b94604051988997889687956304a091b760e31b875260048701614d39565b03925af197881561084257600098614cc7575b5050927fcd47bcad760e912d146723a314cc78b8570ee76ec8bdd4b60335087f6c2f47d79492614cc192614cb3899a96614cae8b600052601a602052604060002090565b614e23565b604051958695169785614ef1565b0390a390565b614cb3999592985092614d0d7fcd47bcad760e912d146723a314cc78b8570ee76ec8bdd4b60335087f6c2f47d797959285614cc196903d1061169f576116908183611740565b98929599509281949650614c6a565b614d339150853d871161169f576116908183611740565b38614be0565b91929390614d4f9060a0845260a08401906147b1565b936001600160801b03908160209516858501521660408301521515606082015260808184039101528251908183528083019281808460051b8301019501936000915b848310614da15750505050505090565b9091929394958480614dbf600193601f198682030187528a51611e30565b9801930193019194939290614d91565b90601f8111614ddd57505050565b600091825260208220906020601f850160051c83019410614e19575b601f0160051c01915b828110614e0e57505050565b818155600101614e02565b9092508290614df9565b91909182516001600160401b0381116116d757614e4a81614e448454612d93565b84614dcf565b602080601f8311600114614e86575081929394600092614e7b575b50508160011b916000199060031b1c1916179055565b015190503880614e65565b90601f19831695614e9c85600052602060002090565b926000905b888210614ed957505083600195969710614ec0575b505050811b019055565b015160001960f88460031b161c19169055388080614eb6565b80600185968294968601518155019501930190614ea1565b9294939091614f0a6060936080865260808601906147b1565b956001600160801b0380921660208601521660408401521515910152565b906040519063a9059cbb60e01b60208301526001602483015260448201526044815260808101918183106001600160401b038411176116d75761176e92604052614fb1565b6040516323b872dd60e01b60208201526001600160a01b03928316602482015292909116604483015260648083019390935291815261176e91614fb1608483611740565b60405161500f916001600160a01b0316614fca8261170a565b6000806020958685527f5361666545524332303a206c6f772d6c6576656c2063616c6c206661696c656487860152868151910182855af1615009614722565b91615097565b80519082821592831561507f575b505050156150285750565b6084906040519062461bcd60e51b82526004820152602a60248201527f5361666545524332303a204552433230206f7065726174696f6e20646964206e6044820152691bdd081cdd58d8d9595960b21b6064820152fd5b61508f9350820181019101613502565b38828161501d565b919290156150f957508151156150ab575090565b3b156150b45790565b60405162461bcd60e51b815260206004820152601d60248201527f416464726573733a2063616c6c20746f206e6f6e2d636f6e74726163740000006044820152606490fd5b82519091501561510c5750805190602001fd5b60405162461bcd60e51b815290819061162f9060048301611e55565b6001600160a01b0390811660009081526009602052604090205416801561527057604051906020828180809501916301ffc9a760e01b928381528360248301526024825261517582611725565b60009687809351617530938985fa933d83519086615265575b508561525b575b50846151fd575b50505050806151ee575b156151e9578060049260405193848092631dffc87160e21b82525afa92831561084257926151d357505090565b61064e9250803d106108985761088a8183611740565b505090565b506151f882615276565b6151a6565b90919293508560405185810192835263ffffffff60e01b60248201526024815261522681611725565b5192fa8351823d83615250575b505081615246575b50158184388061519c565b905015153861523b565b101591508238615233565b1515945038615195565b85111595503861518e565b50600090565b6000602091604051838101906301ffc9a760e01b8252631dffc87160e21b6024820152602481526152a681611725565b5191617530fa6000513d826152c7575b50816152c0575090565b9050151590565b602011159150386152b6565b156152da57565b60405162461bcd60e51b815260206004820152601f60248201527f54686973206163636f756e74206973206e6f7420612063616e646964617465006044820152606490fd5b6004906020906001600160a01b03166153398115156152d3565b6040516340bd8e6960e11b815292839182905afa9081156108425760009161535f575090565b61064e915060203d811161169f576116908183611740565b6001600160a01b0390811691602091906024906153958515156152d3565b604051948593849263af500ba360e01b84521660048301525afa9081156108425760009161535f575090565b6001600160a01b031660009081526009602052604090206002810154608081901c916001600160801b03918216919082615406575b50505061064e90600b5490614878565b600301541680821115615433575061542b9061542661064e9342906138b6565b6141fa565b9038806153f6565b90504282018092116138c35781039081116138c35761064e9061542b565b9060405161545e816116ef565b6080819360018060a01b0381541683526001810154602084015260036002820154916001600160801b03928381166040870152841c6060860152015416910152565b6001600160a01b03811660009081526009602052604090206154c190615451565b6001600160a01b03821660009081526017602052604090206154e2906109d9565b15615609575060055461550190610a409081906001600160a01b031681565b604051634c063c1960e01b81526001600160a01b0383166004820152602092918390829060249082905afa908115610842576000916155ec575b5060405163570ca73560e01b81526001600160a01b039284908290600490829087165afa9182156108425784926155a1926000916155cf575b506040516370a0823160e01b81526001600160a01b03909116600482015293849283919082906024820190565b0392165afa918215610842576000926155b957505090565b61064e9250803d1061169f576116908183611740565b6155e69150843d8611610e2b57610e198183611740565b38615574565b6156039150833d8511610e2b57610e198183611740565b3861553b565b9061566b9161563961562b610a40610a40610a4060055460018060a01b031690565b91516001600160a01b031690565b604051634c063c1960e01b81526001600160a01b03909116600482015260209390918491839190829081906024820190565b03915afa918215610842576156b1928492600091612a9157506040516370a0823160e01b81526001600160a01b0390921660048301529092839190829081906024820190565b03916001600160a01b03165afa918215610842576000926155b957505090565b156156d857565b60405162461bcd60e51b8152602060048201526011602482015270736c6963655f6f75744f66426f756e647360781b6044820152606490fd5b61571f6004825110156156d1565b6040519060048083019101600883015b80831061574957505060048252601f01601f191660405290565b909182518152602080910192019061572f565b61576a6024825110156156d1565b604051906014820190602401602883015b80831061579557505060148252601f01601f191660405290565b909182518152602080910192019061577b565b600191815191815183146001146157c25750505050600090565b8360208080958185019401019301915b60028285831001146157e657505050505090565b82518151036157fb575b9184019184016157d2565b600095508591506157f056fefa0761008653bc7bf9fa040fb7e07672ad3e17a976eb452c44e81dd782a6214b13649b2456f1b42fef0f0040b3aaeabcd21a76a0f3f5defd4f583839455116e9a164736f6c6343000813000a",
  "linkReferences": {},
  "deployedLinkReferences": {}
}