{
  "_format": "hh-sol-artifact-1",
  "contractName": "DAOCommittee_V1",
  "sourceName": "contracts/dao/DAOCommittee_V1.sol",
  "abi": [
    {
      "inputs": [],
      "name": "ClaimTONError",
      "type": "error"
    },
    {
      "inputs": [],
      "name": "ClaimWTONError",
      "type": "error"
    },
    {
      "inputs": [
        {
          "internalType": "uint256",
          "name": "x",
          "type": "uint256"
        }
      ],
      "name": "CreateCandiateError",
      "type": "error"
    },
    {
      "inputs": [],
      "name": "PermissionError",
      "type": "error"
    },
    {
      "anonymous": false,
      "inputs": [
        {
          "indexed": true,
          "internalType": "address",
          "name": "from",
          "type": "address"
        },
        {
          "indexed": true,
          "internalType": "uint256",
          "name": "id",
          "type": "uint256"
        },
        {
          "indexed": false,
          "internalType": "address[]",
          "name": "targets",
          "type": "address[]"
        },
        {
          "indexed": false,
          "internalType": "uint128",
          "name": "noticePeriodSeconds",
          "type": "uint128"
        },
        {
          "indexed": false,
          "internalType": "uint128",
          "name": "votingPeriodSeconds",
          "type": "uint128"
        },
        {
          "indexed": false,
          "internalType": "bool",
          "name": "atomicExecute",
          "type": "bool"
        }
      ],
      "name": "AgendaCreated",
      "type": "event"
    },
    {
      "anonymous": false,
      "inputs": [
        {
          "indexed": true,
          "internalType": "uint256",
          "name": "id",
          "type": "uint256"
        },
        {
          "indexed": false,
          "internalType": "address[]",
          "name": "target",
          "type": "address[]"
        }
      ],
      "name": "AgendaExecuted",
      "type": "event"
    },
    {
      "anonymous": false,
      "inputs": [
        {
          "indexed": true,
          "internalType": "address",
          "name": "from",
          "type": "address"
        },
        {
          "indexed": true,
          "internalType": "uint256",
          "name": "id",
          "type": "uint256"
        },
        {
          "indexed": false,
          "internalType": "uint256",
          "name": "voting",
          "type": "uint256"
        },
        {
          "indexed": false,
          "internalType": "string",
          "name": "comment",
          "type": "string"
        }
      ],
      "name": "AgendaVoteCasted",
      "type": "event"
    },
    {
      "anonymous": false,
      "inputs": [
        {
          "indexed": true,
          "internalType": "address",
          "name": "candidate",
          "type": "address"
        },
        {
          "indexed": true,
          "internalType": "address",
          "name": "candidateContract",
          "type": "address"
        },
        {
          "indexed": false,
          "internalType": "string",
          "name": "memo",
          "type": "string"
        }
      ],
      "name": "CandidateContractCreated",
      "type": "event"
    },
    {
      "anonymous": false,
      "inputs": [
        {
          "indexed": true,
          "internalType": "uint256",
          "name": "slotIndex",
          "type": "uint256"
        },
        {
          "indexed": false,
          "internalType": "address",
          "name": "prevMember",
          "type": "address"
        },
        {
          "indexed": true,
          "internalType": "address",
          "name": "newMember",
          "type": "address"
        }
      ],
      "name": "ChangedMember",
      "type": "event"
    },
    {
      "anonymous": false,
      "inputs": [
        {
          "indexed": false,
          "internalType": "address",
          "name": "candidateContract",
          "type": "address"
        },
        {
          "indexed": false,
          "internalType": "string",
          "name": "newMemo",
          "type": "string"
        }
      ],
      "name": "ChangedMemo",
      "type": "event"
    },
    {
      "anonymous": false,
      "inputs": [
        {
          "indexed": true,
          "internalType": "address",
          "name": "candidate",
          "type": "address"
        },
        {
          "indexed": false,
          "internalType": "address",
          "name": "receiver",
          "type": "address"
        },
        {
          "indexed": false,
          "internalType": "uint256",
          "name": "amount",
          "type": "uint256"
        }
      ],
      "name": "ClaimedActivityReward",
      "type": "event"
    },
    {
      "anonymous": false,
      "inputs": [
        {
          "indexed": true,
          "internalType": "address",
          "name": "candidate",
          "type": "address"
        },
        {
          "indexed": true,
          "internalType": "address",
          "name": "candidateContract",
          "type": "address"
        },
        {
          "indexed": false,
          "internalType": "string",
          "name": "memo",
          "type": "string"
        }
      ],
      "name": "Layer2Registered",
      "type": "event"
    },
    {
      "anonymous": false,
      "inputs": [
        {
          "indexed": true,
          "internalType": "address",
          "name": "member",
          "type": "address"
        },
        {
          "indexed": false,
          "internalType": "uint256",
          "name": "timestamp",
          "type": "uint256"
        }
      ],
      "name": "MemberBlacklisted",
      "type": "event"
    },
    {
      "anonymous": false,
      "inputs": [
        {
          "indexed": true,
          "internalType": "bytes32",
          "name": "role",
          "type": "bytes32"
        },
        {
          "indexed": true,
          "internalType": "bytes32",
          "name": "previousAdminRole",
          "type": "bytes32"
        },
        {
          "indexed": true,
          "internalType": "bytes32",
          "name": "newAdminRole",
          "type": "bytes32"
        }
      ],
      "name": "RoleAdminChanged",
      "type": "event"
    },
    {
      "anonymous": false,
      "inputs": [
        {
          "indexed": true,
          "internalType": "bytes32",
          "name": "role",
          "type": "bytes32"
        },
        {
          "indexed": true,
          "internalType": "address",
          "name": "account",
          "type": "address"
        },
        {
          "indexed": true,
          "internalType": "address",
          "name": "sender",
          "type": "address"
        }
      ],
      "name": "RoleGranted",
      "type": "event"
    },
    {
      "anonymous": false,
      "inputs": [
        {
          "indexed": true,
          "internalType": "bytes32",
          "name": "role",
          "type": "bytes32"
        },
        {
          "indexed": true,
          "internalType": "address",
          "name": "account",
          "type": "address"
        },
        {
          "indexed": true,
          "internalType": "address",
          "name": "sender",
          "type": "address"
        }
      ],
      "name": "RoleRevoked",
      "type": "event"
    },
    {
      "inputs": [],
      "name": "DEFAULT_ADMIN_ROLE",
      "outputs": [
        {
          "internalType": "bytes32",
          "name": "",
          "type": "bytes32"
        }
      ],
      "stateMutability": "view",
      "type": "function"
    },
    {
      "inputs": [],
      "name": "activityRewardPerSecond",
      "outputs": [
        {
          "internalType": "uint256",
          "name": "",
          "type": "uint256"
        }
      ],
      "stateMutability": "view",
      "type": "function"
    },
    {
      "inputs": [],
      "name": "agendaManager",
      "outputs": [
        {
          "internalType": "contract IDAOAgendaManager",
          "name": "",
          "type": "address"
        }
      ],
      "stateMutability": "view",
      "type": "function"
    },
    {
      "inputs": [
        {
          "internalType": "address",
          "name": "",
          "type": "address"
        }
      ],
      "name": "aliveImplementation",
      "outputs": [
        {
          "internalType": "bool",
          "name": "",
          "type": "bool"
        }
      ],
      "stateMutability": "view",
      "type": "function"
    },
    {
      "inputs": [
        {
          "internalType": "address",
          "name": "_candidate",
          "type": "address"
        },
        {
          "internalType": "address",
          "name": "_account",
          "type": "address"
        }
      ],
      "name": "balanceOfOnCandidate",
      "outputs": [
        {
          "internalType": "uint256",
          "name": "amount",
          "type": "uint256"
        }
      ],
      "stateMutability": "view",
      "type": "function"
    },
    {
      "inputs": [
        {
          "internalType": "address",
          "name": "_candidateContract",
          "type": "address"
        },
        {
          "internalType": "address",
          "name": "_account",
          "type": "address"
        }
      ],
      "name": "balanceOfOnCandidateContract",
      "outputs": [
        {
          "internalType": "uint256",
          "name": "amount",
          "type": "uint256"
        }
      ],
      "stateMutability": "view",
      "type": "function"
    },
    {
      "inputs": [
        {
          "internalType": "address",
          "name": "",
          "type": "address"
        }
      ],
      "name": "blacklist",
      "outputs": [
        {
          "internalType": "bool",
          "name": "",
          "type": "bool"
        }
      ],
      "stateMutability": "view",
      "type": "function"
    },
    {
      "inputs": [],
      "name": "candidateAddOnFactory",
      "outputs": [
        {
          "internalType": "address",
          "name": "",
          "type": "address"
        }
      ],
      "stateMutability": "view",
      "type": "function"
    },
    {
      "inputs": [
        {
          "internalType": "address",
          "name": "_candidate",
          "type": "address"
        }
      ],
      "name": "candidateContract",
      "outputs": [
        {
          "internalType": "address",
          "name": "",
          "type": "address"
        }
      ],
      "stateMutability": "view",
      "type": "function"
    },
    {
      "inputs": [],
      "name": "candidateFactory",
      "outputs": [
        {
          "internalType": "contract ICandidateFactory",
          "name": "",
          "type": "address"
        }
      ],
      "stateMutability": "view",
      "type": "function"
    },
    {
      "inputs": [
        {
          "internalType": "address",
          "name": "_candidate",
          "type": "address"
        }
      ],
      "name": "candidateInfos",
      "outputs": [
        {
          "components": [
            {
              "internalType": "address",
              "name": "candidateContract",
              "type": "address"
            },
            {
              "internalType": "uint256",
              "name": "indexMembers",
              "type": "uint256"
            },
            {
              "internalType": "uint128",
              "name": "memberJoinedTime",
              "type": "uint128"
            },
            {
              "internalType": "uint128",
              "name": "rewardPeriod",
              "type": "uint128"
            },
            {
              "internalType": "uint128",
              "name": "claimedTimestamp",
              "type": "uint128"
            }
          ],
          "internalType": "struct StorageStateCommittee.CandidateInfo",
          "name": "",
          "type": "tuple"
        }
      ],
      "stateMutability": "view",
      "type": "function"
    },
    {
      "inputs": [
        {
          "internalType": "uint256",
          "name": "",
          "type": "uint256"
        }
      ],
      "name": "candidates",
      "outputs": [
        {
          "internalType": "address",
          "name": "",
          "type": "address"
        }
      ],
      "stateMutability": "view",
      "type": "function"
    },
    {
      "inputs": [],
      "name": "candidatesLength",
      "outputs": [
        {
          "internalType": "uint256",
          "name": "",
          "type": "uint256"
        }
      ],
      "stateMutability": "view",
      "type": "function"
    },
    {
      "inputs": [
        {
          "internalType": "uint256",
          "name": "_agendaID",
          "type": "uint256"
        },
        {
          "internalType": "uint256",
          "name": "_vote",
          "type": "uint256"
        },
        {
          "internalType": "string",
          "name": "_comment",
          "type": "string"
        }
      ],
      "name": "castVote",
      "outputs": [],
      "stateMutability": "nonpayable",
      "type": "function"
    },
    {
      "inputs": [
        {
          "internalType": "uint256",
          "name": "_memberIndex",
          "type": "uint256"
        }
      ],
      "name": "changeMember",
      "outputs": [
        {
          "internalType": "bool",
          "name": "",
          "type": "bool"
        }
      ],
      "stateMutability": "nonpayable",
      "type": "function"
    },
    {
      "inputs": [
        {
          "internalType": "address",
          "name": "_receiver",
          "type": "address"
        }
      ],
      "name": "claimActivityReward",
      "outputs": [],
      "stateMutability": "nonpayable",
      "type": "function"
    },
    {
      "inputs": [
        {
          "internalType": "address",
          "name": "",
          "type": "address"
        }
      ],
      "name": "cooldown",
      "outputs": [
        {
          "internalType": "uint256",
          "name": "",
          "type": "uint256"
        }
      ],
      "stateMutability": "view",
      "type": "function"
    },
    {
      "inputs": [],
      "name": "cooldownTime",
      "outputs": [
        {
          "internalType": "uint256",
          "name": "",
          "type": "uint256"
        }
      ],
      "stateMutability": "view",
      "type": "function"
    },
    {
      "inputs": [
        {
          "internalType": "string",
          "name": "_memo",
          "type": "string"
        }
      ],
      "name": "createCandidate",
      "outputs": [],
      "stateMutability": "nonpayable",
      "type": "function"
    },
    {
      "inputs": [
        {
          "internalType": "string",
          "name": "_memo",
          "type": "string"
        },
        {
          "internalType": "address",
          "name": "_operatorManagerAddress",
          "type": "address"
        }
      ],
      "name": "createCandidateAddOn",
      "outputs": [
        {
          "internalType": "address",
          "name": "",
          "type": "address"
        }
      ],
      "stateMutability": "nonpayable",
      "type": "function"
    },
    {
      "inputs": [
        {
          "internalType": "string",
          "name": "_memo",
          "type": "string"
        },
        {
          "internalType": "address",
          "name": "_operatorAddress",
          "type": "address"
        }
      ],
      "name": "createCandidateOwner",
      "outputs": [],
      "stateMutability": "nonpayable",
      "type": "function"
    },
    {
      "inputs": [
        {
          "internalType": "uint256",
          "name": "_agendaID",
          "type": "uint256"
        }
      ],
      "name": "currentAgendaStatus",
      "outputs": [
        {
          "internalType": "uint256",
          "name": "agendaResult",
          "type": "uint256"
        },
        {
          "internalType": "uint256",
          "name": "agendaStatus",
          "type": "uint256"
        }
      ],
      "stateMutability": "view",
      "type": "function"
    },
    {
      "inputs": [],
      "name": "daoVault",
      "outputs": [
        {
          "internalType": "contract IDAOVault",
          "name": "",
          "type": "address"
        }
      ],
      "stateMutability": "view",
      "type": "function"
    },
    {
      "inputs": [
        {
          "internalType": "uint256",
          "name": "_agendaID",
          "type": "uint256"
        }
      ],
      "name": "executeAgenda",
      "outputs": [],
      "stateMutability": "nonpayable",
      "type": "function"
    },
    {
      "inputs": [
        {
          "internalType": "address",
          "name": "_candidate",
          "type": "address"
        }
      ],
      "name": "getClaimableActivityReward",
      "outputs": [
        {
          "internalType": "uint256",
          "name": "",
          "type": "uint256"
        }
      ],
      "stateMutability": "view",
      "type": "function"
    },
    {
      "inputs": [
        {
          "internalType": "address",
          "name": "_oldCandidate",
          "type": "address"
        }
      ],
      "name": "getOldCandidateInfos",
      "outputs": [
        {
          "components": [
            {
              "internalType": "address",
              "name": "candidateContract",
              "type": "address"
            },
            {
              "internalType": "address",
              "name": "newCandidate",
              "type": "address"
            },
            {
              "internalType": "uint256",
              "name": "indexMembers",
              "type": "uint256"
            },
            {
              "internalType": "uint128",
              "name": "memberJoinedTime",
              "type": "uint128"
            },
            {
              "internalType": "uint128",
              "name": "rewardPeriod",
              "type": "uint128"
            },
            {
              "internalType": "uint128",
              "name": "claimedTimestamp",
              "type": "uint128"
            }
          ],
          "internalType": "struct StorageStateCommitteeV2.CandidateInfo2",
          "name": "",
          "type": "tuple"
        }
      ],
      "stateMutability": "view",
      "type": "function"
    },
    {
      "inputs": [
        {
          "internalType": "bytes32",
          "name": "role",
          "type": "bytes32"
        }
      ],
      "name": "getRoleAdmin",
      "outputs": [
        {
          "internalType": "bytes32",
          "name": "",
          "type": "bytes32"
        }
      ],
      "stateMutability": "view",
      "type": "function"
    },
    {
      "inputs": [
        {
          "internalType": "bytes32",
          "name": "role",
          "type": "bytes32"
        },
        {
          "internalType": "uint256",
          "name": "index",
          "type": "uint256"
        }
      ],
      "name": "getRoleMember",
      "outputs": [
        {
          "internalType": "address",
          "name": "",
          "type": "address"
        }
      ],
      "stateMutability": "view",
      "type": "function"
    },
    {
      "inputs": [
        {
          "internalType": "bytes32",
          "name": "role",
          "type": "bytes32"
        }
      ],
      "name": "getRoleMemberCount",
      "outputs": [
        {
          "internalType": "uint256",
          "name": "",
          "type": "uint256"
        }
      ],
      "stateMutability": "view",
      "type": "function"
    },
    {
      "inputs": [
        {
          "internalType": "bytes32",
          "name": "role",
          "type": "bytes32"
        },
        {
          "internalType": "address",
          "name": "account",
          "type": "address"
        }
      ],
      "name": "grantRole",
      "outputs": [],
      "stateMutability": "nonpayable",
      "type": "function"
    },
    {
      "inputs": [
        {
          "internalType": "bytes32",
          "name": "role",
          "type": "bytes32"
        },
        {
          "internalType": "address",
          "name": "account",
          "type": "address"
        }
      ],
      "name": "hasRole",
      "outputs": [
        {
          "internalType": "bool",
          "name": "",
          "type": "bool"
        }
      ],
      "stateMutability": "view",
      "type": "function"
    },
    {
      "inputs": [
        {
          "internalType": "address",
          "name": "_candidate",
          "type": "address"
        }
      ],
      "name": "isCandidate",
      "outputs": [
        {
          "internalType": "bool",
          "name": "",
          "type": "bool"
        }
      ],
      "stateMutability": "view",
      "type": "function"
    },
    {
      "inputs": [
        {
          "internalType": "address",
          "name": "_candidate",
          "type": "address"
        }
      ],
      "name": "isExistCandidate",
      "outputs": [
        {
          "internalType": "bool",
          "name": "isExist",
          "type": "bool"
        }
      ],
      "stateMutability": "view",
      "type": "function"
    },
    {
      "inputs": [
        {
          "internalType": "address",
          "name": "_candidate",
          "type": "address"
        }
      ],
      "name": "isMember",
      "outputs": [
        {
          "internalType": "bool",
          "name": "",
          "type": "bool"
        }
      ],
      "stateMutability": "view",
      "type": "function"
    },
    {
      "inputs": [],
      "name": "layer2Manager",
      "outputs": [
        {
          "internalType": "address",
          "name": "",
          "type": "address"
        }
      ],
      "stateMutability": "view",
      "type": "function"
    },
    {
      "inputs": [],
      "name": "layer2Registry",
      "outputs": [
        {
          "internalType": "contract ILayer2Registry",
          "name": "",
          "type": "address"
        }
      ],
      "stateMutability": "view",
      "type": "function"
    },
    {
      "inputs": [],
      "name": "maxMember",
      "outputs": [
        {
          "internalType": "uint256",
          "name": "",
          "type": "uint256"
        }
      ],
      "stateMutability": "view",
      "type": "function"
    },
    {
      "inputs": [
        {
          "internalType": "uint256",
          "name": "",
          "type": "uint256"
        }
      ],
      "name": "members",
      "outputs": [
        {
          "internalType": "address",
          "name": "",
          "type": "address"
        }
      ],
      "stateMutability": "view",
      "type": "function"
    },
    {
      "inputs": [
        {
          "internalType": "address",
          "name": "owner",
          "type": "address"
        },
        {
          "internalType": "address",
          "name": "",
          "type": "address"
        },
        {
          "internalType": "uint256",
          "name": "",
          "type": "uint256"
        },
        {
          "internalType": "bytes",
          "name": "data",
          "type": "bytes"
        }
      ],
      "name": "onApprove",
      "outputs": [
        {
          "internalType": "bool",
          "name": "",
          "type": "bool"
        }
      ],
      "stateMutability": "nonpayable",
      "type": "function"
    },
    {
      "inputs": [
        {
          "internalType": "address",
          "name": "layer2",
          "type": "address"
        },
        {
          "internalType": "address",
          "name": "operator",
          "type": "address"
        }
      ],
      "name": "operatorAmountCheck",
      "outputs": [
        {
          "internalType": "uint256",
          "name": "operatorAmount",
          "type": "uint256"
        }
      ],
      "stateMutability": "view",
      "type": "function"
    },
    {
      "inputs": [
        {
          "internalType": "address",
          "name": "candidate",
          "type": "address"
        }
      ],
      "name": "operatorCheck",
      "outputs": [
        {
          "internalType": "uint256",
          "name": "operatorAmount",
          "type": "uint256"
        }
      ],
      "stateMutability": "view",
      "type": "function"
    },
    {
      "inputs": [],
      "name": "pauseProxy",
      "outputs": [
        {
          "internalType": "bool",
          "name": "",
          "type": "bool"
        }
      ],
      "stateMutability": "view",
      "type": "function"
    },
    {
      "inputs": [
        {
          "internalType": "address",
          "name": "",
          "type": "address"
        }
      ],
      "name": "privateLayer2",
      "outputs": [
        {
          "internalType": "bool",
          "name": "",
          "type": "bool"
        }
      ],
      "stateMutability": "view",
      "type": "function"
    },
    {
      "inputs": [
        {
          "internalType": "uint256",
          "name": "",
          "type": "uint256"
        }
      ],
      "name": "proxyImplementation",
      "outputs": [
        {
          "internalType": "address",
          "name": "",
          "type": "address"
        }
      ],
      "stateMutability": "view",
      "type": "function"
    },
    {
      "inputs": [],
      "name": "quorum",
      "outputs": [
        {
          "internalType": "uint256",
          "name": "",
          "type": "uint256"
        }
      ],
      "stateMutability": "view",
      "type": "function"
    },
    {
      "inputs": [
        {
          "internalType": "address",
          "name": "_operator",
          "type": "address"
        },
        {
          "internalType": "address",
          "name": "_layer2",
          "type": "address"
        },
        {
          "internalType": "string",
          "name": "_memo",
          "type": "string"
        }
      ],
      "name": "registerLayer2CandidateByOwner",
      "outputs": [],
      "stateMutability": "nonpayable",
      "type": "function"
    },
    {
      "inputs": [
        {
          "internalType": "address",
          "name": "_candidate",
          "type": "address"
        }
      ],
      "name": "removeFromBlacklist",
      "outputs": [],
      "stateMutability": "nonpayable",
      "type": "function"
    },
    {
      "inputs": [
        {
          "internalType": "bytes32",
          "name": "role",
          "type": "bytes32"
        },
        {
          "internalType": "address",
          "name": "account",
          "type": "address"
        }
      ],
      "name": "renounceRole",
      "outputs": [],
      "stateMutability": "nonpayable",
      "type": "function"
    },
    {
      "inputs": [],
      "name": "retireMember",
      "outputs": [
        {
          "internalType": "bool",
          "name": "",
          "type": "bool"
        }
      ],
      "stateMutability": "nonpayable",
      "type": "function"
    },
    {
      "inputs": [
        {
          "internalType": "bytes32",
          "name": "role",
          "type": "bytes32"
        },
        {
          "internalType": "address",
          "name": "account",
          "type": "address"
        }
      ],
      "name": "revokeRole",
      "outputs": [],
      "stateMutability": "nonpayable",
      "type": "function"
    },
    {
      "inputs": [],
      "name": "seigManager",
      "outputs": [
        {
          "internalType": "contract ISeigManager",
          "name": "",
          "type": "address"
        }
      ],
      "stateMutability": "view",
      "type": "function"
    },
    {
      "inputs": [
        {
          "internalType": "bytes4",
          "name": "",
          "type": "bytes4"
        }
      ],
      "name": "selectorImplementation",
      "outputs": [
        {
          "internalType": "address",
          "name": "",
          "type": "address"
        }
      ],
      "stateMutability": "view",
      "type": "function"
    },
    {
      "inputs": [
        {
          "internalType": "uint256",
          "name": "_agendaID",
          "type": "uint256"
        },
        {
          "internalType": "uint256",
          "name": "_status",
          "type": "uint256"
        },
        {
          "internalType": "uint256",
          "name": "_result",
          "type": "uint256"
        }
      ],
      "name": "setAgendaStatus",
      "outputs": [],
      "stateMutability": "nonpayable",
      "type": "function"
    },
    {
      "inputs": [
        {
          "internalType": "address",
          "name": "_candidate",
          "type": "address"
        },
        {
          "internalType": "string",
          "name": "_memo",
          "type": "string"
        }
      ],
      "name": "setMemoOnCandidate",
      "outputs": [],
      "stateMutability": "nonpayable",
      "type": "function"
    },
    {
      "inputs": [
        {
          "internalType": "address",
          "name": "_candidateContract",
          "type": "address"
        },
        {
          "internalType": "string",
          "name": "_memo",
          "type": "string"
        }
      ],
      "name": "setMemoOnCandidateContract",
      "outputs": [],
      "stateMutability": "nonpayable",
      "type": "function"
    },
    {
      "inputs": [],
      "name": "ton",
      "outputs": [
        {
          "internalType": "address",
          "name": "",
          "type": "address"
        }
      ],
      "stateMutability": "view",
      "type": "function"
    },
    {
      "inputs": [
        {
          "internalType": "address",
          "name": "_candidate",
          "type": "address"
        }
      ],
      "name": "totalSupplyOnCandidate",
      "outputs": [
        {
          "internalType": "uint256",
          "name": "totalsupply",
          "type": "uint256"
        }
      ],
      "stateMutability": "view",
      "type": "function"
    },
    {
      "inputs": [
        {
          "internalType": "address",
          "name": "_candidateContract",
          "type": "address"
        }
      ],
      "name": "totalSupplyOnCandidateContract",
      "outputs": [
        {
          "internalType": "uint256",
          "name": "totalsupply",
          "type": "uint256"
        }
      ],
      "stateMutability": "view",
      "type": "function"
    },
    {
      "inputs": [
        {
          "internalType": "address",
          "name": "_candidate",
          "type": "address"
        }
      ],
      "name": "updateSeigniorage",
      "outputs": [
        {
          "internalType": "bool",
          "name": "",
          "type": "bool"
        }
      ],
      "stateMutability": "nonpayable",
      "type": "function"
    },
    {
      "inputs": [],
      "name": "wton",
      "outputs": [
        {
          "internalType": "address",
          "name": "",
          "type": "address"
        }
      ],
      "stateMutability": "view",
      "type": "function"
    }
  ],
  "bytecode": "0x60808060405234610016576154c9908161001c8239f35b600080fdfe6080604052600436101561001257600080fd5b60003560e01c806303e3c9ac146103d757806311f19e04146103d257806314d3535e146103cd57806316b5d5bd146103c857806316f7f982146103c35780631703a018146103be578063216f486b146103b9578063248a9ca3146103b457806324f99b1e146103af57806327fd92fd146103aa5780632e011c1e146103a55780632f2ff15d146103a05780633477ee2e1461039b57806336568abe1461039657806342414e77146103915780634273ca161461038c578063440b69ad146103875780634892afd31461038257806350d2a2761461037d578063537df3b614610378578063550d01a314610373578063561a1dab1461036e5780635903bd6c146103695780635a74b3b8146103645780635daf08ca1461035f5780635fba7a561461035a578063607cf7341461035557806363a8fd8914610350578063651d08cd1461034b5780636becff27146103465780636fb7f55814610341578063753628191461033c578063773b7f651461033757806378767d33146103325780637f3316361461032d578063805aca201461032857806389ea4300146103235780638d62d9491461031e5780639010d07c1461031957806391d14854146103145780639932e94c1461030f578063a217fddf1461030a578063a230c52414610305578063ad6675dc14610300578063b222e0c2146102fb578063b319c6b7146102f6578063b40525eb146102f1578063b5dd1158146102ec578063b84cabe2146102e7578063b911135f146102e2578063c4ef9c00146102dd578063c7cac42c146102d8578063ca15c873146102d3578063cc48b947146102ce578063cf2a239c146102c9578063d51b9e93146102c4578063d525f04f146102bf578063d547741f146102ba578063d71b8dc0146102b55763f9f92be4146102b057600080fd5b612deb565b612dc1565b612d03565b612cc7565b612ca0565b612c77565b612c4e565b612c22565b612bef565b6129ef565b6129bb565b6128ad565b612884565b612842565b612824565b6127e7565b6127a6565b61275b565b61273f565b612718565b6126c9565b612622565b6125f9565b612566565b612443565b612425565b6123fe565b6123e0565b6123b7565b61238e565b6121d1565b61217f565b612159565b612142565b611ef2565b611e97565b611e70565b611e47565b611dfb565b611db9565b611d06565b611cc1565b611a22565b611774565b6113ad565b61118f565b6110bf565b611064565b610f3a565b610e3b565b610e12565b6108db565b61087f565b610670565b610652565b610631565b6105e0565b6104ab565b61040a565b6103ec565b60009103126103e757565b600080fd5b346103e75760003660031901126103e7576020600854604051908152f35b346103e75760203660031901126103e75760043560085481101561044a576104346104469161370c565b60405190151581529081906020820190565b0390f35b60405162461bcd60e51b815260206004820152602260248201527f44414f436f6d6d69747465653a20696e76616c6964206d656d62657220696e646044820152610caf60f31b6064820152608490fd5b6001600160a01b038116036103e757565b346103e75760203660031901126103e7576104466004356104cb8161049a565b604061058661057660048360a081516104e38161166e565b60009181838093528260208201528285820152826060820152826080820152015260018060a01b038097168152600f602052206105418551966105258861166e565b8254811688526001830154166001600160a01b03166020880152565b60028101548587015260038101546001600160801b0381166060880152608090811c908701525b01546001600160801b031690565b6001600160801b031660a0840152565b519182918291909160a060c0820193600180831b03808251168452602082015116602084015260408101516040840152816001600160801b0391826060820151166060860152826080820151166080860152015116910152565b346103e75760003660031901126103e7576011546040516001600160a01b039091168152602090f35b60409060031901126103e7576004356106218161049a565b9060243561062e8161049a565b90565b346103e757602061064a61064436610609565b90614fec565b604051908152f35b346103e75760003660031901126103e7576020600a54604051908152f35b346103e7576020806003193601126103e757600254600435916001600160a01b03909116906106a0821515613f9a565b6040516377f28d5b60e01b8152600481018490528181602481865afa8015610822576106d491600091610852575b506142ca565b6040516373ba374560e01b815260048101849052600081602481865afa9283156108225760009384928591610827575b50610741575b847f785146be3266678a3f4ea454b310ff1f8c91d0ad9a7997bcd0619940d4d67fe661073c866040519182918261459c565b0390a2005b8094939192943b156103e757604051631b8c251960e11b815260048101859052906000908290602490829084905af1801561082257610809575b5060005b81518110156107d957806107cf6000806107ac61079f6107d49688613eda565b516001600160a01b031690565b6107b68589613eda565b5190828b83519301915af16107c96144d0565b50614500565b613ecb565b61077f565b5091925061073c90507f785146be3266678a3f4ea454b310ff1f8c91d0ad9a7997bcd0619940d4d67fe63861070a565b8061081661081c9261168e565b806103dc565b3861077b565b61324c565b9194905061084792503d8091833e61083f81836116f2565b81019061441c565b509193909138610704565b6108729150833d8511610878575b61086a81836116f2565b8101906132d2565b386106ce565b503d610860565b346103e75760203660031901126103e757600435600052600c6020526020600260406000200154604051908152f35b9181601f840112156103e7578235916001600160401b0383116103e757602083818601950101116103e757565b346103e75760603660031901126103e7576004803590602435906044356001600160401b0381116103e75761091390369083016108ae565b9060018060a01b0360028181541661092c811515613f9a565b6040928351630d90703f60e31b815260209283828a81335afa908115610822578a938593600093610dd3575b506109c46109c06109b96109c99361099f6109956109888960018060a01b03166000526009602052604060002090565b546001600160a01b031690565b9182163314613530565b6001600160a01b0316600090815260166020526040902090565b5460ff1690565b1590565b6135d9565b8651637e77eb2360e01b8152808b018d81526001600160a01b039093166020840152604083019490945283918290600090829060600103925af1801561082257610db5575b50508054610a2c906001600160a01b03165b6001600160a01b031690565b908251635772521560e11b815260608180610a4e8c8b83019190602083019252565b0381865afa801561082257600080928192610d82575b50600a5491818311610b705750508254929350610a8d926001600160a01b03169150610a209050565b90813b156103e7578251632b0a851b60e11b815286810189815260016020820152909260009184919082908490829060400103925af190811561082257610ae592610a2092610b5d575b50546001600160a01b031690565b803b156103e7578151633625b75960e21b815294850187815260036020820152600091869182908490829060400103925af19081156108225760008051602061547d83398151915294610b4592610b4a575b505b51928392339684614084565b0390a3005b80610816610b579261168e565b38610b37565b80610816610b6a9261168e565b38610ad7565b838311610c565750508254929350610b94926001600160a01b03169150610a209050565b90813b156103e7578251632b0a851b60e11b815286810189815260026020820152909260009184919082908490829060400103925af190811561082257610beb92610a2092610b5d5750546001600160a01b031690565b803b156103e7578151633625b75960e21b815294850187815260056020820152600091869182908490829060400103925af19081156108225760008051602061547d83398151915294610b4592610c43575b50610b39565b80610816610c509261168e565b38610c3d565b610c7f610c78610c708593610c6b8887613686565b613686565b600854614016565b8093613686565b109283610d6e575b505050610cab575b505060008051602061547d8339815191529350610b4590610b39565b813b156103e7578251632b0a851b60e11b815286810189815260036020820152909260009184919082908490829060400103925af190811561082257610d0192610a2092610b5d5750546001600160a01b031690565b803b156103e7578151633625b75960e21b815294850187815260056020820152600091869182908490829060400103925af19081156108225760008051602061547d83398151915294610b4592610d5b575b819250610c8f565b80610816610d689261168e565b38610d53565b610d79929350613686565b10388080610c87565b915050610da6915060603d8111610dae575b610d9e81836116f2565b810190613ffb565b909138610a64565b503d610d94565b81610dcb92903d106108785761086a81836116f2565b503880610a0e565b6109c99193506109c06109b9610e016109c493883d8a11610e0b575b610df981836116f2565b8101906131d8565b9593505050610958565b503d610def565b346103e75760003660031901126103e7576002546040516001600160a01b039091168152602090f35b346103e75760203660031901126103e757610446600435610e5b8161049a565b6040610eeb610edb60038360808151610e73816116a1565b60009181838093528260208201528285820152826060820152015260018060a01b038097168152600960205220845195610eac876116a1565b81541686526001810154602087015260028101546001600160801b0381168688015260801c6060870152610568565b6001600160801b03166080840152565b5191829182919091608060a082019360018060a01b03815116835260208101516020840152816001600160801b0391826040820151166040860152826060820151166060860152015116910152565b346103e75760403660031901126103e757602435600435610f5a8261049a565b600091818352600c60205260026040842001548352610f8c336040852060019160005201602052604060002054151590565b15610f9d57610f9a91612e2d565b80f35b60405162461bcd60e51b815260206004820152602f60248201527f416363657373436f6e74726f6c3a2073656e646572206d75737420626520616e60448201526e0818591b5a5b881d1bc819dc985b9d608a1b6064820152608490fd5b634e487b7160e01b600052603260045260246000fd5b6007548110156110475760076000527fa66cc928b5edb82af9bd49922954155ab7b0942694bea4ce44661d9a8736c6880190600090565b610ffa565b80548210156110475760005260206000200190600090565b346103e75760203660031901126103e7576004356006548110156103e75760066000527ff652222313e28459528d920b65115c16c04f3efc82aaedc97be59f3f377c0d3f01546040516001600160a01b039091168152602090f35b346103e75760403660031901126103e7576024356110dc8161049a565b336001600160a01b038216036110fa576110f890600435612e83565b005b60405162461bcd60e51b815260206004820152602f60248201527f416363657373436f6e74726f6c3a2063616e206f6e6c792072656e6f756e636560448201526e103937b632b9903337b91039b2b63360891b6064820152608490fd5b60406003198201126103e757600435906001600160401b0382116103e757611181916004016108ae565b909160243561062e8161049a565b346103e75761119d36611157565b60055491926001600160a01b03928316929091906111bc841515613052565b6111cb816004541615156130b2565b8060035416916111dc831515613114565b33600090815260008051602061549d83398151915260209081526040822054919788979195909286926112379291611215901515612ff5565b60405163732518fb60e11b8152998a93849283919030898e8c6004870161320e565b03925af195861561082257879661138a575b5061131690848488169761125e891515613258565b6112ad611269611713565b6001600160a01b03831681528b848201528b60408201528b60608201528b60808201526112a88760018060a01b03166000526009602052604060002090565b61334c565b6112b6856133c4565b6004546112cb906001600160a01b0316610a20565b6005546112e0906001600160a01b0316610a20565b604051635e58d38f60e11b81526001600160a01b03938416600482015292166024830152909384919082908c9082906044820190565b03925af1948515610822577f7cf8db18d9a5c7f44156bfabdbb59ac982a8a004e461ca1b87ee71a5cdfbc5ef9561136793611359928b9261136d575b50506132e7565b604051938493169583613428565b0390a380f35b6113839250803d106108785761086a81836116f2565b3880611352565b6113169196506113a690853d8711610e0b57610df981836116f2565b9590611249565b346103e75760803660031901126103e75760048035906113cc8261049a565b6113d760243561049a565b606435916001600160401b0383116103e7576113f961141793369084016108ae565b6000546001600160a01b03169491611412338714613d6e565b6146ea565b916114258351511515613dae565b6060830161143b6114368251151590565b613de8565b83515191611450608086019384515114613e34565b604094858101918061146984516001600160801b031690565b600254602090611481906001600160a01b0316610a20565b8a516371e1b0ab60e11b815293849182905afa908115610822576114b89260009261161f575b506001600160801b03161015613e73565b60018054909889916000906114d790610a20906001600160a01b031681565b9a5b61152c575b50505050611521959650611519611512611504602084519401516001600160801b031690565b93516001600160801b031690565b9351151590565b93519461494f565b505160018152602090f35b8451805182101561161957611548610a2061079f848f94613eda565b1461155d575b61155790613ecb565b826114d9565b61156f8189989796959c9a9951613eda565b5161157981615386565b61158a611584613eee565b8261541d565b1561159f578b516359e8ff4b60e11b81528d90fd5b6115b26115849d969798999a9b9d613f0e565b156115e95750906115e26115dd6109c0611557946115d86115d28861481a565b916153d1565b61541d565b613f4e565b905061154e565b6115fc91506115f6613f2e565b9061541d565b61160957611557906115e2565b895163cafae8ff60e01b81528490fd5b506114de565b6001600160801b0391925061164a9060203d8111611651575b61164281836116f2565b810190613470565b91906114a7565b503d611638565b634e487b7160e01b600052604160045260246000fd5b60c081019081106001600160401b0382111761168957604052565b611658565b6001600160401b03811161168957604052565b60a081019081106001600160401b0382111761168957604052565b604081019081106001600160401b0382111761168957604052565b606081019081106001600160401b0382111761168957604052565b90601f801991011681019081106001600160401b0382111761168957604052565b60405190611720826116a1565b565b6001600160401b03811161168957601f01601f191660200190565b92919261174982611722565b9161175760405193846116f2565b8294818452818301116103e7578281602093846000960137010152565b346103e75760603660031901126103e75760048035906117938261049a565b602435906117a08261049a565b6044356001600160401b0381116103e757366023820112156103e7576117cf903690602481850135910161173d565b33600090815260008051602061549d833981519152602090815260408083205492969195939192611801901515612ff5565b6005546001600160a01b03939084169061181c821515613052565b61182a8588541615156130b2565b84600354169661183b881515613114565b6001600160a01b0387811660009081526009602052604090205461186091161561317a565b8587169761186f891515613258565b845163220bbb4b60e21b81528a8184818d5afa801561082257611899918d91611a05575b50614843565b845163570ca73560e01b8152928a8484818d5afa801561082257886118cc928d968f936119e4575b50811691161461489d565b858b896118ee88519788968795869463732518fb60e11b86523092860161490e565b03925af1908115610822577f0f401d1bd976f5304ef9cfa87aeb24d777c0e205fb87bbae1dc0f0293ba7976a9561198b6119bb938b611367986119ae9582936119c5575b5082169b6119418d1515613258565b61195b61194c611713565b6001600160a01b039094168452565b8201528b868201528b60608201528b60808201526112a88360018060a01b03166000526009602052604060002090565b611994816133c4565b6001600160a01b0316600090815260176020526040902090565b805460ff19166001179055565b519182918261493e565b6119dd9193508d803d10610e0b57610df981836116f2565b9138611932565b829193506119fe90883d8a11610e0b57610df981836116f2565b92906118c1565b611a1c91508c8d3d106108785761086a81836116f2565b38611893565b346103e757611a3036611157565b601154611a45906001600160a01b0316610a20565b3303611caf57601254611a6290610a20906001600160a01b031681565b600554909390611a7a906001600160a01b0316610a20565b906040928351946337d5af5f60e01b8652602093848780611aa360049430878a8a898701613439565b03816000809c5af1968715610822578897611c90575b506001600160a01b0397878916958615611c73576001600160a01b03858116600090815260096020526040902054611af19116610a20565b611c5657611bac90611b42611b04611713565b6001600160a01b038c1681528483820152848b8201528460608201528460808201526112a88860018060a01b03166000526009602052604060002090565b611b4b866133c4565b83548190611b61906001600160a01b0316610a20565b600554611b76906001600160a01b0316610a20565b8b51635e58d38f60e11b81526001600160a01b03808f168983019081529216602083015294859291839188918391604090910190565b03925af19283156108225792611c39575b505015611c175750957f7cf8db18d9a5c7f44156bfabdbb59ac982a8a004e461ca1b87ee71a5cdfbc5ef91611bfc610446988751938493169583613428565b0390a3516001600160a01b0390911681529081906020820190565b855163e378c44560e01b815260039181019182529081906020010390fd5b0390fd5b611c4f9250803d106108785761086a81836116f2565b3880611bbd565b875163e378c44560e01b8152600281850190815281906020010390fd5b875163e378c44560e01b8152600181850190815281906020010390fd5b611ca8919750853d8711610e0b57610df981836116f2565b9538611ab9565b60405163a648679560e01b8152600490fd5b346103e75760203660031901126103e75760043563ffffffff60e01b81168091036103e7576000526015602052602060018060a01b0360406000205416604051908152f35b346103e75760203660031901126103e757600435611d238161049a565b33600090815260008051602061549d8339815191526020526040812054909190611d4e901515612ff5565b6001600160a01b03168082526016602052604082205460ff1615611d82578152601660205260408120805460ff1916905580f35b60405162461bcd60e51b815260206004820152600f60248201526e139bdd08189b1858dadb1a5cdd1959608a1b6044820152606490fd5b346103e75760203660031901126103e757600435611dd68161049a565b60018060a01b03166000526014602052602060ff604060002054166040519015158152f35b346103e75760203660031901126103e7576020611e3d600435611e1d8161049a565b6001600160a01b0390811660009081526009602052604090205416151590565b6040519015158152f35b346103e75760003660031901126103e7576001546040516001600160a01b039091168152602090f35b346103e75760203660031901126103e757602061064a600435611e928161049a565b615115565b346103e75760203660031901126103e7576004356007548110156103e75760076000527fa66cc928b5edb82af9bd49922954155ab7b0942694bea4ce44661d9a8736c68801546040516001600160a01b039091168152602090f35b346103e7576020806003193601126103e75760048035916001600160401b0383116103e757611f27611fa793369084016108ae565b6005546001600160a01b039081169592939190611f45871515613052565b611f538187541615156130b2565b82816003541697611f65891515613114565b33600090815260096020526040902054611f88906001600160a01b03161561317a565b60405163732518fb60e11b815295869182919030878b338e870161320e565b03816000809b5af19384156108225787946120e1575b508261203291851696611fd1881515613258565b8054611fe5906001600160a01b0316610a20565b60055487908b90611ffe906001600160a01b0316610a20565b60408051635e58d38f60e11b81526001600160a01b0394851696810196875291909316602086015295869485938492910190565b03925af19384156108225787611367946120787f7cf8db18d9a5c7f44156bfabdbb59ac982a8a004e461ca1b87ee71a5cdfbc5ef976120ad9584916120c4575b506132e7565b61208361194c611713565b8201526040808201899052606082018990526080820189905233600090815260096020522061334c565b6120b6336133c4565b604051918291339583613428565b6120db9150833d85116108785761086a81836116f2565b38612072565b6120329194506120fe8491823d8411610e0b57610df981836116f2565b949150611fbd565b9060406003198301126103e75760043561211f8161049a565b91602435906001600160401b0382116103e75761213e916004016108ae565b9091565b346103e7576110f861215336612106565b91613bec565b346103e75760003660031901126103e757602060ff600e5460a01c166040519015158152f35b346103e75760203660031901126103e75760206121bf6004356121a18161049a565b6001600160a01b039081166000908152600960205260409020541690565b6040516001600160a01b039091168152f35b346103e75760203660031901126103e7576004356121ee8161049a565b604051630d90703f60e31b8152602081600481335afa90811561082257600091612370575b506001600160a01b038181166000908152600960205260409020805461229d9190612251906109c4906109c0906109b990871661099f338214613530565b612298600261225f86615036565b9261226b8415156145ad565b6003810180546001600160801b031916426001600160801b0316179055016001600160801b038154169055565b61460d565b6001549092906122b5906001600160a01b0316610a20565b6010546001600160a01b03169390803b156103e757604051637c24048d60e11b81526001600160a01b0395861660048201529486166024860152604485018290526000908590606490829084905af1908115610822577fb15377c434dc1922cc2eb7d8950640960a05f0cf6d5dc9442de8414a9da2b3089461073c9261235d575b50604080516001600160a01b03909716875260208701919091529190921693918291820190565b8061081661236a9261168e565b38612336565b612388915060203d8111610e0b57610df981836116f2565b38612213565b346103e75760003660031901126103e7576005546040516001600160a01b039091168152602090f35b346103e75760003660031901126103e7576012546040516001600160a01b039091168152602090f35b346103e75760003660031901126103e7576020600654604051908152f35b346103e75760203660031901126103e757602061064a6004356124208161049a565b614f94565b346103e75760003660031901126103e7576020600b54604051908152f35b346103e75760603660031901126103e75733600090815260008051602061549d8339815191526020526040812054600435908290602435906044359061248a901515612ff5565b60025461249f906001600160a01b0316610a20565b906124a981614039565b813b156125625783916124d391604051958680948193632b0a851b60e11b83528a60048401614048565b03925af191821561082257849261254f575b506002546124fb906001600160a01b0316610a20565b61250482614061565b803b1561254b5761252c9383604051809681958294633625b75960e21b84526004840161406b565b03925af180156108225761253e575080f35b80610816610f9a9261168e565b8280fd5b8061081661255c9261168e565b386124e5565b8380fd5b346103e75760203660031901126103e757600060206004356125878161049a565b6001600160a01b039081168352600982526040808420549051633b253c2b60e11b8152938492600492849291165af1801561082257610446916000916125db575b5060405190151581529081906020820190565b6125f3915060203d81116108785761086a81836116f2565b386125c8565b346103e75760003660031901126103e7576010546040516001600160a01b039091168152602090f35b346103e75760403660031901126103e757602435600435600052600c6020526040600020908082541115612679576126599161104c565b905460405160039290921b1c6001600160a01b0316815280602081010390f35b60405162461bcd60e51b815260206004820152602260248201527f456e756d657261626c655365743a20696e646578206f7574206f6620626f756e604482015261647360f01b6064820152608490fd5b346103e75760403660031901126103e7576020611e3d6024356126eb8161049a565b6004356000908152600c845260408082206001600160a01b03909316825260019092016020522054151590565b346103e75760203660031901126103e757602061064a60043561273a8161049a565b615036565b346103e75760003660031901126103e757602060405160008152f35b346103e75760203660031901126103e7576004356127788161049a565b60018060a01b0316600052600960205260206001600160801b03600260406000200154161515604051908152f35b346103e75760203660031901126103e757602061064a6004356127c88161049a565b6001600160a01b03908116600090815260098452604090205416614f94565b346103e75760203660031901126103e7576004356128048161049a565b60018060a01b031660005260186020526020604060002054604051908152f35b346103e75760003660031901126103e7576020601954604051908152f35b346103e75760203660031901126103e75760043561285f8161049a565b60018060a01b03166000526017602052602060ff604060002054166040519015158152f35b346103e75760003660031901126103e7576003546040516001600160a01b039091168152602090f35b346103e7576129086128be36610609565b906128d9610a20610a20610a2060055460018060a01b031690565b604051634c063c1960e01b81526001600160a01b03909216600483015260209384918391829081906024820190565b03915afa9182156108225761294f92849260009161299e575b506040516370a0823160e01b81526001600160a01b0390921660048301529092839190829081906024820190565b03916001600160a01b03165afa9081156108225761044692600092612981575b50506040519081529081906020820190565b6129979250803d106116515761164281836116f2565b388061296f565b6129b59150833d8511610e0b57610df981836116f2565b38612921565b346103e75760203660031901126103e7576004356000526013602052602060018060a01b0360406000205416604051908152f35b346103e757600080600319360112612bec57604051630d90703f60e31b8152602081600481335afa908115610822578291612bce575b506001600160a01b03811660009081526009602052604090207f663b98adf1afa777e36528b3293a057803f87ed00d2d2518dccfe5d7a6e99ccf90612ba7909260028401612b5d6119ae61099f6001600160801b0397612a9889612a9087546001600160801b031690565b161515613b0c565b80546001600160a01b0395612b4a91612ab49088163314613530565b600183019a612adb612ac68d54611010565b81549060018060a01b039060031b1b19169055565b815460038501546001600160801b03168083168284161115612bb6575050612b1a612b3a91612b118454918083169042166136d8565b9060801c6136f1565b82546001600160801b031660809190911b6001600160801b031916178255565b80546001600160801b0319169055565b8854988a9055546001600160a01b031690565b604051428152908216907ff2f5dcb091f4d2c9dbd9481195a0713490b6db6f9df5dc695d1195b915769bc190602090a26040516001600160a01b0390911681529081906020820190565b0390a360405160018152602090f35b90612b11612b1a92612bc99442166136d8565b612b3a565b612be6915060203d8111610e0b57610df981836116f2565b38612a25565b80fd5b346103e7576110f8612c0036612106565b6001600160a01b03928316600090815260096020526040902054909216613bec565b346103e75760203660031901126103e757600435600052600c6020526020604060002054604051908152f35b346103e75760003660031901126103e7576000546040516001600160a01b039091168152602090f35b346103e75760003660031901126103e7576004546040516001600160a01b039091168152602090f35b346103e75760203660031901126103e7576020611e3d600435612cc28161049a565b614d9d565b346103e757602061064a612cfe612cdd36610609565b6001600160a01b039182166000908152600960205260409020549092911690565b614fec565b346103e75760403660031901126103e757602435600435612d238261049a565b600091818352600c60205260026040842001548352612d55336040852060019160005201602052604060002054151590565b15612d6357610f9a91612e83565b60405162461bcd60e51b815260206004820152603060248201527f416363657373436f6e74726f6c3a2073656e646572206d75737420626520616e60448201526f2061646d696e20746f207265766f6b6560801b6064820152608490fd5b346103e75760203660031901126103e7576040612ddf6004356140b7565b82519182526020820152f35b346103e75760203660031901126103e757600435612e088161049a565b60018060a01b03166000526016602052602060ff604060002054166040519015158152f35b6000818152600c6020526040902090916001600160a01b031690612e52908290612ed9565b612e5a575050565b33917f2f8788117e7eff1d82e926ec794901d17c78024a50270940304540a733656f0d600080a4565b6000818152600c6020526040902090916001600160a01b031690612ea8908290612f47565b612eb0575050565b33917ff6391f5c32d9c69d2a47ea670b442974b53935d1edc7fd64eb21e047a839171b600080a4565b6000828152600182016020526040902054612f4057805490600160401b8210156116895782612f29612f1284600180960185558461104c565b819391549060031b91821b91600019901b19161790565b905580549260005201602052604060002055600190565b5050600090565b6000828152600182016020819052604082205492949391928015612fed5760001990612f76828854018861104c565b90549060031b1c80612f8d612f128585018b61104c565b905585528260205260408520558554958615612fd95781612fd39596970191612fb6838361104c565b909182549160031b1b191690555590600052602052604060002090565b55600190565b634e487b7160e01b85526031600452602485fd5b509193505050565b15612ffc57565b60405162461bcd60e51b815260206004820152602860248201527f44414f436f6d6d69747465653a206d73672e73656e646572206973206e6f742060448201526730b71030b236b4b760c11b6064820152608490fd5b1561305957565b60405162461bcd60e51b815260206004820152602b60248201527f53746f726167655374617465436f6d6d69747465653a20696e76616c6964205360448201526a6569674d616e616765726560a81b6064820152608490fd5b156130b957565b60405162461bcd60e51b815260206004820152602d60248201527f53746f726167655374617465436f6d6d69747465653a20696e76616c6964204c60448201526c6179657232526567697374727960981b6064820152608490fd5b1561311b57565b60405162461bcd60e51b815260206004820152603160248201527f53746f726167655374617465436f6d6d69747465653a20696e76616c696420436044820152706f6d6d69747465654c32466163746f727960781b6064820152608490fd5b1561318157565b60405162461bcd60e51b815260206004820152602960248201527f44414f436f6d6d69747465653a2063616e64696461746520616c7265616479206044820152681c9959da5cdd195c9960ba1b6064820152608490fd5b908160209103126103e7575161062e8161049a565b908060209392818452848401376000828201840152601f01601f1916010190565b9395949061323f6080949360018060a01b03948580941688526000602089015260a0604089015260a08801916131ed565b9616606085015216910152565b6040513d6000823e3d90fd5b1561325f57565b60405162461bcd60e51b815260206004820152603060248201527f44414f436f6d6d69747465653a206465706c6f7965642063616e64696461746560448201526f436f6e7472616374206973207a65726f60801b6064820152608490fd5b801515036103e757565b5190611720826132bd565b908160209103126103e7575161062e816132bd565b156132ee57565b60405162461bcd60e51b815260206004820152603060248201527f44414f436f6d6d69747465653a206661696c656420746f20726567697374657260448201526f416e644465706c6f79436f696e61676560801b6064820152608490fd5b815181546001600160a01b0319166001600160a01b0390911617815560208201516001820155604082015160608301516001600160801b039182166001600160801b0319608092831b1617600284015561172093600392910151169101906001600160801b03166001600160801b0319825416179055565b600654600160401b8110156116895760018101806006558110156110475760066000527ff652222313e28459528d920b65115c16c04f3efc82aaedc97be59f3f377c0d3f0180546001600160a01b0319166001600160a01b03909216919091179055565b91602061062e9381815201916131ed565b939594906134636060949360018060a01b03948580941688526080602089015260808801916131ed565b9616604085015216910152565b908160209103126103e7575190565b1561348657565b60405162461bcd60e51b815260206004820152601960248201527f6e656564206d6f7265206f70657261746f724465706f736974000000000000006044820152606490fd5b156134d257565b60405162461bcd60e51b815260206004820152603060248201527f44414f436f6d6d69747465653a2073656e646572206973206e6f74206120636160448201526f1b991a59185d194818dbdb9d1c9858dd60821b6064820152608490fd5b1561353757565b60405162461bcd60e51b815260206004820152602860248201527f44414f436f6d6d69747465653a20696e76616c69642063616e6469646174652060448201526718dbdb9d1c9858dd60c21b6064820152608490fd5b1561359457565b60405162461bcd60e51b815260206004820152601b60248201527f44414f436f6d6d69747465653a206e65656420636f6f6c646f776e00000000006044820152606490fd5b156135e057565b606460405162461bcd60e51b815260206004820152602060248201527f44414f436f6d6d69747465653a20626c61636b6c6973746564206d656d6265726044820152fd5b1561362b57565b60405162461bcd60e51b815260206004820152601c60248201527f44414f436f6d6d69747465653a20616c7265616479206d656d626572000000006044820152606490fd5b634e487b7160e01b600052601160045260246000fd5b9190820180921161369357565b613670565b1561369f57565b60405162461bcd60e51b81526020600482015260116024820152701b9bdd08195b9bdd59da08185b5bdd5b9d607a1b6044820152606490fd5b6001600160801b03918216908216039190821161369357565b9190916001600160801b038080941691160191821161369357565b6040908151630d90703f60e31b81526020908181600481335afa90811561082257600091613aef575b50600461374182615115565b600554849061375c90610a209081906001600160a01b031681565b8751631761905360e31b815293849182905afa9081156108225761378a92600092613ad0575b50101561347f565b6001600160a01b0381166000908152600960205260409020908451631dffc87160e21b81528381600481335afa8015610822576137cf91600091613ab3575b506134cb565b81546001600160a01b03929061381c906109c4906109c0906109b99087166137f8338214613530565b6001600160a01b038116600090815260186020526040902061099f9054421161358d565b60028101956001600160801b036138458161383e8a546001600160801b031690565b1615613624565b61386661385188611010565b905460039190911b1c6001600160a01b031690565b976138866109888a60018060a01b03166000526009602052604060002090565b936138aa8342168093906001600160801b03166001600160801b0319825416179055565b8860018201556138ea6138d06138c260195442613686565b92546001600160a01b031690565b6001600160a01b0316600090815260186020526040902090565b55613917856138f88a611010565b90919082549060031b9160018060a01b03809116831b921b1916179055565b85891615613a735782516340bd8e6960e11b80825292908881600481335afa9586156108225788948a92600098613a51575b50600490875196879384928352165afa978815610822577f663b98adf1afa777e36528b3293a057803f87ed00d2d2518dccfe5d7a6e99ccf98613a18966139fd9561399e93600093613a32575b505011613698565b6001600160a01b038a166000908152600960205260409020916000600184015560028301926139d9600385549201546001600160801b031690565b8084168285161115613a20575050612b3a91612b11612b1a928554928316906136d8565b516001600160a01b0390961686529116939081906020820190565b0390a3600190565b612bc99350612b1190612b1a936136d8565b613a49929350803d106116515761164281836116f2565b903880613996565b6004919850613a6c90843d86116116515761164281836116f2565b9790613949565b5050516001600160a01b0390961686525016927f663b98adf1afa777e36528b3293a057803f87ed00d2d2518dccfe5d7a6e99ccf91508060208101613a18565b613aca9150853d87116108785761086a81836116f2565b386137c9565b613ae8919250853d87116116515761164281836116f2565b9038613782565b613b069150823d8411610e0b57610df981836116f2565b38613735565b15613b1357565b60405162461bcd60e51b815260206004820152601a60248201527f44414f436f6d6d69747465653a206e6f742061206d656d6265720000000000006044820152606490fd5b15613b5f57565b60405162461bcd60e51b815260206004820152603a60248201527f44414f436f6d6d69747465653a2073656e646572206973206e6f74207468652060448201527f63616e646964617465206f66207468697320636f6e74726163740000000000006064820152608490fd5b6001600160a01b03909116815260406020820181905261062e939101916131ed565b604051630d90703f60e31b81526001600160a01b0382811694916020919082816004818a5afa90811561082257600091613d51575b5060405163136c704d60e31b8152819084816004818c5afa90811561082257600091613d34575b50613ce0575b50613c5c9250163314613b58565b833b156103e757600060405180956325d6086160e01b8252818381613c85878a60048401613428565b03925af1908115610822577fda033346b344f4675799a7ab4d837f0deb62d4afcdcaba4613913b4c25838cb394613cc892613ccd575b5060405193849384613bca565b0390a1565b80610816613cda9261168e565b38613cbb565b60405163570ca73560e01b8152915083908290600490829086165afa90811561082257613c5c93600092613d17575b505038613c4e565b613d2d9250803d10610e0b57610df981836116f2565b3880613d0f565b613d4b9150853d87116108785761086a81836116f2565b38613c48565b613d689150833d8511610e0b57610df981836116f2565b38613c21565b15613d7557565b60405162461bcd60e51b815260206004820152601160248201527024ba13b9903737ba10333937b6902a27a760791b6044820152606490fd5b15613db557565b60405162461bcd60e51b815260206004820152600b60248201526a1b995959081d185c99d95d60aa1b6044820152606490fd5b15613def57565b60405162461bcd60e51b815260206004820152601760248201527f61746f6d696345786563757465206e65656420747275650000000000000000006044820152606490fd5b15613e3b57565b60405162461bcd60e51b815260206004820152601060248201526f0dccacac840e6c2daca40d8cadccee8d60831b6044820152606490fd5b15613e7a57565b60405162461bcd60e51b8152602060048201526024808201527f6e656564206f766572206d696e696d756d566f74696e67506572696f645365636044820152636f6e647360e01b6064820152608490fd5b60001981146136935760010190565b80518210156110475760209160051b010190565b60405190613efb826116bc565b60048252633bc3556560e21b6020830152565b60405190613f1b826116bc565b60048252637c24048d60e11b6020830152565b60405190613f3b826116bc565b60048252630f52bba760e41b6020830152565b15613f5557565b60405162461bcd60e51b815260206004820152601760248201527f636c61696d455243323020746f6e20646f6e74207573650000000000000000006044820152606490fd5b15613fa157565b60405162461bcd60e51b815260206004820152602c60248201527f53746f726167655374617465436f6d6d69747465653a204167656e64614d616e60448201526b61676572206973207a65726f60a01b6064820152608490fd5b908160609103126103e7578051916040602083015192015190565b9190820391821161369357565b634e487b7160e01b600052602160045260246000fd5b6004111561404357565b614023565b9081526040810192919060048210156140435760200152565b6006111561404357565b9081526040810192919060068210156140435760200152565b60409061062e9492815281602082015201916131ed565b91908260409103126103e7576020825192015161062e816132bd565b60025460009182918291906140d4906001600160a01b0316610a20565b60408051636f35e9c360e11b815260048082018590529391929060208082602481865afa9182156108225789926142ab575b50845163334bbf3560e01b81528681018581528290829081906020010381875afa918215610822578a9261428e575b505061414b575050505050505050600590600690565b804210600014614162575050505050505090600190565b9795979694964211614175575050505050565b91939650919394508251635772521560e11b81526060818061419e868983019190602083019252565b0381855afa9081156108225787908890899361426b575b50600a5491821161423957505083516335e555af60e11b8152858101938452928492849250908290819060200103915afa918215610822578592614204575b5050156141fe5790565b50600390565b61422893955080919250903d10614232575b61422081836116f2565b81019061409b565b92909238806141f4565b503d614216565b93509350939495505081111560001461425757505050600290600590565b116142655750600390600590565b90600590565b915050614286915060603d8111610dae57610d9e81836116f2565b9190386141b5565b6142a49250803d106116515761164281836116f2565b3880614135565b816142c39293503d84116116515761164281836116f2565b9038614106565b156142d157565b60405162461bcd60e51b815260206004820152602860248201527f44414f436f6d6d69747465653a2063616e206e6f74206578656375746520746860448201526765206167656e646160c01b6064820152608490fd5b6001600160401b0381116116895760051b60200190565b60005b8381106143515750506000910152565b8181015183820152602001614341565b9080601f830112156103e75781519161437983614327565b92604090614389825195866116f2565b808552602093848087019260051b850101938185116103e757858101925b8584106143b8575050505050505090565b83516001600160401b0381116103e75782019083603f830112156103e75787820151906143e482611722565b6143f0885191826116f2565b828152858884860101116103e7576144118a949385948a868501910161433e565b8152019301926143a7565b9190916080818403126103e75780516001600160401b03908181116103e75782019380601f860112156103e757845161445481614327565b9061446260405192836116f2565b808252602096878084019260051b820101918483116103e75788809201905b8382106144b75750505050948301519182116103e7576144a2918301614361565b9160606144b1604084016132c7565b92015190565b82809183516144c58161049a565b815201910190614481565b3d156144fb573d906144e182611722565b916144ef60405193846116f2565b82523d6000602084013e565b606090565b1561450757565b60405162461bcd60e51b815260206004820152602a60248201527f44414f436f6d6d69747465653a204661696c656420746f206578656375746520604482015269746865206167656e646160b01b6064820152608490fd5b90815180825260208080930193019160005b82811061457f575050505090565b83516001600160a01b031685529381019392810192600101614571565b90602061062e92818152019061455f565b156145b457565b60405162461bcd60e51b815260206004820152602b60248201527f44414f436f6d6d69747465653a20796f7520646f6e2774206861766520636c6160448201526a34b6b0b13632903bba37b760a91b6064820152608490fd5b90633b9aca009182810292818404149015171561369357565b8181029291811591840414171561369357565b35906001600160801b03821682036103e757565b3590611720826132bd565b81601f820112156103e75780359061466f82614327565b9260409261467f845195866116f2565b808552602093848087019260051b850101938385116103e757858101925b8584106146ae575050505050505090565b83356001600160401b0381116103e757820185603f820112156103e75787916146df8783878680960135910161173d565b81520193019261469d565b9190916040516146f9816116a1565b60608152602091828201600091828252604084018381526060850193808552608086019460608652869984019560a08588031261254b576001600160401b039685358881116148165786019981601f8c011215614816578a359a61475c8c614327565b9b82806040519e8f9061476f90826116f2565b838152019160051b83010191848311614812578301905b8282106147f95750505061479b908701614639565b976147a860408801614639565b966147b56060820161464d565b956080820135928311612bec5750926147df6147f69a999896936147e89896936147e89601614658565b90529015159052565b906001600160801b03169052565b52565b83809183356148078161049a565b815201910190614786565b8780fd5b8480fd5b604051906bffffffffffffffffffffffff199060601b1660208201526014815261062e816116bc565b1561484a57565b60405162461bcd60e51b815260206004820152602560248201527f44414f436f6d6d69747465653a20696e76616c6964206c617965723220636f6e6044820152641d1c9858dd60da1b6064820152608490fd5b156148a457565b60405162461bcd60e51b815260206004820152601e60248201527f44414f436f6d6d69747465653a20696e76616c6964206f70657261746f7200006044820152606490fd5b906020916149028151809281855285808601910161433e565b601f01601f1916010190565b9294936080929161323f60018060a01b03938480931687526001602088015260a0604088015260a08701906148e9565b90602061062e9281815201906148e9565b9092949360018060a01b039283600254169561496c871515613f9a565b6040518097632522a32f60e01b825281600460209a8b935afa80156108225784926149da8b928b94600091614ab3575b506000546149c09082906149b8906001600160a01b0316610a20565b8b3091614be2565b6000546149d5906001600160a01b0316610a20565b614b9d565b8460008a614a136149f5610a2060025460018060a01b031690565b94604051988997889687956304a091b760e31b875260048701614ad0565b03925af196871561082257600097614a66575b50507fcd47bcad760e912d146723a314cc78b8570ee76ec8bdd4b60335087f6c2f47d79392918697614a6092604051958695169785614b66565b0390a390565b614a609297507fcd47bcad760e912d146723a314cc78b8570ee76ec8bdd4b60335087f6c2f47d79594939181614aa792903d106116515761164281836116f2565b96918193949550614a26565b614aca9150853d87116116515761164281836116f2565b3861499c565b91929390614ae69060a0845260a084019061455f565b936001600160801b03908160209516858501521660408301521515606082015260808184039101528251908183528083019281808460051b8301019501936000915b848310614b385750505050505090565b9091929394958480614b56600193601f198682030187528a516148e9565b9801930193019194939290614b28565b9294939091614b7f60609360808652608086019061455f565b956001600160801b0380921660208601521660408401521515910152565b906040519063a9059cbb60e01b60208301526001602483015260448201526044815260808101918183106001600160401b038411176116895761172092604052614c26565b6040516323b872dd60e01b60208201526001600160a01b03928316602482015292909116604483015260648083019390935291815261172091614c266084836116f2565b604051614c84916001600160a01b0316614c3f826116bc565b6000806020958685527f5361666545524332303a206c6f772d6c6576656c2063616c6c206661696c656487860152868151910182855af1614c7e6144d0565b91614d0c565b805190828215928315614cf4575b50505015614c9d5750565b6084906040519062461bcd60e51b82526004820152602a60248201527f5361666545524332303a204552433230206f7065726174696f6e20646964206e6044820152691bdd081cdd58d8d9595960b21b6064820152fd5b614d0493508201810191016132d2565b388281614c92565b91929015614d6e5750815115614d20575090565b3b15614d295790565b60405162461bcd60e51b815260206004820152601d60248201527f416464726573733a2063616c6c20746f206e6f6e2d636f6e74726163740000006044820152606490fd5b825190915015614d815750805190602001fd5b60405162461bcd60e51b8152908190611c35906004830161493e565b6001600160a01b03908116600090815260096020526040902054168015614ee557604051906020828180809501916301ffc9a760e01b9283815283602483015260248252614dea826116d7565b60009687809351617530938985fa933d83519086614eda575b5085614ed0575b5084614e72575b5050505080614e63575b15614e5e578060049260405193848092631dffc87160e21b82525afa9283156108225792614e4857505090565b61062e9250803d106108785761086a81836116f2565b505090565b50614e6d82614eeb565b614e1b565b90919293508560405185810192835263ffffffff60e01b602482015260248152614e9b816116d7565b5192fa8351823d83614ec5575b505081614ebb575b501581843880614e11565b9050151538614eb0565b101591508238614ea8565b1515945038614e0a565b851115955038614e03565b50600090565b6000602091604051838101906301ffc9a760e01b8252631dffc87160e21b602482015260248152614f1b816116d7565b5191617530fa6000513d82614f3c575b5081614f35575090565b9050151590565b60201115915038614f2b565b15614f4f57565b60405162461bcd60e51b815260206004820152601f60248201527f54686973206163636f756e74206973206e6f7420612063616e646964617465006044820152606490fd5b6004906020906001600160a01b0316614fae811515614f48565b6040516340bd8e6960e11b815292839182905afa90811561082257600091614fd4575090565b61062e915060203d81116116515761164281836116f2565b6001600160a01b03908116916020919060249061500a851515614f48565b604051948593849263af500ba360e01b84521660048301525afa90811561082257600091614fd4575090565b6001600160a01b031660009081526009602052604090206002810154608081901c916001600160801b0391821691908261507b575b50505061062e90600b5490614626565b6003015416808211156150a857506150a09061509b61062e934290613686565b614016565b90388061506b565b90504282018092116136935781039081116136935761062e906150a0565b906040516150d3816116a1565b6080819360018060a01b0381541683526001810154602084015260036002820154916001600160801b03928381166040870152841c6060860152015416910152565b6001600160a01b0381166000908152600960205260409020615136906150c6565b6001600160a01b0382166000908152601760205260409020615157906109b9565b1561527e575060055461517690610a209081906001600160a01b031681565b604051634c063c1960e01b81526001600160a01b0383166004820152602092918390829060249082905afa90811561082257600091615261575b5060405163570ca73560e01b81526001600160a01b039284908290600490829087165afa91821561082257849261521692600091615244575b506040516370a0823160e01b81526001600160a01b03909116600482015293849283919082906024820190565b0392165afa9182156108225760009261522e57505090565b61062e9250803d106116515761164281836116f2565b61525b9150843d8611610e0b57610df981836116f2565b386151e9565b6152789150833d8511610e0b57610df981836116f2565b386151b0565b906152e0916152ae6152a0610a20610a20610a2060055460018060a01b031690565b91516001600160a01b031690565b604051634c063c1960e01b81526001600160a01b03909116600482015260209390918491839190829081906024820190565b03915afa9182156108225761532692849260009161299e57506040516370a0823160e01b81526001600160a01b0390921660048301529092839190829081906024820190565b03916001600160a01b03165afa9182156108225760009261522e57505090565b1561534d57565b60405162461bcd60e51b8152602060048201526011602482015270736c6963655f6f75744f66426f756e647360781b6044820152606490fd5b615394600482511015615346565b6040519060048083019101600883015b8083106153be57505060048252601f01601f191660405290565b90918251815260208091019201906153a4565b6153df602482511015615346565b604051906014820190602401602883015b80831061540a57505060148252601f01601f191660405290565b90918251815260208091019201906153f0565b600191815191815183146001146154375750505050600090565b8360208080958185019401019301915b600282858310011461545b57505050505090565b8251815103615470575b918401918401615447565b6000955085915061546556fefa0761008653bc7bf9fa040fb7e07672ad3e17a976eb452c44e81dd782a6214b13649b2456f1b42fef0f0040b3aaeabcd21a76a0f3f5defd4f583839455116e9a164736f6c6343000813000a",
  "linkReferences": {},
  "deployedLinkReferences": {}
}