{
  "_format": "hh-sol-artifact-1",
  "contractName": "DepositManagerV1_1",
  "sourceName": "contracts/stake/managers/DepositManagerV1_1.sol",
  "abi": [
    {
      "inputs": [
        {
          "internalType": "uint256",
          "name": "x",
          "type": "uint256"
        }
      ],
      "name": "CheckL1BridgeError",
      "type": "error"
    },
    {
      "inputs": [],
      "name": "OperatorError",
      "type": "error"
    },
    {
      "inputs": [],
      "name": "SwapTonTransferError",
      "type": "error"
    },
    {
      "inputs": [],
      "name": "WithdrawError",
      "type": "error"
    },
    {
      "inputs": [],
      "name": "ZeroValueError",
      "type": "error"
    },
    {
      "anonymous": false,
      "inputs": [
        {
          "indexed": false,
          "internalType": "address",
          "name": "l1Bridge",
          "type": "address"
        },
        {
          "indexed": false,
          "internalType": "address",
          "name": "l1Ton",
          "type": "address"
        },
        {
          "indexed": false,
          "internalType": "address",
          "name": "l2Ton",
          "type": "address"
        },
        {
          "indexed": false,
          "internalType": "address",
          "name": "caller",
          "type": "address"
        },
        {
          "indexed": false,
          "internalType": "uint256",
          "name": "tonAmount",
          "type": "uint256"
        },
        {
          "indexed": false,
          "internalType": "uint32",
          "name": "minDepositGasLimit",
          "type": "uint32"
        }
      ],
      "name": "DepositedERC20To",
      "type": "event"
    },
    {
      "anonymous": false,
      "inputs": [
        {
          "indexed": true,
          "internalType": "bytes32",
          "name": "role",
          "type": "bytes32"
        },
        {
          "indexed": true,
          "internalType": "bytes32",
          "name": "previousAdminRole",
          "type": "bytes32"
        },
        {
          "indexed": true,
          "internalType": "bytes32",
          "name": "newAdminRole",
          "type": "bytes32"
        }
      ],
      "name": "RoleAdminChanged",
      "type": "event"
    },
    {
      "anonymous": false,
      "inputs": [
        {
          "indexed": true,
          "internalType": "bytes32",
          "name": "role",
          "type": "bytes32"
        },
        {
          "indexed": true,
          "internalType": "address",
          "name": "account",
          "type": "address"
        },
        {
          "indexed": true,
          "internalType": "address",
          "name": "sender",
          "type": "address"
        }
      ],
      "name": "RoleGranted",
      "type": "event"
    },
    {
      "anonymous": false,
      "inputs": [
        {
          "indexed": true,
          "internalType": "bytes32",
          "name": "role",
          "type": "bytes32"
        },
        {
          "indexed": true,
          "internalType": "address",
          "name": "account",
          "type": "address"
        },
        {
          "indexed": true,
          "internalType": "address",
          "name": "sender",
          "type": "address"
        }
      ],
      "name": "RoleRevoked",
      "type": "event"
    },
    {
      "anonymous": false,
      "inputs": [
        {
          "indexed": false,
          "internalType": "address",
          "name": "l1BridgeRegistry_",
          "type": "address"
        },
        {
          "indexed": false,
          "internalType": "address",
          "name": "layer2Manager_",
          "type": "address"
        }
      ],
      "name": "SetAddresses",
      "type": "event"
    },
    {
      "anonymous": false,
      "inputs": [
        {
          "indexed": false,
          "internalType": "uint32",
          "name": "gasLimit_",
          "type": "uint32"
        }
      ],
      "name": "SetMinDepositGasLimit",
      "type": "event"
    },
    {
      "anonymous": false,
      "inputs": [
        {
          "indexed": true,
          "internalType": "address",
          "name": "layer2",
          "type": "address"
        },
        {
          "indexed": false,
          "internalType": "address",
          "name": "account",
          "type": "address"
        },
        {
          "indexed": false,
          "internalType": "uint256",
          "name": "amount",
          "type": "uint256"
        }
      ],
      "name": "WithdrawalAndDeposited",
      "type": "event"
    },
    {
      "anonymous": false,
      "inputs": [
        {
          "indexed": true,
          "internalType": "address",
          "name": "layer2",
          "type": "address"
        },
        {
          "indexed": false,
          "internalType": "address",
          "name": "depositor",
          "type": "address"
        },
        {
          "indexed": false,
          "internalType": "uint256",
          "name": "amount",
          "type": "uint256"
        }
      ],
      "name": "WithdrawalRequested",
      "type": "event"
    },
    {
      "inputs": [],
      "name": "DEFAULT_ADMIN_ROLE",
      "outputs": [
        {
          "internalType": "bytes32",
          "name": "",
          "type": "bytes32"
        }
      ],
      "stateMutability": "view",
      "type": "function"
    },
    {
      "inputs": [
        {
          "internalType": "address",
          "name": "account",
          "type": "address"
        }
      ],
      "name": "addAdmin",
      "outputs": [],
      "stateMutability": "nonpayable",
      "type": "function"
    },
    {
      "inputs": [
        {
          "internalType": "address",
          "name": "",
          "type": "address"
        }
      ],
      "name": "aliveImplementation",
      "outputs": [
        {
          "internalType": "bool",
          "name": "",
          "type": "bool"
        }
      ],
      "stateMutability": "view",
      "type": "function"
    },
    {
      "inputs": [
        {
          "internalType": "bytes32",
          "name": "role",
          "type": "bytes32"
        }
      ],
      "name": "getRoleAdmin",
      "outputs": [
        {
          "internalType": "bytes32",
          "name": "",
          "type": "bytes32"
        }
      ],
      "stateMutability": "view",
      "type": "function"
    },
    {
      "inputs": [],
      "name": "globalWithdrawalDelay",
      "outputs": [
        {
          "internalType": "uint256",
          "name": "",
          "type": "uint256"
        }
      ],
      "stateMutability": "view",
      "type": "function"
    },
    {
      "inputs": [
        {
          "internalType": "bytes32",
          "name": "role",
          "type": "bytes32"
        },
        {
          "internalType": "address",
          "name": "account",
          "type": "address"
        }
      ],
      "name": "grantRole",
      "outputs": [],
      "stateMutability": "nonpayable",
      "type": "function"
    },
    {
      "inputs": [
        {
          "internalType": "bytes32",
          "name": "role",
          "type": "bytes32"
        },
        {
          "internalType": "address",
          "name": "account",
          "type": "address"
        }
      ],
      "name": "hasRole",
      "outputs": [
        {
          "internalType": "bool",
          "name": "",
          "type": "bool"
        }
      ],
      "stateMutability": "view",
      "type": "function"
    },
    {
      "inputs": [
        {
          "internalType": "address",
          "name": "account",
          "type": "address"
        }
      ],
      "name": "isAdmin",
      "outputs": [
        {
          "internalType": "bool",
          "name": "",
          "type": "bool"
        }
      ],
      "stateMutability": "view",
      "type": "function"
    },
    {
      "inputs": [],
      "name": "isOwner",
      "outputs": [
        {
          "internalType": "bool",
          "name": "",
          "type": "bool"
        }
      ],
      "stateMutability": "view",
      "type": "function"
    },
    {
      "inputs": [],
      "name": "l1BridgeRegistry",
      "outputs": [
        {
          "internalType": "address",
          "name": "",
          "type": "address"
        }
      ],
      "stateMutability": "view",
      "type": "function"
    },
    {
      "inputs": [],
      "name": "layer2Manager",
      "outputs": [
        {
          "internalType": "address",
          "name": "",
          "type": "address"
        }
      ],
      "stateMutability": "view",
      "type": "function"
    },
    {
      "inputs": [],
      "name": "minDepositGasLimit",
      "outputs": [
        {
          "internalType": "uint32",
          "name": "",
          "type": "uint32"
        }
      ],
      "stateMutability": "view",
      "type": "function"
    },
    {
      "inputs": [],
      "name": "oldDepositManager",
      "outputs": [
        {
          "internalType": "address",
          "name": "",
          "type": "address"
        }
      ],
      "stateMutability": "view",
      "type": "function"
    },
    {
      "inputs": [],
      "name": "pauseProxy",
      "outputs": [
        {
          "internalType": "bool",
          "name": "",
          "type": "bool"
        }
      ],
      "stateMutability": "view",
      "type": "function"
    },
    {
      "inputs": [
        {
          "internalType": "uint256",
          "name": "",
          "type": "uint256"
        }
      ],
      "name": "proxyImplementation",
      "outputs": [
        {
          "internalType": "address",
          "name": "",
          "type": "address"
        }
      ],
      "stateMutability": "view",
      "type": "function"
    },
    {
      "inputs": [
        {
          "internalType": "address",
          "name": "account",
          "type": "address"
        }
      ],
      "name": "removeAdmin",
      "outputs": [],
      "stateMutability": "nonpayable",
      "type": "function"
    },
    {
      "inputs": [],
      "name": "renounceOwnership",
      "outputs": [],
      "stateMutability": "nonpayable",
      "type": "function"
    },
    {
      "inputs": [
        {
          "internalType": "bytes32",
          "name": "role",
          "type": "bytes32"
        },
        {
          "internalType": "address",
          "name": "account",
          "type": "address"
        }
      ],
      "name": "renounceRole",
      "outputs": [],
      "stateMutability": "nonpayable",
      "type": "function"
    },
    {
      "inputs": [
        {
          "internalType": "address",
          "name": "layer2",
          "type": "address"
        },
        {
          "internalType": "uint256",
          "name": "amount",
          "type": "uint256"
        }
      ],
      "name": "requestWithdrawal",
      "outputs": [
        {
          "internalType": "bool",
          "name": "",
          "type": "bool"
        }
      ],
      "stateMutability": "nonpayable",
      "type": "function"
    },
    {
      "inputs": [
        {
          "internalType": "bytes32",
          "name": "role",
          "type": "bytes32"
        },
        {
          "internalType": "address",
          "name": "account",
          "type": "address"
        }
      ],
      "name": "revokeRole",
      "outputs": [],
      "stateMutability": "nonpayable",
      "type": "function"
    },
    {
      "inputs": [
        {
          "internalType": "bytes4",
          "name": "",
          "type": "bytes4"
        }
      ],
      "name": "selectorImplementation",
      "outputs": [
        {
          "internalType": "address",
          "name": "",
          "type": "address"
        }
      ],
      "stateMutability": "view",
      "type": "function"
    },
    {
      "inputs": [
        {
          "internalType": "address",
          "name": "_l1BridgeRegistry",
          "type": "address"
        },
        {
          "internalType": "address",
          "name": "_layer2Manager",
          "type": "address"
        }
      ],
      "name": "setAddresses",
      "outputs": [],
      "stateMutability": "nonpayable",
      "type": "function"
    },
    {
      "inputs": [
        {
          "internalType": "uint32",
          "name": "gasLimit_",
          "type": "uint32"
        }
      ],
      "name": "setMinDepositGasLimit",
      "outputs": [],
      "stateMutability": "nonpayable",
      "type": "function"
    },
    {
      "inputs": [
        {
          "internalType": "bytes4",
          "name": "interfaceId",
          "type": "bytes4"
        }
      ],
      "name": "supportsInterface",
      "outputs": [
        {
          "internalType": "bool",
          "name": "",
          "type": "bool"
        }
      ],
      "stateMutability": "view",
      "type": "function"
    },
    {
      "inputs": [],
      "name": "ton",
      "outputs": [
        {
          "internalType": "address",
          "name": "",
          "type": "address"
        }
      ],
      "stateMutability": "view",
      "type": "function"
    },
    {
      "inputs": [
        {
          "internalType": "address",
          "name": "newAdmin",
          "type": "address"
        }
      ],
      "name": "transferAdmin",
      "outputs": [],
      "stateMutability": "nonpayable",
      "type": "function"
    },
    {
      "inputs": [
        {
          "internalType": "address",
          "name": "newAdmin",
          "type": "address"
        }
      ],
      "name": "transferOwnership",
      "outputs": [],
      "stateMutability": "nonpayable",
      "type": "function"
    },
    {
      "inputs": [
        {
          "internalType": "address",
          "name": "layer2",
          "type": "address"
        },
        {
          "internalType": "uint256",
          "name": "amount",
          "type": "uint256"
        }
      ],
      "name": "withdrawAndDepositL2",
      "outputs": [
        {
          "internalType": "bool",
          "name": "",
          "type": "bool"
        }
      ],
      "stateMutability": "nonpayable",
      "type": "function"
    },
    {
      "inputs": [
        {
          "internalType": "address",
          "name": "",
          "type": "address"
        }
      ],
      "name": "withdrawalDelay",
      "outputs": [
        {
          "internalType": "uint256",
          "name": "",
          "type": "uint256"
        }
      ],
      "stateMutability": "view",
      "type": "function"
    }
  ],
  "bytecode": "0x6080806040523461001657612088908161001c8239f35b600080fdfe608080604052600436101561001357600080fd5b600090813560e01c90816301ffc9a7146119745750806316b5d5bd1461194b5780631785f53c1461189b5780631c9283a3146118055780632153c239146117dc578063248a9ca3146117af57806324d7806c146117685780632f2ff15d146116b957806336568abe146116265780634ce97036146115ed57806350d2a276146115a8578063550d01a31461156957806363a8fd89146115475780636ec3d5ae1461152957806370480275146114b8578063715018a61461147e57806375829def146113fc5780638f32d59b146113c857806390107afe1461132057806391d14854146112d75780639f382d111461073b578063a217fddf1461071f578063b911135f146106ec578063cc48b947146106c3578063cf8f91101461069a578063d547741f1461065c578063da95ebf7146102a1578063dd283f971461027a5763f2fde38b1461016057600080fd5b34610277576020366003190112610277576101796119ed565b33600090815260008051602061205c83398151915260205260409020546101a29060ff16611f8a565b6001600160a01b038116908115610232578133146101f4576101e891838052600560205260408420906000526020526101e360ff6040600020541615611fe1565b611dd4565b6101f133611e51565b80f35b60405162461bcd60e51b815260206004820152601660248201527520b1b1b2b9b9b4b136329d1039b0b6b29030b236b4b760511b6044820152606490fd5b60405162461bcd60e51b815260206004820152601860248201527f41636365737369626c653a207a65726f206164647265737300000000000000006044820152606490fd5b80fd5b5034610277578060031936011261027757602063ffffffff60175460a01c16604051908152f35b5034610277576040366003190112610277576102bb6119ed565b906024918235906015549360018060a01b0390818316908186526020966016885260408720548082116000146106545750905b8088856007541660405192838092630c39b8b760e31b82528860048301525afa908115610649578891610610575b501561060c5785156105b9576001600160801b0390818710156105875783885260138952604088203360005289528161035a60406000209443611f40565b1691604051926060840184811067ffffffffffffffff82111761057257604052835289830191818916835260408401948a865280549168010000000000000000831015610560576001830180835583101561054e5750926001928c999795926104e89b9997958d528a8d2090851b019251168b8354926001600160801b0319905160801b16921617178155019051151560ff80198354169116179055808752600d85526040872033600052855261041684604060002054611f40565b818852600d865260408820336000528652604060002055808752600e8552610442846040892054611f40565b818852600e86526040882055338752600f8552610463846040892054611f40565b33808952600f87526040808a20929092558151908152602081018690527f04c56a409d50971e45c5a2d96e5d557d2b0f1d66d40f14b141e4c958b0f39b329190a2600854604051637c287fd560e11b81526001600160a01b03909316600484015233602484015260448301939093529093849291909116908290869082906064820190565b03925af190811561054357829161050a575b5015610277575060405160018152f35b90508281813d831161053c575b6105218183611db2565b810103126105385761053290612033565b386104fa565b5080fd5b503d610517565b6040513d84823e3d90fd5b634e487b7160e01b8c5260326004528bfd5b634e487b7160e01b8c5260416004528bfd5b83634e487b7160e01b60005260416004526000fd5b88600c6064926040519262461bcd60e51b845260048401528201526b4f7574206f662072616e676560a01b6044820152fd5b8760276084926040519262461bcd60e51b845260048401528201527f4465706f7369744d616e616765723a20616d6f756e74206d757374206e6f74206044820152666265207a65726f60c81b6064820152fd5b8680fd5b90508881813d8311610642575b6106278183611db2565b8101031261063e5761063890612033565b3861031c565b8780fd5b503d61061d565b6040513d8a823e3d90fd5b9050906102ee565b5034610277576040366003190112610277576101f160043561067c611a03565b9080845260056020526106956001604086200154611a19565b611eca565b50346102775780600319360112610277576018546040516001600160a01b039091168152602090f35b50346102775780600319360112610277576017546040516001600160a01b039091168152602090f35b503461027757602036600319011261027757602090600435815260018252604060018060a01b0391205416604051908152f35b5034610277578060031936011261027757602090604051908152f35b5034610277576040366003190112610277576107556119ed565b9060195460ff8160a01c166112ac5760ff60a01b1916600160a01b176019556024351561129a576008546040516367265c3b60e11b81526001600160a01b03848116600483015233602483015290911690602081604481855afa908115610e48578391611268575b50602435116112235760405163570ca73560e01b8152906020826004816001600160a01b0388165afa918215610e485783926111e7575b506001600160a01b0382169182156111d5573b156111d5576018546001600160a01b03811615611147575b5060405192839263632b03ad60e01b84528360046101009586935afa928315610c44578180938192829683958499859386936110a5575b50501561108c578115611084575b5061106b576001600160a01b03851615611052576001600160a01b0386161561101757600160ff8516141580978198611008575b8115610ff9575b50610fe05763ffffffff60175460a01c16968715610fd5575b80610fc4575b610fac57604051637c287fd560e11b81526001600160a01b038916600482015233602480830191909152356044820152906020908290606490829086905af1908115610543578291610f72575b5015610f605760065460405163e3b99e8560e01b81523060048201526024803590820152906020908290604490829086906001600160a01b03165af1908115610543578291610f26575b5015610f14576017546001600160a01b03811615610e85575b50601754604051636eb1769f60e11b81523060048201526001600160a01b0386811660248301529091169390602081604481885afa908115610e48578391610e53575b50633b9aca00602435048110610dbc575b5060ff16600203610c51576040516370a0823160e01b81526001600160a01b038316600482015290602082602481875afa918215610c44578192610c10575b506001600160a01b0385163b156102775760405163e56b44a360e01b8152336004820152633b9aca0060248035919091049082015263ffffffff881660448201526080606482015260848101829052818160a481836001600160a01b038b165af1801561054357908291610bfc575b50506040516370a0823160e01b81526001600160a01b039093166004840152602083602481875afa908115610bf05790610bb7575b610aaf925061204e565b633b9aca006024350403610b7c577fd5dfc92da7fa4cb007b31e1ebf08a3538ac91aeaece0306a778c0f8b31e3683b9360c09363ffffffff926040519460018060a01b03168552602085015260018060a01b03166040840152336060840152633b9aca006024350460808401521660a0820152a16040805133815260243560208201526001600160a01b0392909216917f84442f855a972156de649c4743a803474c4e9129c0ada9c676256add8f9f82d29190a26019805460ff60a01b1916905560405160018152602090f35b60405162461bcd60e51b81526020600482015260136024820152726661696c206465706f7369744552433230546f60681b6044820152606490fd5b506020823d602011610be8575b81610bd160209383611db2565b81010312610be357610aaf9151610aa5565b600080fd5b3d9150610bc4565b604051903d90823e3d90fd5b610c0590611d88565b610277578038610a70565b9091506020813d602011610c3c575b81610c2c60209383611db2565b81010312610be357519038610a01565b3d9150610c1f565b50604051903d90823e3d90fd5b6040516370a0823160e01b81526001600160a01b03851660048201529150602082602481865afa918215610c44578192610d88575b506001600160a01b0384163b156102775760405163041c592960e51b815283600482015260018060a01b0386166024820152336044820152633b9aca0060243504606482015263ffffffff8716608482015260c060a48201528160c4820152818160e4818360018060a01b038a165af1801561054357610d79575b506040516370a0823160e01b81526001600160a01b03851660048201529190602083602481875afa908115610bf05790610d45575b610d40925061204e565b610aaf565b506020823d602011610d71575b81610d5f60209383611db2565b81010312610be357610d409151610d36565b3d9150610d52565b610d8290611d88565b38610d01565b9091506020813d602011610db4575b81610da460209383611db2565b8101031261053857519038610c86565b3d9150610d97565b604051633950935160e01b81526001600160a01b0387166004820152633b9aca006024803591909104929092039181019190915260208160448186895af18015610e4857156109c2576020813d602011610e40575b81610e1e60209383611db2565b81010312610e3c57600291610e3460ff92612033565b5091506109c2565b8280fd5b3d9150610e11565b6040513d85823e3d90fd5b90506020813d602011610e7d575b81610e6e60209383611db2565b81010312610e3c5751386109b1565b3d9150610e61565b60065460405163cc48b94760e01b815290602090829060049082906001600160a01b03165afa908115610e48578391610eda575b506001600160a01b03166001600160a01b031991909116176017553861096e565b90506020813d602011610f0c575b81610ef560209383611db2565b81010312610e3c57610f069061201f565b38610eb9565b3d9150610ee8565b60405163d03e6eed60e01b8152600490fd5b90506020813d602011610f58575b81610f4160209383611db2565b8101031261053857610f5290612033565b38610955565b3d9150610f34565b60405163351dc55d60e21b8152600490fd5b90506020813d602011610fa4575b81610f8d60209383611db2565b8101031261053857610f9e90612033565b3861090b565b3d9150610f80565b60405163033121bf60e01b8152600480820152602490fd5b506001600160a01b038316156108be565b6203345097506108b8565b60405163033121bf60e01b815260056004820152602490fd5b6001915060ff1614153861089f565b60ff8616600214159150610898565b60405162461bcd60e51b81526020600482015260136024820152726c32546f6e3a207a65726f206164647265737360681b6044820152606490fd5b60405163033121bf60e01b815260036004820152602490fd5b60405163033121bf60e01b815260066004820152602490fd5b905038610864565b60405163033121bf60e01b815260026004820152602490fd5b97509950505050945092505083813d8311611140575b6110c58183611db2565b81010312610277576110d683612033565b916110e36020850161201f565b906110f06040860161201f565b926110fd6060870161201f565b9161110a60808801612040565b9561111760a08901612040565b9461113060e061112960c08c01612033565b9a01612033565b9190969497959891903880610856565b503d6110bb565b604051630cf8f91160e41b8152602081600481865afa9081156111ca57859161118c575b506001600160a01b03166001600160a01b031991909116176018553861081f565b90506020813d6020116111c2575b816111a760209383611db2565b810103126111be576111b89061201f565b3861116b565b8480fd5b3d915061119a565b6040513d87823e3d90fd5b604051632b56491160e11b8152600490fd5b9091506020813d60201161121b575b8161120360209383611db2565b81010312610e3c576112149061201f565b90386107f4565b3d91506111f6565b60405162461bcd60e51b815260206004820152601d60248201527f7374616b656420616d6f756e7420697320696e73756666696369656e740000006044820152606490fd5b90506020813d602011611292575b8161128360209383611db2565b81010312610e3c5751386107bd565b3d9150611276565b6040516308927dbf60e01b8152600490fd5b606460405162461bcd60e51b81526020600482015260046024820152636c6f636b60e01b6044820152fd5b50346102775760403660031901126102775760ff60406020926112f8611a03565b6004358252600585528282206001600160a01b03909116825284522054604051911615158152f35b5034610277576040366003190112610277577f1cbc7a9637cabbc21164f4e6f293a9e760d1f651ad2b0f5614dec80dd807d0bd61135b6119ed565b611363611a03565b9083805260056020526040842033855260205261138660ff604086205416611f8a565b601880546001600160a01b039283166001600160a01b03199182168117909255601980549490931693168317909155604080519182526020820192909252a180f35b503461027757806003193601126102775760ff60408280602094526005845281812033825284522054166040519015158152f35b5034610277576020366003190112610277576114166119ed565b33600090815260008051602061205c833981519152602052604090205461143f9060ff16611f8a565b6001600160a01b038116908115610232578133146101f4576101e8918380526005602052604084209084526020526101e360ff60408520541615611fe1565b503461027757806003193601126102775733600090815260008051602061205c83398151915260205260409020546101e89060ff16611f8a565b5034610277576020366003190112610277576101f16114d56119ed565b33600090815260008051602061205c83398151915260205260409020546114fe9060ff16611f8a565b82805260056020526040832060018060a01b03821684526020526101e360ff60408520541615611fe1565b50346102775780600319360112610277576020601554604051908152f35b503461027757806003193601126102775760ff60209154166040519015158152f35b50346102775760203660031901126102775760209060ff906040906001600160a01b036115946119ed565b168152600284522054166040519015158152f35b50346102775760203660031901126102775760043563ffffffff60e01b81168091036105385790602091815260038252604060018060a01b0391205416604051908152f35b5034610277576020366003190112610277576020906040906001600160a01b036116156119ed565b168152601683522054604051908152f35b503461027757604036600319011261027757611640611a03565b336001600160a01b0382160361165c576101f190600435611eca565b60405162461bcd60e51b815260206004820152602f60248201527f416363657373436f6e74726f6c3a2063616e206f6e6c792072656e6f756e636560448201526e103937b632b9903337b91039b2b63360891b6064820152608490fd5b5034610277576040366003190112610277576004356116d6611a03565b81835260056020526116ee6001604085200154611a19565b8183526005602052604083209060018060a01b03169081845260205260ff6040842054161561171b578280f35b81835260056020526040832081845260205260408320600160ff1982541617905533917f2f8788117e7eff1d82e926ec794901d17c78024a50270940304540a733656f0d8480a438808280f35b50346102775760203660031901126102775760ff60406020926117896119ed565b818052600585528282206001600160a01b03909116825284522054604051911615158152f35b50346102775760203660031901126102775760016040602092600435815260058452200154604051908152f35b50346102775780600319360112610277576009546040516001600160a01b039091168152602090f35b50346102775760203660031901126102775760043563ffffffff811690818103610e3c577f5adf94aa107bdc7863b88657090d893e6e71c0cc054f326aaf7d70d734aacd53916020918480526005835260408520338652835261186e60ff604087205416611f8a565b6017805463ffffffff60a01b191660a09290921b63ffffffff60a01b16919091179055604051908152a180f35b5034610277576020366003190112610277576118b56119ed565b33600090815260008051602061205c83398151915260205260409020546118de9060ff16611f8a565b8180526005602090815260408084206001600160a01b038416855290915282205460ff1615611910576101f190611e51565b60405162461bcd60e51b8152602060048201526013602482015272185b1c9958591e481b9bdd0819dc985b9d1959606a1b6044820152606490fd5b50346102775780600319360112610277576019546040516001600160a01b039091168152602090f35b9050346105385760203660031901126105385760043563ffffffff60e01b8116809103610e3c57602092637965db0b60e01b8214919082156119b9575b505015158152f35b6301ffc9a760e01b821492509082156119d6575b505038806119b1565b815260048452604090205460ff16905038806119cd565b600435906001600160a01b0382168203610be357565b602435906001600160a01b0382168203610be357565b60009080825260209060058252604090818420338552835260ff828520541615611a435750505050565b81519367ffffffffffffffff336060870182811188821017611d51578552602a87528587019385368637875115611d3d5760308553875191600192831015611d2957607860218a015360295b838111611cbf5750611c7d5790855192608084019084821090821117611c6957865260428352868301936060368637835115611c5557603085538351821015611c555790607860218501536041915b818311611be757505050611ba55792611b736048611b649794611b97946044989785519a8b93611b3b8b86019a7f416363657373436f6e74726f6c3a206163636f756e74200000000000000000008c525180926037880190611d65565b8401917001034b99036b4b9b9b4b733903937b6329607d1b603784015251809386840190611d65565b01036028810189520187611db2565b5194859362461bcd60e51b8552600485015251809281602486015285850190611d65565b601f01601f19168101030190fd5b60648585519062461bcd60e51b825280600483015260248201527f537472696e67733a20686578206c656e67746820696e73756666696369656e746044820152fd5b909192600f81166010811015611c41576f181899199a1a9b1b9c1cb0b131b232b360811b901a611c178587611f63565b5360041c928015611c2d57600019019190611ade565b634e487b7160e01b82526011600452602482fd5b634e487b7160e01b83526032600452602483fd5b634e487b7160e01b81526032600452602490fd5b634e487b7160e01b85526041600452602485fd5b60648787519062461bcd60e51b825280600483015260248201527f537472696e67733a20686578206c656e67746820696e73756666696369656e746044820152fd5b90600f81166010811015611d15576f181899199a1a9b1b9c1cb0b131b232b360811b901a611ced838c611f63565b5360041c908015611d015760001901611a8f565b634e487b7160e01b86526011600452602486fd5b634e487b7160e01b87526032600452602487fd5b634e487b7160e01b85526032600452602485fd5b634e487b7160e01b84526032600452602484fd5b634e487b7160e01b84526041600452602484fd5b60005b838110611d785750506000910152565b8181015183820152602001611d68565b67ffffffffffffffff8111611d9c57604052565b634e487b7160e01b600052604160045260246000fd5b90601f8019910116810190811067ffffffffffffffff821117611d9c57604052565b6001600160a01b0316600081815260008051602061205c833981519152602052604081205490919060ff1615611e08575050565b81805260056020526040822081835260205260408220600160ff1982541617905533917f2f8788117e7eff1d82e926ec794901d17c78024a50270940304540a733656f0d8180a4565b6001600160a01b0316600081815260008051602061205c833981519152602052604081205490919060ff16611e84575050565b8180526005602052604082208183526020526040822060ff19815416905533917ff6391f5c32d9c69d2a47ea670b442974b53935d1edc7fd64eb21e047a839171b8180a4565b906000918083526005602052604083209160018060a01b03169182845260205260ff604084205416611efb57505050565b8083526005602052604083208284526020526040832060ff1981541690557ff6391f5c32d9c69d2a47ea670b442974b53935d1edc7fd64eb21e047a839171b339380a4565b91908201809211611f4d57565b634e487b7160e01b600052601160045260246000fd5b908151811015611f74570160200190565b634e487b7160e01b600052603260045260246000fd5b15611f9157565b60405162461bcd60e51b815260206004820152602260248201527f41636365737369626c653a2043616c6c6572206973206e6f7420616e2061646d60448201526134b760f11b6064820152608490fd5b15611fe857565b60405162461bcd60e51b815260206004820152600f60248201526e185b1c9958591e4819dc985b9d1959608a1b6044820152606490fd5b51906001600160a01b0382168203610be357565b51908115158203610be357565b519060ff82168203610be357565b91908203918211611f4d5756fe05b8ccbb9d4d8fb16ea74ce3c29a41f1b461fbdaff4714a0d9a8eb05499746bca164736f6c6343000813000a",
  "linkReferences": {},
  "deployedLinkReferences": {}
}