{
  "_format": "hh-sol-artifact-1",
  "contractName": "MultiSigWallet",
  "sourceName": "contracts/MultiSigWallet.sol",
  "abi": [
    {
      "inputs": [
        {
          "internalType": "address[]",
          "name": "_owners",
          "type": "address[]"
        }
      ],
      "stateMutability": "nonpayable",
      "type": "constructor"
    },
    {
      "anonymous": false,
      "inputs": [
        {
          "indexed": true,
          "internalType": "address",
          "name": "oldOwner",
          "type": "address"
        },
        {
          "indexed": true,
          "internalType": "uint256",
          "name": "ownerIndex",
          "type": "uint256"
        },
        {
          "indexed": true,
          "internalType": "address",
          "name": "newOwner",
          "type": "address"
        }
      ],
      "name": "ChangeOwner",
      "type": "event"
    },
    {
      "anonymous": false,
      "inputs": [
        {
          "indexed": true,
          "internalType": "address",
          "name": "owner",
          "type": "address"
        },
        {
          "indexed": true,
          "internalType": "uint256",
          "name": "txIndex",
          "type": "uint256"
        }
      ],
      "name": "ConfirmTransaction",
      "type": "event"
    },
    {
      "anonymous": false,
      "inputs": [
        {
          "indexed": true,
          "internalType": "address",
          "name": "owner",
          "type": "address"
        },
        {
          "indexed": true,
          "internalType": "uint256",
          "name": "txIndex",
          "type": "uint256"
        },
        {
          "indexed": false,
          "internalType": "bool",
          "name": "success",
          "type": "bool"
        }
      ],
      "name": "ExecuteTransaction",
      "type": "event"
    },
    {
      "anonymous": false,
      "inputs": [
        {
          "indexed": true,
          "internalType": "address",
          "name": "owner",
          "type": "address"
        },
        {
          "indexed": true,
          "internalType": "uint256",
          "name": "txIndex",
          "type": "uint256"
        }
      ],
      "name": "RevokeConfirmation",
      "type": "event"
    },
    {
      "anonymous": false,
      "inputs": [
        {
          "indexed": true,
          "internalType": "address",
          "name": "owner",
          "type": "address"
        },
        {
          "indexed": true,
          "internalType": "uint256",
          "name": "txIndex",
          "type": "uint256"
        },
        {
          "indexed": true,
          "internalType": "address",
          "name": "to",
          "type": "address"
        },
        {
          "indexed": false,
          "internalType": "uint256",
          "name": "value",
          "type": "uint256"
        },
        {
          "indexed": false,
          "internalType": "bytes",
          "name": "data",
          "type": "bytes"
        }
      ],
      "name": "SubmitTransaction",
      "type": "event"
    },
    {
      "inputs": [
        {
          "internalType": "uint256",
          "name": "_index",
          "type": "uint256"
        },
        {
          "internalType": "address",
          "name": "_newOwner",
          "type": "address"
        }
      ],
      "name": "changeOwner",
      "outputs": [],
      "stateMutability": "nonpayable",
      "type": "function"
    },
    {
      "inputs": [
        {
          "internalType": "uint256",
          "name": "_txIndex",
          "type": "uint256"
        }
      ],
      "name": "confirmTransaction",
      "outputs": [],
      "stateMutability": "nonpayable",
      "type": "function"
    },
    {
      "inputs": [
        {
          "internalType": "uint256",
          "name": "_txIndex",
          "type": "uint256"
        }
      ],
      "name": "executeTransaction",
      "outputs": [],
      "stateMutability": "nonpayable",
      "type": "function"
    },
    {
      "inputs": [],
      "name": "getOwners",
      "outputs": [
        {
          "internalType": "address[]",
          "name": "",
          "type": "address[]"
        }
      ],
      "stateMutability": "view",
      "type": "function"
    },
    {
      "inputs": [
        {
          "internalType": "uint256",
          "name": "_txIndex",
          "type": "uint256"
        }
      ],
      "name": "getTransaction",
      "outputs": [
        {
          "internalType": "address",
          "name": "to",
          "type": "address"
        },
        {
          "internalType": "uint256",
          "name": "value",
          "type": "uint256"
        },
        {
          "internalType": "bytes",
          "name": "data",
          "type": "bytes"
        },
        {
          "internalType": "bool",
          "name": "executed",
          "type": "bool"
        },
        {
          "internalType": "uint256",
          "name": "numConfirmations",
          "type": "uint256"
        }
      ],
      "stateMutability": "view",
      "type": "function"
    },
    {
      "inputs": [],
      "name": "getTransactionCount",
      "outputs": [
        {
          "internalType": "uint256",
          "name": "",
          "type": "uint256"
        }
      ],
      "stateMutability": "view",
      "type": "function"
    },
    {
      "inputs": [
        {
          "internalType": "uint256",
          "name": "",
          "type": "uint256"
        },
        {
          "internalType": "address",
          "name": "",
          "type": "address"
        }
      ],
      "name": "isConfirmed",
      "outputs": [
        {
          "internalType": "bool",
          "name": "",
          "type": "bool"
        }
      ],
      "stateMutability": "view",
      "type": "function"
    },
    {
      "inputs": [
        {
          "internalType": "address",
          "name": "",
          "type": "address"
        }
      ],
      "name": "isOwner",
      "outputs": [
        {
          "internalType": "bool",
          "name": "",
          "type": "bool"
        }
      ],
      "stateMutability": "view",
      "type": "function"
    },
    {
      "inputs": [],
      "name": "numConfirmationsRequired",
      "outputs": [
        {
          "internalType": "uint256",
          "name": "",
          "type": "uint256"
        }
      ],
      "stateMutability": "view",
      "type": "function"
    },
    {
      "inputs": [
        {
          "internalType": "uint256",
          "name": "",
          "type": "uint256"
        }
      ],
      "name": "owners",
      "outputs": [
        {
          "internalType": "address",
          "name": "",
          "type": "address"
        }
      ],
      "stateMutability": "view",
      "type": "function"
    },
    {
      "inputs": [
        {
          "internalType": "uint256",
          "name": "_txIndex",
          "type": "uint256"
        }
      ],
      "name": "revokeConfirmation",
      "outputs": [],
      "stateMutability": "nonpayable",
      "type": "function"
    },
    {
      "inputs": [
        {
          "internalType": "address",
          "name": "_to",
          "type": "address"
        },
        {
          "internalType": "uint256",
          "name": "_value",
          "type": "uint256"
        },
        {
          "internalType": "bytes",
          "name": "_data",
          "type": "bytes"
        }
      ],
      "name": "submitTransaction",
      "outputs": [],
      "stateMutability": "nonpayable",
      "type": "function"
    },
    {
      "inputs": [
        {
          "internalType": "uint256",
          "name": "",
          "type": "uint256"
        }
      ],
      "name": "transactions",
      "outputs": [
        {
          "internalType": "address",
          "name": "to",
          "type": "address"
        },
        {
          "internalType": "uint256",
          "name": "value",
          "type": "uint256"
        },
        {
          "internalType": "bytes",
          "name": "data",
          "type": "bytes"
        },
        {
          "internalType": "bool",
          "name": "executed",
          "type": "bool"
        },
        {
          "internalType": "uint256",
          "name": "numConfirmations",
          "type": "uint256"
        }
      ],
      "stateMutability": "view",
      "type": "function"
    },
    {
      "stateMutability": "payable",
      "type": "receive"
    }
  ],
  "bytecode": "0x608060405234801561001057600080fd5b50604051612b15380380612b1583398181016040528101906100329190610445565b6003815114801561004557506002815110155b610084576040517f08c379a000000000000000000000000000000000000000000000000000000000815260040161007b906104eb565b60405180910390fd5b60005b81518110156102735760008282815181106100a5576100a461050b565b5b60200260200101519050600073ffffffffffffffffffffffffffffffffffffffff168173ffffffffffffffffffffffffffffffffffffffff160361011e576040517f08c379a000000000000000000000000000000000000000000000000000000000815260040161011590610586565b60405180910390fd5b600160008273ffffffffffffffffffffffffffffffffffffffff1673ffffffffffffffffffffffffffffffffffffffff16815260200190815260200160002060009054906101000a900460ff16156101ab576040517f08c379a00000000000000000000000000000000000000000000000000000000081526004016101a2906105f2565b60405180910390fd5b60018060008373ffffffffffffffffffffffffffffffffffffffff1673ffffffffffffffffffffffffffffffffffffffff16815260200190815260200160002060006101000a81548160ff0219169083151502179055506000819080600181540180825580915050600190039060005260206000200160009091909190916101000a81548173ffffffffffffffffffffffffffffffffffffffff021916908373ffffffffffffffffffffffffffffffffffffffff160217905550508080600101915050610087565b5050610612565b6000604051905090565b600080fd5b600080fd5b600080fd5b6000601f19601f8301169050919050565b7f4e487b7100000000000000000000000000000000000000000000000000000000600052604160045260246000fd5b6102dc82610293565b810181811067ffffffffffffffff821117156102fb576102fa6102a4565b5b80604052505050565b600061030e61027a565b905061031a82826102d3565b919050565b600067ffffffffffffffff82111561033a576103396102a4565b5b602082029050602081019050919050565b600080fd5b600073ffffffffffffffffffffffffffffffffffffffff82169050919050565b600061037b82610350565b9050919050565b61038b81610370565b811461039657600080fd5b50565b6000815190506103a881610382565b92915050565b60006103c16103bc8461031f565b610304565b905080838252602082019050602084028301858111156103e4576103e361034b565b5b835b8181101561040d57806103f98882610399565b8452602084019350506020810190506103e6565b5050509392505050565b600082601f83011261042c5761042b61028e565b5b815161043c8482602086016103ae565b91505092915050565b60006020828403121561045b5761045a610284565b5b600082015167ffffffffffffffff81111561047957610478610289565b5b61048584828501610417565b91505092915050565b600082825260208201905092915050565b7f696e76616c6964206e756d626572206f66206f776e6572730000000000000000600082015250565b60006104d560188361048e565b91506104e08261049f565b602082019050919050565b60006020820190508181036000830152610504816104c8565b9050919050565b7f4e487b7100000000000000000000000000000000000000000000000000000000600052603260045260246000fd5b7f696e76616c6964206f776e657200000000000000000000000000000000000000600082015250565b6000610570600d8361048e565b915061057b8261053a565b602082019050919050565b6000602082019050818103600083015261059f81610563565b9050919050565b7f6f776e6572206e6f7420756e6971756500000000000000000000000000000000600082015250565b60006105dc60108361048e565b91506105e7826105a6565b602082019050919050565b6000602082019050818103600083015261060b816105cf565b9050919050565b6124f4806106216000396000f3fe6080604052600436106100c65760003560e01c806380f59a651161007f578063c01a8c8411610059578063c01a8c84146102b3578063c6427474146102dc578063d0549b8514610305578063ee22610b14610330576100cd565b806380f59a651461020a5780639ace38c214610247578063a0e67e2b14610288576100cd565b8063025e7c27146100d257806320ea8d861461010f5780632e7700f0146101385780632f54bf6e1461016357806333ea3dc8146101a0578063784796f7146101e1576100cd565b366100cd57005b600080fd5b3480156100de57600080fd5b506100f960048036038101906100f4919061160e565b610359565b604051610106919061167c565b60405180910390f35b34801561011b57600080fd5b506101366004803603810190610131919061160e565b610398565b005b34801561014457600080fd5b5061014d610672565b60405161015a91906116a6565b60405180910390f35b34801561016f57600080fd5b5061018a600480360381019061018591906116ed565b61067f565b6040516101979190611735565b60405180910390f35b3480156101ac57600080fd5b506101c760048036038101906101c2919061160e565b61069f565b6040516101d89594939291906117e0565b60405180910390f35b3480156101ed57600080fd5b506102086004803603810190610203919061183a565b6107b2565b005b34801561021657600080fd5b50610231600480360381019061022c919061183a565b610b4d565b60405161023e9190611735565b60405180910390f35b34801561025357600080fd5b5061026e6004803603810190610269919061160e565b610b7c565b60405161027f9594939291906117e0565b60405180910390f35b34801561029457600080fd5b5061029d610c77565b6040516102aa9190611938565b60405180910390f35b3480156102bf57600080fd5b506102da60048036038101906102d5919061160e565b610d05565b005b3480156102e857600080fd5b5061030360048036038101906102fe9190611a8f565b610fe2565b005b34801561031157600080fd5b5061031a6112fd565b60405161032791906116a6565b60405180910390f35b34801561033c57600080fd5b506103576004803603810190610352919061160e565b611302565b005b6000818154811061036957600080fd5b906000526020600020016000915054906101000a900473ffffffffffffffffffffffffffffffffffffffff1681565b600160003373ffffffffffffffffffffffffffffffffffffffff1673ffffffffffffffffffffffffffffffffffffffff16815260200190815260200160002060009054906101000a900460ff16610424576040517f08c379a000000000000000000000000000000000000000000000000000000000815260040161041b90611b5b565b60405180910390fd5b80600380549050811061046c576040517f08c379a000000000000000000000000000000000000000000000000000000000815260040161046390611bc7565b60405180910390fd5b816003818154811061048157610480611be7565b5b906000526020600020906005020160030160009054906101000a900460ff16156104e0576040517f08c379a00000000000000000000000000000000000000000000000000000000081526004016104d790611c62565b60405180910390fd5b6000600384815481106104f6576104f5611be7565b5b906000526020600020906005020190506002600085815260200190815260200160002060003373ffffffffffffffffffffffffffffffffffffffff1673ffffffffffffffffffffffffffffffffffffffff16815260200190815260200160002060009054906101000a900460ff166105a3576040517f08c379a000000000000000000000000000000000000000000000000000000000815260040161059a90611cce565b60405180910390fd5b60018160040160008282546105b89190611d1d565b9250508190555060006002600086815260200190815260200160002060003373ffffffffffffffffffffffffffffffffffffffff1673ffffffffffffffffffffffffffffffffffffffff16815260200190815260200160002060006101000a81548160ff021916908315150217905550833373ffffffffffffffffffffffffffffffffffffffff167ff0dca620e2e81f7841d07bcc105e1704fb01475b278a9d4c236e1c62945edd5560405160405180910390a350505050565b6000600380549050905090565b60016020528060005260406000206000915054906101000a900460ff1681565b60008060606000806000600387815481106106bd576106bc611be7565b5b906000526020600020906005020190508060000160009054906101000a900473ffffffffffffffffffffffffffffffffffffffff168160010154826002018360030160009054906101000a900460ff16846004015482805461071e90611d80565b80601f016020809104026020016040519081016040528092919081815260200182805461074a90611d80565b80156107975780601f1061076c57610100808354040283529160200191610797565b820191906000526020600020905b81548152906001019060200180831161077a57829003601f168201915b50505050509250955095509550955095505091939590929450565b3073ffffffffffffffffffffffffffffffffffffffff163373ffffffffffffffffffffffffffffffffffffffff1614610820576040517f08c379a000000000000000000000000000000000000000000000000000000000815260040161081790611e23565b60405180910390fd5b816000805490508110610868576040517f08c379a000000000000000000000000000000000000000000000000000000000815260040161085f90611e8f565b60405180910390fd5b81600073ffffffffffffffffffffffffffffffffffffffff168173ffffffffffffffffffffffffffffffffffffffff16036108d8576040517f08c379a00000000000000000000000000000000000000000000000000000000081526004016108cf90611efb565b60405180910390fd5b600160008473ffffffffffffffffffffffffffffffffffffffff1673ffffffffffffffffffffffffffffffffffffffff16815260200190815260200160002060009054906101000a900460ff1615610965576040517f08c379a000000000000000000000000000000000000000000000000000000000815260040161095c90611f67565b60405180910390fd5b60006001600080878154811061097e5761097d611be7565b5b9060005260206000200160009054906101000a900473ffffffffffffffffffffffffffffffffffffffff1673ffffffffffffffffffffffffffffffffffffffff1673ffffffffffffffffffffffffffffffffffffffff16815260200190815260200160002060006101000a81548160ff02191690831515021790555060018060008573ffffffffffffffffffffffffffffffffffffffff1673ffffffffffffffffffffffffffffffffffffffff16815260200190815260200160002060006101000a81548160ff0219169083151502179055508260008581548110610a6657610a65611be7565b5b9060005260206000200160006101000a81548173ffffffffffffffffffffffffffffffffffffffff021916908373ffffffffffffffffffffffffffffffffffffffff1602179055508273ffffffffffffffffffffffffffffffffffffffff168460008681548110610ada57610ad9611be7565b5b9060005260206000200160009054906101000a900473ffffffffffffffffffffffffffffffffffffffff1673ffffffffffffffffffffffffffffffffffffffff167f5941cd37a5b78dd189b5b18e742bd1f914f3334ac7d6f4eeea399c09f2ee444f60405160405180910390a450505050565b60026020528160005260406000206020528060005260406000206000915091509054906101000a900460ff1681565b60038181548110610b8c57600080fd5b90600052602060002090600502016000915090508060000160009054906101000a900473ffffffffffffffffffffffffffffffffffffffff1690806001015490806002018054610bdb90611d80565b80601f0160208091040260200160405190810160405280929190818152602001828054610c0790611d80565b8015610c545780601f10610c2957610100808354040283529160200191610c54565b820191906000526020600020905b815481529060010190602001808311610c3757829003601f168201915b5050505050908060030160009054906101000a900460ff16908060040154905085565b60606000805480602002602001604051908101604052809291908181526020018280548015610cfb57602002820191906000526020600020905b8160009054906101000a900473ffffffffffffffffffffffffffffffffffffffff1673ffffffffffffffffffffffffffffffffffffffff1681526020019060010190808311610cb1575b5050505050905090565b600160003373ffffffffffffffffffffffffffffffffffffffff1673ffffffffffffffffffffffffffffffffffffffff16815260200190815260200160002060009054906101000a900460ff16610d91576040517f08c379a0000000000000000000000000000000000000000000000000000000008152600401610d8890611b5b565b60405180910390fd5b806003805490508110610dd9576040517f08c379a0000000000000000000000000000000000000000000000000000000008152600401610dd090611bc7565b60405180910390fd5b8160038181548110610dee57610ded611be7565b5b906000526020600020906005020160030160009054906101000a900460ff1615610e4d576040517f08c379a0000000000000000000000000000000000000000000000000000000008152600401610e4490611c62565b60405180910390fd5b826002600082815260200190815260200160002060003373ffffffffffffffffffffffffffffffffffffffff1673ffffffffffffffffffffffffffffffffffffffff16815260200190815260200160002060009054906101000a900460ff1615610eec576040517f08c379a0000000000000000000000000000000000000000000000000000000008152600401610ee390611fd3565b60405180910390fd5b600060038581548110610f0257610f01611be7565b5b906000526020600020906005020190506001816004016000828254610f279190611ff3565b9250508190555060016002600087815260200190815260200160002060003373ffffffffffffffffffffffffffffffffffffffff1673ffffffffffffffffffffffffffffffffffffffff16815260200190815260200160002060006101000a81548160ff021916908315150217905550843373ffffffffffffffffffffffffffffffffffffffff167f5cbe105e36805f7820e291f799d5794ff948af2a5f664e580382defb6339004160405160405180910390a35050505050565b600160003373ffffffffffffffffffffffffffffffffffffffff1673ffffffffffffffffffffffffffffffffffffffff16815260200190815260200160002060009054906101000a900460ff1661106e576040517f08c379a000000000000000000000000000000000000000000000000000000000815260040161106590611b5b565b60405180910390fd5b82600073ffffffffffffffffffffffffffffffffffffffff168173ffffffffffffffffffffffffffffffffffffffff16036110de576040517f08c379a00000000000000000000000000000000000000000000000000000000081526004016110d590611efb565b60405180910390fd5b600082511415806110f0575060008314155b61112f576040517f08c379a000000000000000000000000000000000000000000000000000000000815260040161112690612073565b60405180910390fd5b600083111561117c576000471161117b576040517f08c379a0000000000000000000000000000000000000000000000000000000008152600401611172906120df565b60405180910390fd5b5b6000600380549050905060036040518060a001604052808773ffffffffffffffffffffffffffffffffffffffff1681526020018681526020018581526020016000151581526020016000815250908060018154018082558091505060019003906000526020600020906005020160009091909190915060008201518160000160006101000a81548173ffffffffffffffffffffffffffffffffffffffff021916908373ffffffffffffffffffffffffffffffffffffffff16021790555060208201518160010155604082015181600201908161125891906122ab565b5060608201518160030160006101000a81548160ff02191690831515021790555060808201518160040155505061128e81610d05565b8473ffffffffffffffffffffffffffffffffffffffff16813373ffffffffffffffffffffffffffffffffffffffff167fd5a05bf70715ad82a09a756320284a1b54c9ff74cd0f8cce6219e79b563fe59d87876040516112ee92919061237d565b60405180910390a45050505050565b600281565b600160003373ffffffffffffffffffffffffffffffffffffffff1673ffffffffffffffffffffffffffffffffffffffff16815260200190815260200160002060009054906101000a900460ff1661138e576040517f08c379a000000000000000000000000000000000000000000000000000000000815260040161138590611b5b565b60405180910390fd5b8060038054905081106113d6576040517f08c379a00000000000000000000000000000000000000000000000000000000081526004016113cd90611bc7565b60405180910390fd5b81600381815481106113eb576113ea611be7565b5b906000526020600020906005020160030160009054906101000a900460ff161561144a576040517f08c379a000000000000000000000000000000000000000000000000000000000815260040161144190611c62565b60405180910390fd5b6000600384815481106114605761145f611be7565b5b906000526020600020906005020190506002816004015410156114b8576040517f08c379a00000000000000000000000000000000000000000000000000000000081526004016114af906123f9565b60405180910390fd5b60018160030160006101000a81548160ff02191690831515021790555060008160000160009054906101000a900473ffffffffffffffffffffffffffffffffffffffff1673ffffffffffffffffffffffffffffffffffffffff1682600101548360020160405161152891906124a7565b60006040518083038185875af1925050503d8060008114611565576040519150601f19603f3d011682016040523d82523d6000602084013e61156a565b606091505b50509050843373ffffffffffffffffffffffffffffffffffffffff167f3cc489c1da5c5ee0962f501f77578005f0dce9ee82a06f1e7703c0c006de493b836040516115b59190611735565b60405180910390a35050505050565b6000604051905090565b600080fd5b600080fd5b6000819050919050565b6115eb816115d8565b81146115f657600080fd5b50565b600081359050611608816115e2565b92915050565b600060208284031215611624576116236115ce565b5b6000611632848285016115f9565b91505092915050565b600073ffffffffffffffffffffffffffffffffffffffff82169050919050565b60006116668261163b565b9050919050565b6116768161165b565b82525050565b6000602082019050611691600083018461166d565b92915050565b6116a0816115d8565b82525050565b60006020820190506116bb6000830184611697565b92915050565b6116ca8161165b565b81146116d557600080fd5b50565b6000813590506116e7816116c1565b92915050565b600060208284031215611703576117026115ce565b5b6000611711848285016116d8565b91505092915050565b60008115159050919050565b61172f8161171a565b82525050565b600060208201905061174a6000830184611726565b92915050565b600081519050919050565b600082825260208201905092915050565b60005b8381101561178a57808201518184015260208101905061176f565b60008484015250505050565b6000601f19601f8301169050919050565b60006117b282611750565b6117bc818561175b565b93506117cc81856020860161176c565b6117d581611796565b840191505092915050565b600060a0820190506117f5600083018861166d565b6118026020830187611697565b818103604083015261181481866117a7565b90506118236060830185611726565b6118306080830184611697565b9695505050505050565b60008060408385031215611851576118506115ce565b5b600061185f858286016115f9565b9250506020611870858286016116d8565b9150509250929050565b600081519050919050565b600082825260208201905092915050565b6000819050602082019050919050565b6118af8161165b565b82525050565b60006118c183836118a6565b60208301905092915050565b6000602082019050919050565b60006118e58261187a565b6118ef8185611885565b93506118fa83611896565b8060005b8381101561192b57815161191288826118b5565b975061191d836118cd565b9250506001810190506118fe565b5085935050505092915050565b6000602082019050818103600083015261195281846118da565b905092915050565b600080fd5b600080fd5b7f4e487b7100000000000000000000000000000000000000000000000000000000600052604160045260246000fd5b61199c82611796565b810181811067ffffffffffffffff821117156119bb576119ba611964565b5b80604052505050565b60006119ce6115c4565b90506119da8282611993565b919050565b600067ffffffffffffffff8211156119fa576119f9611964565b5b611a0382611796565b9050602081019050919050565b82818337600083830152505050565b6000611a32611a2d846119df565b6119c4565b905082815260208101848484011115611a4e57611a4d61195f565b5b611a59848285611a10565b509392505050565b600082601f830112611a7657611a7561195a565b5b8135611a86848260208601611a1f565b91505092915050565b600080600060608486031215611aa857611aa76115ce565b5b6000611ab6868287016116d8565b9350506020611ac7868287016115f9565b925050604084013567ffffffffffffffff811115611ae857611ae76115d3565b5b611af486828701611a61565b9150509250925092565b600082825260208201905092915050565b7f6e6f74206f776e65720000000000000000000000000000000000000000000000600082015250565b6000611b45600983611afe565b9150611b5082611b0f565b602082019050919050565b60006020820190508181036000830152611b7481611b38565b9050919050565b7f747820646f6573206e6f74206578697374000000000000000000000000000000600082015250565b6000611bb1601183611afe565b9150611bbc82611b7b565b602082019050919050565b60006020820190508181036000830152611be081611ba4565b9050919050565b7f4e487b7100000000000000000000000000000000000000000000000000000000600052603260045260246000fd5b7f747820616c726561647920657865637574656400000000000000000000000000600082015250565b6000611c4c601383611afe565b9150611c5782611c16565b602082019050919050565b60006020820190508181036000830152611c7b81611c3f565b9050919050565b7f7478206e6f7420636f6e6669726d656400000000000000000000000000000000600082015250565b6000611cb8601083611afe565b9150611cc382611c82565b602082019050919050565b60006020820190508181036000830152611ce781611cab565b9050919050565b7f4e487b7100000000000000000000000000000000000000000000000000000000600052601160045260246000fd5b6000611d28826115d8565b9150611d33836115d8565b9250828203905081811115611d4b57611d4a611cee565b5b92915050565b7f4e487b7100000000000000000000000000000000000000000000000000000000600052602260045260246000fd5b60006002820490506001821680611d9857607f821691505b602082108103611dab57611daa611d51565b5b50919050565b7f4f6e6c79204d756c7469536967436f6e74726163742063616e2065786563757460008201527f6500000000000000000000000000000000000000000000000000000000000000602082015250565b6000611e0d602183611afe565b9150611e1882611db1565b604082019050919050565b60006020820190508181036000830152611e3c81611e00565b9050919050565b7f4974206973206e6f742076616c6964206f776e657220696e6465780000000000600082015250565b6000611e79601b83611afe565b9150611e8482611e43565b602082019050919050565b60006020820190508181036000830152611ea881611e6c565b9050919050565b7f7a65726f20616464726573730000000000000000000000000000000000000000600082015250565b6000611ee5600c83611afe565b9150611ef082611eaf565b602082019050919050565b60006020820190508181036000830152611f1481611ed8565b9050919050565b7f497420697320616c7265616479206f776e657200000000000000000000000000600082015250565b6000611f51601383611afe565b9150611f5c82611f1b565b602082019050919050565b60006020820190508181036000830152611f8081611f44565b9050919050565b7f747820616c726561647920636f6e6669726d6564000000000000000000000000600082015250565b6000611fbd601483611afe565b9150611fc882611f87565b602082019050919050565b60006020820190508181036000830152611fec81611fb0565b9050919050565b6000611ffe826115d8565b9150612009836115d8565b925082820190508082111561202157612020611cee565b5b92915050565b7f696e76616c696420646174610000000000000000000000000000000000000000600082015250565b600061205d600c83611afe565b915061206882612027565b602082019050919050565b6000602082019050818103600083015261208c81612050565b9050919050565b7f646f6e7420686176652045544800000000000000000000000000000000000000600082015250565b60006120c9600d83611afe565b91506120d482612093565b602082019050919050565b600060208201905081810360008301526120f8816120bc565b9050919050565b60008190508160005260206000209050919050565b60006020601f8301049050919050565b600082821b905092915050565b6000600883026121617fffffffffffffffffffffffffffffffffffffffffffffffffffffffffffffffff82612124565b61216b8683612124565b95508019841693508086168417925050509392505050565b6000819050919050565b60006121a86121a361219e846115d8565b612183565b6115d8565b9050919050565b6000819050919050565b6121c28361218d565b6121d66121ce826121af565b848454612131565b825550505050565b600090565b6121eb6121de565b6121f68184846121b9565b505050565b5b8181101561221a5761220f6000826121e3565b6001810190506121fc565b5050565b601f82111561225f57612230816120ff565b61223984612114565b81016020851015612248578190505b61225c61225485612114565b8301826121fb565b50505b505050565b600082821c905092915050565b600061228260001984600802612264565b1980831691505092915050565b600061229b8383612271565b9150826002028217905092915050565b6122b482611750565b67ffffffffffffffff8111156122cd576122cc611964565b5b6122d78254611d80565b6122e282828561221e565b600060209050601f8311600181146123155760008415612303578287015190505b61230d858261228f565b865550612375565b601f198416612323866120ff565b60005b8281101561234b57848901518255600182019150602085019450602081019050612326565b868310156123685784890151612364601f891682612271565b8355505b6001600288020188555050505b505050505050565b60006040820190506123926000830185611697565b81810360208301526123a481846117a7565b90509392505050565b7f63616e6e6f742065786563757465207478000000000000000000000000000000600082015250565b60006123e3601183611afe565b91506123ee826123ad565b602082019050919050565b60006020820190508181036000830152612412816123d6565b9050919050565b600081905092915050565b6000815461243181611d80565b61243b8186612419565b94506001821660008114612456576001811461246b5761249e565b60ff198316865281151582028601935061249e565b612474856120ff565b60005b8381101561249657815481890152600182019150602081019050612477565b838801955050505b50505092915050565b60006124b38284612424565b91508190509291505056fea2646970667358221220c7689890b8a002d5a67411b870243ff8f93ff655fa5f3fd90a431e132f22f23f64736f6c634300081b0033",
  "linkReferences": {},
  "deployedLinkReferences": {}
}